{
  "_format": "hh-sol-artifact-1",
  "contractName": "DAOToken",
  "sourceName": "contracts/DAOToken.sol",
  "abi": [
    {
      "inputs": [],
      "stateMutability": "nonpayable",
      "type": "constructor"
    },
    {
      "inputs": [],
      "name": "InvalidShortString",
      "type": "error"
    },
    {
      "inputs": [
        {
          "internalType": "string",
          "name": "str",
          "type": "string"
        }
      ],
      "name": "StringTooLong",
      "type": "error"
    },
    {
      "anonymous": false,
      "inputs": [
        {
          "indexed": true,
          "internalType": "address",
          "name": "owner",
          "type": "address"
        },
        {
          "indexed": true,
          "internalType": "address",
          "name": "spender",
          "type": "address"
        },
        {
          "indexed": false,
          "internalType": "uint256",
          "name": "value",
          "type": "uint256"
        }
      ],
      "name": "Approval",
      "type": "event"
    },
    {
      "anonymous": false,
      "inputs": [
        {
          "indexed": true,
          "internalType": "address",
          "name": "delegator",
          "type": "address"
        },
        {
          "indexed": true,
          "internalType": "address",
          "name": "fromDelegate",
          "type": "address"
        },
        {
          "indexed": true,
          "internalType": "address",
          "name": "toDelegate",
          "type": "address"
        }
      ],
      "name": "DelegateChanged",
      "type": "event"
    },
    {
      "anonymous": false,
      "inputs": [
        {
          "indexed": true,
          "internalType": "address",
          "name": "delegate",
          "type": "address"
        },
        {
          "indexed": false,
          "internalType": "uint256",
          "name": "previousBalance",
          "type": "uint256"
        },
        {
          "indexed": false,
          "internalType": "uint256",
          "name": "newBalance",
          "type": "uint256"
        }
      ],
      "name": "DelegateVotesChanged",
      "type": "event"
    },
    {
      "anonymous": false,
      "inputs": [],
      "name": "EIP712DomainChanged",
      "type": "event"
    },
    {
      "anonymous": false,
      "inputs": [
        {
          "indexed": true,
          "internalType": "address",
          "name": "from",
          "type": "address"
        },
        {
          "indexed": true,
          "internalType": "address",
          "name": "to",
          "type": "address"
        },
        {
          "indexed": false,
          "internalType": "uint256",
          "name": "value",
          "type": "uint256"
        }
      ],
      "name": "Transfer",
      "type": "event"
    },
    {
      "inputs": [],
      "name": "CLOCK_MODE",
      "outputs": [
        {
          "internalType": "string",
          "name": "",
          "type": "string"
        }
      ],
      "stateMutability": "view",
      "type": "function"
    },
    {
      "inputs": [],
      "name": "DOMAIN_SEPARATOR",
      "outputs": [
        {
          "internalType": "bytes32",
          "name": "",
          "type": "bytes32"
        }
      ],
      "stateMutability": "view",
      "type": "function"
    },
    {
      "inputs": [
        {
          "internalType": "address",
          "name": "owner",
          "type": "address"
        },
        {
          "internalType": "address",
          "name": "spender",
          "type": "address"
        }
      ],
      "name": "allowance",
      "outputs": [
        {
          "internalType": "uint256",
          "name": "",
          "type": "uint256"
        }
      ],
      "stateMutability": "view",
      "type": "function"
    },
    {
      "inputs": [
        {
          "internalType": "address",
          "name": "spender",
          "type": "address"
        },
        {
          "internalType": "uint256",
          "name": "amount",
          "type": "uint256"
        }
      ],
      "name": "approve",
      "outputs": [
        {
          "internalType": "bool",
          "name": "",
          "type": "bool"
        }
      ],
      "stateMutability": "nonpayable",
      "type": "function"
    },
    {
      "inputs": [
        {
          "internalType": "address",
          "name": "account",
          "type": "address"
        }
      ],
      "name": "balanceOf",
      "outputs": [
        {
          "internalType": "uint256",
          "name": "",
          "type": "uint256"
        }
      ],
      "stateMutability": "view",
      "type": "function"
    },
    {
      "inputs": [
        {
          "internalType": "address",
          "name": "account",
          "type": "address"
        },
        {
          "internalType": "uint32",
          "name": "pos",
          "type": "uint32"
        }
      ],
      "name": "checkpoints",
      "outputs": [
        {
          "components": [
            {
              "internalType": "uint32",
              "name": "fromBlock",
              "type": "uint32"
            },
            {
              "internalType": "uint224",
              "name": "votes",
              "type": "uint224"
            }
          ],
          "internalType": "struct ERC20Votes.Checkpoint",
          "name": "",
          "type": "tuple"
        }
      ],
      "stateMutability": "view",
      "type": "function"
    },
    {
      "inputs": [],
      "name": "clock",
      "outputs": [
        {
          "internalType": "uint48",
          "name": "",
          "type": "uint48"
        }
      ],
      "stateMutability": "view",
      "type": "function"
    },
    {
      "inputs": [],
      "name": "decimals",
      "outputs": [
        {
          "internalType": "uint8",
          "name": "",
          "type": "uint8"
        }
      ],
      "stateMutability": "view",
      "type": "function"
    },
    {
      "inputs": [
        {
          "internalType": "address",
          "name": "spender",
          "type": "address"
        },
        {
          "internalType": "uint256",
          "name": "subtractedValue",
          "type": "uint256"
        }
      ],
      "name": "decreaseAllowance",
      "outputs": [
        {
          "internalType": "bool",
          "name": "",
          "type": "bool"
        }
      ],
      "stateMutability": "nonpayable",
      "type": "function"
    },
    {
      "inputs": [
        {
          "internalType": "address",
          "name": "delegatee",
          "type": "address"
        }
      ],
      "name": "delegate",
      "outputs": [],
      "stateMutability": "nonpayable",
      "type": "function"
    },
    {
      "inputs": [
        {
          "internalType": "address",
          "name": "delegatee",
          "type": "address"
        },
        {
          "internalType": "uint256",
          "name": "nonce",
          "type": "uint256"
        },
        {
          "internalType": "uint256",
          "name": "expiry",
          "type": "uint256"
        },
        {
          "internalType": "uint8",
          "name": "v",
          "type": "uint8"
        },
        {
          "internalType": "bytes32",
          "name": "r",
          "type": "bytes32"
        },
        {
          "internalType": "bytes32",
          "name": "s",
          "type": "bytes32"
        }
      ],
      "name": "delegateBySig",
      "outputs": [],
      "stateMutability": "nonpayable",
      "type": "function"
    },
    {
      "inputs": [
        {
          "internalType": "address",
          "name": "account",
          "type": "address"
        }
      ],
      "name": "delegates",
      "outputs": [
        {
          "internalType": "address",
          "name": "",
          "type": "address"
        }
      ],
      "stateMutability": "view",
      "type": "function"
    },
    {
      "inputs": [],
      "name": "eip712Domain",
      "outputs": [
        {
          "internalType": "bytes1",
          "name": "fields",
          "type": "bytes1"
        },
        {
          "internalType": "string",
          "name": "name",
          "type": "string"
        },
        {
          "internalType": "string",
          "name": "version",
          "type": "string"
        },
        {
          "internalType": "uint256",
          "name": "chainId",
          "type": "uint256"
        },
        {
          "internalType": "address",
          "name": "verifyingContract",
          "type": "address"
        },
        {
          "internalType": "bytes32",
          "name": "salt",
          "type": "bytes32"
        },
        {
          "internalType": "uint256[]",
          "name": "extensions",
          "type": "uint256[]"
        }
      ],
      "stateMutability": "view",
      "type": "function"
    },
    {
      "inputs": [
        {
          "internalType": "uint256",
          "name": "timepoint",
          "type": "uint256"
        }
      ],
      "name": "getPastTotalSupply",
      "outputs": [
        {
          "internalType": "uint256",
          "name": "",
          "type": "uint256"
        }
      ],
      "stateMutability": "view",
      "type": "function"
    },
    {
      "inputs": [
        {
          "internalType": "address",
          "name": "account",
          "type": "address"
        },
        {
          "internalType": "uint256",
          "name": "timepoint",
          "type": "uint256"
        }
      ],
      "name": "getPastVotes",
      "outputs": [
        {
          "internalType": "uint256",
          "name": "",
          "type": "uint256"
        }
      ],
      "stateMutability": "view",
      "type": "function"
    },
    {
      "inputs": [
        {
          "internalType": "address",
          "name": "account",
          "type": "address"
        }
      ],
      "name": "getVotes",
      "outputs": [
        {
          "internalType": "uint256",
          "name": "",
          "type": "uint256"
        }
      ],
      "stateMutability": "view",
      "type": "function"
    },
    {
      "inputs": [
        {
          "internalType": "address",
          "name": "spender",
          "type": "address"
        },
        {
          "internalType": "uint256",
          "name": "addedValue",
          "type": "uint256"
        }
      ],
      "name": "increaseAllowance",
      "outputs": [
        {
          "internalType": "bool",
          "name": "",
          "type": "bool"
        }
      ],
      "stateMutability": "nonpayable",
      "type": "function"
    },
    {
      "inputs": [],
      "name": "name",
      "outputs": [
        {
          "internalType": "string",
          "name": "",
          "type": "string"
        }
      ],
      "stateMutability": "view",
      "type": "function"
    },
    {
      "inputs": [
        {
          "internalType": "address",
          "name": "owner",
          "type": "address"
        }
      ],
      "name": "nonces",
      "outputs": [
        {
          "internalType": "uint256",
          "name": "",
          "type": "uint256"
        }
      ],
      "stateMutability": "view",
      "type": "function"
    },
    {
      "inputs": [
        {
          "internalType": "address",
          "name": "account",
          "type": "address"
        }
      ],
      "name": "numCheckpoints",
      "outputs": [
        {
          "internalType": "uint32",
          "name": "",
          "type": "uint32"
        }
      ],
      "stateMutability": "view",
      "type": "function"
    },
    {
      "inputs": [
        {
          "internalType": "address",
          "name": "owner",
          "type": "address"
        },
        {
          "internalType": "address",
          "name": "spender",
          "type": "address"
        },
        {
          "internalType": "uint256",
          "name": "value",
          "type": "uint256"
        },
        {
          "internalType": "uint256",
          "name": "deadline",
          "type": "uint256"
        },
        {
          "internalType": "uint8",
          "name": "v",
          "type": "uint8"
        },
        {
          "internalType": "bytes32",
          "name": "r",
          "type": "bytes32"
        },
        {
          "internalType": "bytes32",
          "name": "s",
          "type": "bytes32"
        }
      ],
      "name": "permit",
      "outputs": [],
      "stateMutability": "nonpayable",
      "type": "function"
    },
    {
      "inputs": [],
      "name": "symbol",
      "outputs": [
        {
          "internalType": "string",
          "name": "",
          "type": "string"
        }
      ],
      "stateMutability": "view",
      "type": "function"
    },
    {
      "inputs": [],
      "name": "totalSupply",
      "outputs": [
        {
          "internalType": "uint256",
          "name": "",
          "type": "uint256"
        }
      ],
      "stateMutability": "view",
      "type": "function"
    },
    {
      "inputs": [
        {
          "internalType": "address",
          "name": "to",
          "type": "address"
        },
        {
          "internalType": "uint256",
          "name": "amount",
          "type": "uint256"
        }
      ],
      "name": "transfer",
      "outputs": [
        {
          "internalType": "bool",
          "name": "",
          "type": "bool"
        }
      ],
      "stateMutability": "nonpayable",
      "type": "function"
    },
    {
      "inputs": [
        {
          "internalType": "address",
          "name": "from",
          "type": "address"
        },
        {
          "internalType": "address",
          "name": "to",
          "type": "address"
        },
        {
          "internalType": "uint256",
          "name": "amount",
          "type": "uint256"
        }
      ],
      "name": "transferFrom",
      "outputs": [
        {
          "internalType": "bool",
          "name": "",
          "type": "bool"
        }
      ],
      "stateMutability": "nonpayable",
      "type": "function"
    }
  ],
  "bytecode": "0x6101606040523480156200001257600080fd5b506040518060400160405280600881526020017f44414f546f6b656e000000000000000000000000000000000000000000000000815250806040518060400160405280600181526020017f31000000000000000000000000000000000000000000000000000000000000008152506040518060400160405280600881526020017f44414f546f6b656e0000000000000000000000000000000000000000000000008152506040518060400160405280600381526020017f44414f00000000000000000000000000000000000000000000000000000000008152508160039081620000fd91906200056f565b5080600490816200010f91906200056f565b50505062000128600583620001c960201b90919060201c565b610120818152505062000146600682620001c960201b90919060201c565b6101408181525050818051906020012060e08181525050808051906020012061010081815250504660a08181525050620001856200022160201b60201c565b608081815250503073ffffffffffffffffffffffffffffffffffffffff1660c08173ffffffffffffffffffffffffffffffffffffffff168152505050505062000879565b6000602083511015620001ef57620001e7836200027e60201b60201c565b90506200021b565b826200020183620002eb60201b60201c565b60000190816200021291906200056f565b5060ff60001b90505b92915050565b60007f8b73c3c69bb8fe3d512ecc4cf759cc79239f7b179b0ffacaa9a75d522b39400f60e05161010051463060405160200162000263959493929190620006c7565b60405160208183030381529060405280519060200120905090565b600080829050601f81511115620002ce57826040517f305a27a9000000000000000000000000000000000000000000000000000000008152600401620002c59190620007b3565b60405180910390fd5b805181620002dc9062000809565b60001c1760001b915050919050565b6000819050919050565b600081519050919050565b7f4e487b7100000000000000000000000000000000000000000000000000000000600052604160045260246000fd5b7f4e487b7100000000000000000000000000000000000000000000000000000000600052602260045260246000fd5b600060028204905060018216806200037757607f821691505b6020821081036200038d576200038c6200032f565b5b50919050565b60008190508160005260206000209050919050565b60006020601f8301049050919050565b600082821b905092915050565b600060088302620003f77fffffffffffffffffffffffffffffffffffffffffffffffffffffffffffffffff82620003b8565b620004038683620003b8565b95508019841693508086168417925050509392505050565b6000819050919050565b6000819050919050565b6000620004506200044a62000444846200041b565b62000425565b6200041b565b9050919050565b6000819050919050565b6200046c836200042f565b620004846200047b8262000457565b848454620003c5565b825550505050565b600090565b6200049b6200048c565b620004a881848462000461565b505050565b5b81811015620004d057620004c460008262000491565b600181019050620004ae565b5050565b601f8211156200051f57620004e98162000393565b620004f484620003a8565b8101602085101562000504578190505b6200051c6200051385620003a8565b830182620004ad565b50505b505050565b600082821c905092915050565b6000620005446000198460080262000524565b1980831691505092915050565b60006200055f838362000531565b9150826002028217905092915050565b6200057a82620002f5565b67ffffffffffffffff81111562000596576200059562000300565b5b620005a282546200035e565b620005af828285620004d4565b600060209050601f831160018114620005e75760008415620005d2578287015190505b620005de858262000551565b8655506200064e565b601f198416620005f78662000393565b60005b828110156200062157848901518255600182019150602085019450602081019050620005fa565b868310156200064157848901516200063d601f89168262000531565b8355505b6001600288020188555050505b505050505050565b6000819050919050565b6200066b8162000656565b82525050565b6200067c816200041b565b82525050565b600073ffffffffffffffffffffffffffffffffffffffff82169050919050565b6000620006af8262000682565b9050919050565b620006c181620006a2565b82525050565b600060a082019050620006de600083018862000660565b620006ed602083018762000660565b620006fc604083018662000660565b6200070b606083018562000671565b6200071a6080830184620006b6565b9695505050505050565b600082825260208201905092915050565b60005b838110156200075557808201518184015260208101905062000738565b60008484015250505050565b6000601f19601f8301169050919050565b60006200077f82620002f5565b6200078b818562000724565b93506200079d81856020860162000735565b620007a88162000761565b840191505092915050565b60006020820190508181036000830152620007cf818462000772565b905092915050565b600081519050919050565b6000819050602082019050919050565b600062000800825162000656565b80915050919050565b60006200081682620007d7565b826200082284620007e2565b90506200082f81620007f2565b9250602082101562000872576200086d7fffffffffffffffffffffffffffffffffffffffffffffffffffffffffffffffff83602003600802620003b8565b831692505b5050919050565b60805160a05160c05160e051610100516101205161014051613baf620008d460003960006109800152600061094c01526000611b1101526000611af001526000611598015260006115ee015260006116170152613baf6000f3fe608060405234801561001057600080fd5b50600436106101735760003560e01c806370a08231116100de5780639ab24eb011610097578063c3cda52011610071578063c3cda520146104ca578063d505accf146104e6578063dd62ed3e14610502578063f1127ed81461053257610173565b80639ab24eb01461043a578063a457c2d71461046a578063a9059cbb1461049a57610173565b806370a082311461034a5780637ecebe001461037a57806384b0196e146103aa5780638e539e8c146103ce57806391ddadf4146103fe57806395d89b411461041c57610173565b8063395093511161013057806339509351146102505780633a46b1a8146102805780634bf5d7e9146102b0578063587cde1e146102ce5780635c19a95c146102fe5780636fcfff451461031a57610173565b806306fdde0314610178578063095ea7b31461019657806318160ddd146101c657806323b872dd146101e4578063313ce567146102145780633644e51514610232575b600080fd5b610180610562565b60405161018d919061275b565b60405180910390f35b6101b060048036038101906101ab9190612816565b6105f4565b6040516101bd9190612871565b60405180910390f35b6101ce610617565b6040516101db919061289b565b60405180910390f35b6101fe60048036038101906101f991906128b6565b610621565b60405161020b9190612871565b60405180910390f35b61021c610650565b6040516102299190612925565b60405180910390f35b61023a610659565b6040516102479190612959565b60405180910390f35b61026a60048036038101906102659190612816565b610668565b6040516102779190612871565b60405180910390f35b61029a60048036038101906102959190612816565b61069f565b6040516102a7919061289b565b60405180910390f35b6102b8610742565b6040516102c5919061275b565b60405180910390f35b6102e860048036038101906102e39190612974565b6107d0565b6040516102f591906129b0565b60405180910390f35b61031860048036038101906103139190612974565b610839565b005b610334600480360381019061032f9190612974565b61084d565b60405161034191906129ea565b60405180910390f35b610364600480360381019061035f9190612974565b6108a1565b604051610371919061289b565b60405180910390f35b610394600480360381019061038f9190612974565b6108e9565b6040516103a1919061289b565b60405180910390f35b6103b2610939565b6040516103c59796959493929190612afe565b60405180910390f35b6103e860048036038101906103e39190612b82565b610a3b565b6040516103f5919061289b565b60405180910390f35b610406610aa0565b6040516104139190612bd0565b60405180910390f35b610424610ab0565b604051610431919061275b565b60405180910390f35b610454600480360381019061044f9190612974565b610b42565b604051610461919061289b565b60405180910390f35b610484600480360381019061047f9190612816565b610c4a565b6040516104919190612871565b60405180910390f35b6104b460048036038101906104af9190612816565b610cc1565b6040516104c19190612871565b60405180910390f35b6104e460048036038101906104df9190612c43565b610ce4565b005b61050060048036038101906104fb9190612cd0565b610de8565b005b61051c60048036038101906105179190612d72565b610f2a565b604051610529919061289b565b60405180910390f35b61054c60048036038101906105479190612dde565b610fb1565b6040516105599190612e93565b60405180910390f35b60606003805461057190612edd565b80601f016020809104026020016040519081016040528092919081815260200182805461059d90612edd565b80156105ea5780601f106105bf576101008083540402835291602001916105ea565b820191906000526020600020905b8154815290600101906020018083116105cd57829003601f168201915b5050505050905090565b6000806105ff6110c1565b905061060c8185856110c9565b600191505092915050565b6000600254905090565b60008061062c6110c1565b9050610639858285611292565b61064485858561131e565b60019150509392505050565b60006012905090565b6000610663611594565b905090565b6000806106736110c1565b90506106948185856106858589610f2a565b61068f9190612f3d565b6110c9565b600191505092915050565b60006106a9610aa0565b65ffffffffffff1682106106f2576040517f08c379a00000000000000000000000000000000000000000000000000000000081526004016106e990612fbd565b60405180910390fd5b61073a600a60008573ffffffffffffffffffffffffffffffffffffffff1673ffffffffffffffffffffffffffffffffffffffff1681526020019081526020016000208361164b565b905092915050565b60604361074d610aa0565b65ffffffffffff1614610795576040517f08c379a000000000000000000000000000000000000000000000000000000000815260040161078c90613029565b60405180910390fd5b6040518060400160405280601d81526020017f6d6f64653d626c6f636b6e756d6265722666726f6d3d64656661756c74000000815250905090565b6000600960008373ffffffffffffffffffffffffffffffffffffffff1673ffffffffffffffffffffffffffffffffffffffff16815260200190815260200160002060009054906101000a900473ffffffffffffffffffffffffffffffffffffffff169050919050565b61084a6108446110c1565b82611793565b50565b600061089a600a60008473ffffffffffffffffffffffffffffffffffffffff1673ffffffffffffffffffffffffffffffffffffffff168152602001908152602001600020805490506118ad565b9050919050565b60008060008373ffffffffffffffffffffffffffffffffffffffff1673ffffffffffffffffffffffffffffffffffffffff168152602001908152602001600020549050919050565b6000610932600760008473ffffffffffffffffffffffffffffffffffffffff1673ffffffffffffffffffffffffffffffffffffffff168152602001908152602001600020611900565b9050919050565b60006060806000806000606061097960057f000000000000000000000000000000000000000000000000000000000000000061190e90919063ffffffff16565b6109ad60067f000000000000000000000000000000000000000000000000000000000000000061190e90919063ffffffff16565b46306000801b600067ffffffffffffffff8111156109ce576109cd613049565b5b6040519080825280602002602001820160405280156109fc5781602001602082028036833780820191505090505b507f0f00000000000000000000000000000000000000000000000000000000000000959493929190965096509650965096509650965090919293949596565b6000610a45610aa0565b65ffffffffffff168210610a8e576040517f08c379a0000000000000000000000000000000000000000000000000000000008152600401610a8590612fbd565b60405180910390fd5b610a99600b8361164b565b9050919050565b6000610aab436119be565b905090565b606060048054610abf90612edd565b80601f0160208091040260200160405190810160405280929190818152602001828054610aeb90612edd565b8015610b385780601f10610b0d57610100808354040283529160200191610b38565b820191906000526020600020905b815481529060010190602001808311610b1b57829003601f168201915b5050505050905090565b600080600a60008473ffffffffffffffffffffffffffffffffffffffff1673ffffffffffffffffffffffffffffffffffffffff16815260200190815260200160002080549050905060008114610c2157600a60008473ffffffffffffffffffffffffffffffffffffffff1673ffffffffffffffffffffffffffffffffffffffff1681526020019081526020016000206001820381548110610be657610be5613078565b5b9060005260206000200160000160049054906101000a90047bffffffffffffffffffffffffffffffffffffffffffffffffffffffff16610c24565b60005b7bffffffffffffffffffffffffffffffffffffffffffffffffffffffff16915050919050565b600080610c556110c1565b90506000610c638286610f2a565b905083811015610ca8576040517f08c379a0000000000000000000000000000000000000000000000000000000008152600401610c9f90613119565b60405180910390fd5b610cb582868684036110c9565b60019250505092915050565b600080610ccc6110c1565b9050610cd981858561131e565b600191505092915050565b83421115610d27576040517f08c379a0000000000000000000000000000000000000000000000000000000008152600401610d1e90613185565b60405180910390fd5b6000610d89610d817fe48329057bfd03d55e49b547132e39cffd9c1820ad7b9d4c5307691425d15adf898989604051602001610d6694939291906131a5565b60405160208183030381529060405280519060200120611a13565b858585611a2d565b9050610d9481611a58565b8614610dd5576040517f08c379a0000000000000000000000000000000000000000000000000000000008152600401610dcc90613236565b60405180910390fd5b610ddf8188611793565b50505050505050565b83421115610e2b576040517f08c379a0000000000000000000000000000000000000000000000000000000008152600401610e22906132a2565b60405180910390fd5b60007f6e71edae12b1b97f4d1f60370fef10105fa2faae0126114a169c64845d6126c9888888610e5a8c611a58565b89604051602001610e70969594939291906132c2565b6040516020818303038152906040528051906020012090506000610e9382611a13565b90506000610ea382878787611a2d565b90508973ffffffffffffffffffffffffffffffffffffffff168173ffffffffffffffffffffffffffffffffffffffff1614610f13576040517f08c379a0000000000000000000000000000000000000000000000000000000008152600401610f0a9061336f565b60405180910390fd5b610f1e8a8a8a6110c9565b50505050505050505050565b6000600160008473ffffffffffffffffffffffffffffffffffffffff1673ffffffffffffffffffffffffffffffffffffffff16815260200190815260200160002060008373ffffffffffffffffffffffffffffffffffffffff1673ffffffffffffffffffffffffffffffffffffffff16815260200190815260200160002054905092915050565b610fb961268d565b600a60008473ffffffffffffffffffffffffffffffffffffffff1673ffffffffffffffffffffffffffffffffffffffff1681526020019081526020016000208263ffffffff16815481106110105761100f613078565b5b906000526020600020016040518060400160405290816000820160009054906101000a900463ffffffff1663ffffffff1663ffffffff1681526020016000820160049054906101000a90047bffffffffffffffffffffffffffffffffffffffffffffffffffffffff167bffffffffffffffffffffffffffffffffffffffffffffffffffffffff167bffffffffffffffffffffffffffffffffffffffffffffffffffffffff1681525050905092915050565b600033905090565b600073ffffffffffffffffffffffffffffffffffffffff168373ffffffffffffffffffffffffffffffffffffffff1603611138576040517f08c379a000000000000000000000000000000000000000000000000000000000815260040161112f90613401565b60405180910390fd5b600073ffffffffffffffffffffffffffffffffffffffff168273ffffffffffffffffffffffffffffffffffffffff16036111a7576040517f08c379a000000000000000000000000000000000000000000000000000000000815260040161119e90613493565b60405180910390fd5b80600160008573ffffffffffffffffffffffffffffffffffffffff1673ffffffffffffffffffffffffffffffffffffffff16815260200190815260200160002060008473ffffffffffffffffffffffffffffffffffffffff1673ffffffffffffffffffffffffffffffffffffffff168152602001908152602001600020819055508173ffffffffffffffffffffffffffffffffffffffff168373ffffffffffffffffffffffffffffffffffffffff167f8c5be1e5ebec7d5bd14f71427d1e84f3dd0314c0f7b2291e5b200ac8c7c3b92583604051611285919061289b565b60405180910390a3505050565b600061129e8484610f2a565b90507fffffffffffffffffffffffffffffffffffffffffffffffffffffffffffffffff8114611318578181101561130a576040517f08c379a0000000000000000000000000000000000000000000000000000000008152600401611301906134ff565b60405180910390fd5b61131784848484036110c9565b5b50505050565b600073ffffffffffffffffffffffffffffffffffffffff168373ffffffffffffffffffffffffffffffffffffffff160361138d576040517f08c379a000000000000000000000000000000000000000000000000000000000815260040161138490613591565b60405180910390fd5b600073ffffffffffffffffffffffffffffffffffffffff168273ffffffffffffffffffffffffffffffffffffffff16036113fc576040517f08c379a00000000000000000000000000000000000000000000000000000000081526004016113f390613623565b60405180910390fd5b611407838383611ab6565b60008060008573ffffffffffffffffffffffffffffffffffffffff1673ffffffffffffffffffffffffffffffffffffffff1681526020019081526020016000205490508181101561148d576040517f08c379a0000000000000000000000000000000000000000000000000000000008152600401611484906136b5565b60405180910390fd5b8181036000808673ffffffffffffffffffffffffffffffffffffffff1673ffffffffffffffffffffffffffffffffffffffff16815260200190815260200160002081905550816000808573ffffffffffffffffffffffffffffffffffffffff1673ffffffffffffffffffffffffffffffffffffffff168152602001908152602001600020600082825401925050819055508273ffffffffffffffffffffffffffffffffffffffff168473ffffffffffffffffffffffffffffffffffffffff167fddf252ad1be2c89b69c2b068fc378daa952ba7f163c4a11628f55a4df523b3ef8460405161157b919061289b565b60405180910390a361158e848484611abb565b50505050565b60007f000000000000000000000000000000000000000000000000000000000000000073ffffffffffffffffffffffffffffffffffffffff163073ffffffffffffffffffffffffffffffffffffffff1614801561161057507f000000000000000000000000000000000000000000000000000000000000000046145b1561163d577f00000000000000000000000000000000000000000000000000000000000000009050611648565b611645611acb565b90505b90565b6000808380549050905060008082905060058311156116c157600061166f84611b61565b8461167a91906136d5565b9050856116878883611c5a565b60000160009054906101000a900463ffffffff1663ffffffff1611156116af578091506116bf565b6001816116bc9190612f3d565b92505b505b5b808210156117215760006116d68383611c6f565b9050856116e38883611c5a565b60000160009054906101000a900463ffffffff1663ffffffff16111561170b5780915061171b565b6001816117189190612f3d565b92505b506116c2565b60008114611767576117368660018303611c5a565b60000160049054906101000a90047bffffffffffffffffffffffffffffffffffffffffffffffffffffffff1661176a565b60005b7bffffffffffffffffffffffffffffffffffffffffffffffffffffffff16935050505092915050565b600061179e836107d0565b905060006117ab846108a1565b905082600960008673ffffffffffffffffffffffffffffffffffffffff1673ffffffffffffffffffffffffffffffffffffffff16815260200190815260200160002060006101000a81548173ffffffffffffffffffffffffffffffffffffffff021916908373ffffffffffffffffffffffffffffffffffffffff1602179055508273ffffffffffffffffffffffffffffffffffffffff168273ffffffffffffffffffffffffffffffffffffffff168573ffffffffffffffffffffffffffffffffffffffff167f3134e8a2e6d97e929a7e54011ea5485d7d196dd5f0ba4d4ef95803e8e3fc257f60405160405180910390a46118a7828483611c95565b50505050565b600063ffffffff80168211156118f8576040517f08c379a00000000000000000000000000000000000000000000000000000000081526004016118ef9061377b565b60405180910390fd5b819050919050565b600081600001549050919050565b606060ff60001b831461192b5761192483611e8e565b90506119b8565b81805461193790612edd565b80601f016020809104026020016040519081016040528092919081815260200182805461196390612edd565b80156119b05780601f10611985576101008083540402835291602001916119b0565b820191906000526020600020905b81548152906001019060200180831161199357829003601f168201915b505050505090505b92915050565b600065ffffffffffff8016821115611a0b576040517f08c379a0000000000000000000000000000000000000000000000000000000008152600401611a029061380d565b60405180910390fd5b819050919050565b6000611a26611a20611594565b83611f02565b9050919050565b6000806000611a3e87878787611f43565b91509150611a4b81612025565b8192505050949350505050565b600080600760008473ffffffffffffffffffffffffffffffffffffffff1673ffffffffffffffffffffffffffffffffffffffff1681526020019081526020016000209050611aa581611900565b9150611ab08161218b565b50919050565b505050565b611ac68383836121a1565b505050565b60007f8b73c3c69bb8fe3d512ecc4cf759cc79239f7b179b0ffacaa9a75d522b39400f7f00000000000000000000000000000000000000000000000000000000000000007f00000000000000000000000000000000000000000000000000000000000000004630604051602001611b4695949392919061382d565b60405160208183030381529060405280519060200120905090565b6000808203611b735760009050611c55565b60006001611b80846121cc565b901c6001901b90506001818481611b9a57611b99613880565b5b048201901c90506001818481611bb357611bb2613880565b5b048201901c90506001818481611bcc57611bcb613880565b5b048201901c90506001818481611be557611be4613880565b5b048201901c90506001818481611bfe57611bfd613880565b5b048201901c90506001818481611c1757611c16613880565b5b048201901c90506001818481611c3057611c2f613880565b5b048201901c9050611c5181828581611c4b57611c4a613880565b5b046122ad565b9150505b919050565b60008260005281602060002001905092915050565b60006002828418611c8091906138af565b828416611c8d9190612f3d565b905092915050565b8173ffffffffffffffffffffffffffffffffffffffff168373ffffffffffffffffffffffffffffffffffffffff1614158015611cd15750600081115b15611e8957600073ffffffffffffffffffffffffffffffffffffffff168373ffffffffffffffffffffffffffffffffffffffff1614611daf57600080611d58600a60008773ffffffffffffffffffffffffffffffffffffffff1673ffffffffffffffffffffffffffffffffffffffff1681526020019081526020016000206122c6856122dc565b915091508473ffffffffffffffffffffffffffffffffffffffff167fdec2bacdd2f05b59de34da9b523dff8be42e5e38e818c82fdb0bae774387a7248383604051611da49291906138e0565b60405180910390a250505b600073ffffffffffffffffffffffffffffffffffffffff168273ffffffffffffffffffffffffffffffffffffffff1614611e8857600080611e31600a60008673ffffffffffffffffffffffffffffffffffffffff1673ffffffffffffffffffffffffffffffffffffffff1681526020019081526020016000206125b7856122dc565b915091508373ffffffffffffffffffffffffffffffffffffffff167fdec2bacdd2f05b59de34da9b523dff8be42e5e38e818c82fdb0bae774387a7248383604051611e7d9291906138e0565b60405180910390a250505b5b505050565b60606000611e9b836125cd565b90506000602067ffffffffffffffff811115611eba57611eb9613049565b5b6040519080825280601f01601f191660200182016040528015611eec5781602001600182028036833780820191505090505b5090508181528360208201528092505050919050565b60006040517f190100000000000000000000000000000000000000000000000000000000000081528360028201528260228201526042812091505092915050565b6000807f7fffffffffffffffffffffffffffffff5d576e7357a4501ddfe92f46681b20a08360001c1115611f7e57600060039150915061201c565b600060018787878760405160008152602001604052604051611fa39493929190613909565b6020604051602081039080840390855afa158015611fc5573d6000803e3d6000fd5b505050602060405103519050600073ffffffffffffffffffffffffffffffffffffffff168173ffffffffffffffffffffffffffffffffffffffff16036120135760006001925092505061201c565b80600092509250505b94509492505050565b600060048111156120395761203861394e565b5b81600481111561204c5761204b61394e565b5b031561218857600160048111156120665761206561394e565b5b8160048111156120795761207861394e565b5b036120b9576040517f08c379a00000000000000000000000000000000000000000000000000000000081526004016120b0906139c9565b60405180910390fd5b600260048111156120cd576120cc61394e565b5b8160048111156120e0576120df61394e565b5b03612120576040517f08c379a000000000000000000000000000000000000000000000000000000000815260040161211790613a35565b60405180910390fd5b600360048111156121345761213361394e565b5b8160048111156121475761214661394e565b5b03612187576040517f08c379a000000000000000000000000000000000000000000000000000000000815260040161217e90613ac7565b60405180910390fd5b5b50565b6001816000016000828254019250508190555050565b6121ac83838361261d565b6121c76121b8846107d0565b6121c1846107d0565b83611c95565b505050565b600080600090506000608084901c11156121ee57608083901c92506080810190505b6000604084901c111561220957604083901c92506040810190505b6000602084901c111561222457602083901c92506020810190505b6000601084901c111561223f57601083901c92506010810190505b6000600884901c111561225a57600883901c92506008810190505b6000600484901c111561227557600483901c92506004810190505b6000600284901c111561229057600283901c92506002810190505b6000600184901c11156122a4576001810190505b80915050919050565b60008183106122bc57816122be565b825b905092915050565b600081836122d491906136d5565b905092915050565b60008060008580549050905060008082146123a2576122fe8760018403611c5a565b6040518060400160405290816000820160009054906101000a900463ffffffff1663ffffffff1663ffffffff1681526020016000820160049054906101000a90047bffffffffffffffffffffffffffffffffffffffffffffffffffffffff167bffffffffffffffffffffffffffffffffffffffffffffffffffffffff167bffffffffffffffffffffffffffffffffffffffffffffffffffffffff16815250506123de565b6040518060400160405280600063ffffffff16815260200160007bffffffffffffffffffffffffffffffffffffffffffffffffffffffff168152505b905080602001517bffffffffffffffffffffffffffffffffffffffffffffffffffffffff16935061241384868863ffffffff16565b925060008211801561243d5750612428610aa0565b65ffffffffffff16816000015163ffffffff16145b156124ae5761244b83612622565b6124588860018503611c5a565b60000160046101000a8154817bffffffffffffffffffffffffffffffffffffffffffffffffffffffff02191690837bffffffffffffffffffffffffffffffffffffffffffffffffffffffff1602179055506125ad565b8660405180604001604052806124d26124c5610aa0565b65ffffffffffff166118ad565b63ffffffff1681526020016124e686612622565b7bffffffffffffffffffffffffffffffffffffffffffffffffffffffff168152509080600181540180825580915050600190039060005260206000200160009091909190915060008201518160000160006101000a81548163ffffffff021916908363ffffffff16021790555060208201518160000160046101000a8154817bffffffffffffffffffffffffffffffffffffffffffffffffffffffff02191690837bffffffffffffffffffffffffffffffffffffffffffffffffffffffff16021790555050505b5050935093915050565b600081836125c59190612f3d565b905092915050565b60008060ff8360001c169050601f811115612614576040517fb3512b0c00000000000000000000000000000000000000000000000000000000815260040160405180910390fd5b80915050919050565b505050565b60007bffffffffffffffffffffffffffffffffffffffffffffffffffffffff8016821115612685576040517f08c379a000000000000000000000000000000000000000000000000000000000815260040161267c90613b59565b60405180910390fd5b819050919050565b6040518060400160405280600063ffffffff16815260200160007bffffffffffffffffffffffffffffffffffffffffffffffffffffffff1681525090565b600081519050919050565b600082825260208201905092915050565b60005b838110156127055780820151818401526020810190506126ea565b60008484015250505050565b6000601f19601f8301169050919050565b600061272d826126cb565b61273781856126d6565b93506127478185602086016126e7565b61275081612711565b840191505092915050565b600060208201905081810360008301526127758184612722565b905092915050565b600080fd5b600073ffffffffffffffffffffffffffffffffffffffff82169050919050565b60006127ad82612782565b9050919050565b6127bd816127a2565b81146127c857600080fd5b50565b6000813590506127da816127b4565b92915050565b6000819050919050565b6127f3816127e0565b81146127fe57600080fd5b50565b600081359050612810816127ea565b92915050565b6000806040838503121561282d5761282c61277d565b5b600061283b858286016127cb565b925050602061284c85828601612801565b9150509250929050565b60008115159050919050565b61286b81612856565b82525050565b60006020820190506128866000830184612862565b92915050565b612895816127e0565b82525050565b60006020820190506128b0600083018461288c565b92915050565b6000806000606084860312156128cf576128ce61277d565b5b60006128dd868287016127cb565b93505060206128ee868287016127cb565b92505060406128ff86828701612801565b9150509250925092565b600060ff82169050919050565b61291f81612909565b82525050565b600060208201905061293a6000830184612916565b92915050565b6000819050919050565b61295381612940565b82525050565b600060208201905061296e600083018461294a565b92915050565b60006020828403121561298a5761298961277d565b5b6000612998848285016127cb565b91505092915050565b6129aa816127a2565b82525050565b60006020820190506129c560008301846129a1565b92915050565b600063ffffffff82169050919050565b6129e4816129cb565b82525050565b60006020820190506129ff60008301846129db565b92915050565b60007fff0000000000000000000000000000000000000000000000000000000000000082169050919050565b612a3a81612a05565b82525050565b600081519050919050565b600082825260208201905092915050565b6000819050602082019050919050565b612a75816127e0565b82525050565b6000612a878383612a6c565b60208301905092915050565b6000602082019050919050565b6000612aab82612a40565b612ab58185612a4b565b9350612ac083612a5c565b8060005b83811015612af1578151612ad88882612a7b565b9750612ae383612a93565b925050600181019050612ac4565b5085935050505092915050565b600060e082019050612b13600083018a612a31565b8181036020830152612b258189612722565b90508181036040830152612b398188612722565b9050612b48606083018761288c565b612b5560808301866129a1565b612b6260a083018561294a565b81810360c0830152612b748184612aa0565b905098975050505050505050565b600060208284031215612b9857612b9761277d565b5b6000612ba684828501612801565b91505092915050565b600065ffffffffffff82169050919050565b612bca81612baf565b82525050565b6000602082019050612be56000830184612bc1565b92915050565b612bf481612909565b8114612bff57600080fd5b50565b600081359050612c1181612beb565b92915050565b612c2081612940565b8114612c2b57600080fd5b50565b600081359050612c3d81612c17565b92915050565b60008060008060008060c08789031215612c6057612c5f61277d565b5b6000612c6e89828a016127cb565b9650506020612c7f89828a01612801565b9550506040612c9089828a01612801565b9450506060612ca189828a01612c02565b9350506080612cb289828a01612c2e565b92505060a0612cc389828a01612c2e565b9150509295509295509295565b600080600080600080600060e0888a031215612cef57612cee61277d565b5b6000612cfd8a828b016127cb565b9750506020612d0e8a828b016127cb565b9650506040612d1f8a828b01612801565b9550506060612d308a828b01612801565b9450506080612d418a828b01612c02565b93505060a0612d528a828b01612c2e565b92505060c0612d638a828b01612c2e565b91505092959891949750929550565b60008060408385031215612d8957612d8861277d565b5b6000612d97858286016127cb565b9250506020612da8858286016127cb565b9150509250929050565b612dbb816129cb565b8114612dc657600080fd5b50565b600081359050612dd881612db2565b92915050565b60008060408385031215612df557612df461277d565b5b6000612e03858286016127cb565b9250506020612e1485828601612dc9565b9150509250929050565b612e27816129cb565b82525050565b60007bffffffffffffffffffffffffffffffffffffffffffffffffffffffff82169050919050565b612e5e81612e2d565b82525050565b604082016000820151612e7a6000850182612e1e565b506020820151612e8d6020850182612e55565b50505050565b6000604082019050612ea86000830184612e64565b92915050565b7f4e487b7100000000000000000000000000000000000000000000000000000000600052602260045260246000fd5b60006002820490506001821680612ef557607f821691505b602082108103612f0857612f07612eae565b5b50919050565b7f4e487b7100000000000000000000000000000000000000000000000000000000600052601160045260246000fd5b6000612f48826127e0565b9150612f53836127e0565b9250828201905080821115612f6b57612f6a612f0e565b5b92915050565b7f4552433230566f7465733a20667574757265206c6f6f6b757000000000000000600082015250565b6000612fa76019836126d6565b9150612fb282612f71565b602082019050919050565b60006020820190508181036000830152612fd681612f9a565b9050919050565b7f4552433230566f7465733a2062726f6b656e20636c6f636b206d6f6465000000600082015250565b6000613013601d836126d6565b915061301e82612fdd565b602082019050919050565b6000602082019050818103600083015261304281613006565b9050919050565b7f4e487b7100000000000000000000000000000000000000000000000000000000600052604160045260246000fd5b7f4e487b7100000000000000000000000000000000000000000000000000000000600052603260045260246000fd5b7f45524332303a2064656372656173656420616c6c6f77616e63652062656c6f7760008201527f207a65726f000000000000000000000000000000000000000000000000000000602082015250565b60006131036025836126d6565b915061310e826130a7565b604082019050919050565b60006020820190508181036000830152613132816130f6565b9050919050565b7f4552433230566f7465733a207369676e61747572652065787069726564000000600082015250565b600061316f601d836126d6565b915061317a82613139565b602082019050919050565b6000602082019050818103600083015261319e81613162565b9050919050565b60006080820190506131ba600083018761294a565b6131c760208301866129a1565b6131d4604083018561288c565b6131e1606083018461288c565b95945050505050565b7f4552433230566f7465733a20696e76616c6964206e6f6e636500000000000000600082015250565b60006132206019836126d6565b915061322b826131ea565b602082019050919050565b6000602082019050818103600083015261324f81613213565b9050919050565b7f45524332305065726d69743a206578706972656420646561646c696e65000000600082015250565b600061328c601d836126d6565b915061329782613256565b602082019050919050565b600060208201905081810360008301526132bb8161327f565b9050919050565b600060c0820190506132d7600083018961294a565b6132e460208301886129a1565b6132f160408301876129a1565b6132fe606083018661288c565b61330b608083018561288c565b61331860a083018461288c565b979650505050505050565b7f45524332305065726d69743a20696e76616c6964207369676e61747572650000600082015250565b6000613359601e836126d6565b915061336482613323565b602082019050919050565b600060208201905081810360008301526133888161334c565b9050919050565b7f45524332303a20617070726f76652066726f6d20746865207a65726f2061646460008201527f7265737300000000000000000000000000000000000000000000000000000000602082015250565b60006133eb6024836126d6565b91506133f68261338f565b604082019050919050565b6000602082019050818103600083015261341a816133de565b9050919050565b7f45524332303a20617070726f766520746f20746865207a65726f20616464726560008201527f7373000000000000000000000000000000000000000000000000000000000000602082015250565b600061347d6022836126d6565b915061348882613421565b604082019050919050565b600060208201905081810360008301526134ac81613470565b9050919050565b7f45524332303a20696e73756666696369656e7420616c6c6f77616e6365000000600082015250565b60006134e9601d836126d6565b91506134f4826134b3565b602082019050919050565b60006020820190508181036000830152613518816134dc565b9050919050565b7f45524332303a207472616e736665722066726f6d20746865207a65726f20616460008201527f6472657373000000000000000000000000000000000000000000000000000000602082015250565b600061357b6025836126d6565b91506135868261351f565b604082019050919050565b600060208201905081810360008301526135aa8161356e565b9050919050565b7f45524332303a207472616e7366657220746f20746865207a65726f206164647260008201527f6573730000000000000000000000000000000000000000000000000000000000602082015250565b600061360d6023836126d6565b9150613618826135b1565b604082019050919050565b6000602082019050818103600083015261363c81613600565b9050919050565b7f45524332303a207472616e7366657220616d6f756e742065786365656473206260008201527f616c616e63650000000000000000000000000000000000000000000000000000602082015250565b600061369f6026836126d6565b91506136aa82613643565b604082019050919050565b600060208201905081810360008301526136ce81613692565b9050919050565b60006136e0826127e0565b91506136eb836127e0565b925082820390508181111561370357613702612f0e565b5b92915050565b7f53616665436173743a2076616c756520646f65736e27742066697420696e203360008201527f3220626974730000000000000000000000000000000000000000000000000000602082015250565b60006137656026836126d6565b915061377082613709565b604082019050919050565b6000602082019050818103600083015261379481613758565b9050919050565b7f53616665436173743a2076616c756520646f65736e27742066697420696e203460008201527f3820626974730000000000000000000000000000000000000000000000000000602082015250565b60006137f76026836126d6565b91506138028261379b565b604082019050919050565b60006020820190508181036000830152613826816137ea565b9050919050565b600060a082019050613842600083018861294a565b61384f602083018761294a565b61385c604083018661294a565b613869606083018561288c565b61387660808301846129a1565b9695505050505050565b7f4e487b7100000000000000000000000000000000000000000000000000000000600052601260045260246000fd5b60006138ba826127e0565b91506138c5836127e0565b9250826138d5576138d4613880565b5b828204905092915050565b60006040820190506138f5600083018561288c565b613902602083018461288c565b9392505050565b600060808201905061391e600083018761294a565b61392b6020830186612916565b613938604083018561294a565b613945606083018461294a565b95945050505050565b7f4e487b7100000000000000000000000000000000000000000000000000000000600052602160045260246000fd5b7f45434453413a20696e76616c6964207369676e61747572650000000000000000600082015250565b60006139b36018836126d6565b91506139be8261397d565b602082019050919050565b600060208201905081810360008301526139e2816139a6565b9050919050565b7f45434453413a20696e76616c6964207369676e6174757265206c656e67746800600082015250565b6000613a1f601f836126d6565b9150613a2a826139e9565b602082019050919050565b60006020820190508181036000830152613a4e81613a12565b9050919050565b7f45434453413a20696e76616c6964207369676e6174757265202773272076616c60008201527f7565000000000000000000000000000000000000000000000000000000000000602082015250565b6000613ab16022836126d6565b9150613abc82613a55565b604082019050919050565b60006020820190508181036000830152613ae081613aa4565b9050919050565b7f53616665436173743a2076616c756520646f65736e27742066697420696e203260008201527f3234206269747300000000000000000000000000000000000000000000000000602082015250565b6000613b436027836126d6565b9150613b4e82613ae7565b604082019050919050565b60006020820190508181036000830152613b7281613b36565b905091905056fea2646970667358221220a30cfed56da493f698d1e0799d07ad8bc77b95f3e4e726081faef1e8827ab67c64736f6c63430008180033",
  "linkReferences": {},
  "deployedLinkReferences": {}
}