{"abi":[{"type":"constructor","inputs":[{"name":"_token","type":"address","internalType":"contract IVotes"}],"stateMutability":"nonpayable"},{"type":"receive","stateMutability":"payable"},{"type":"function","name":"BALLOT_TYPEHASH","inputs":[],"outputs":[{"name":"","type":"bytes32","internalType":"bytes32"}],"stateMutability":"view"},{"type":"function","name":"CLOCK_MODE","inputs":[],"outputs":[{"name":"","type":"string","internalType":"string"}],"stateMutability":"view"},{"type":"function","name":"COUNTING_MODE","inputs":[],"outputs":[{"name":"","type":"string","internalType":"string"}],"stateMutability":"pure"},{"type":"function","name":"EXTENDED_BALLOT_TYPEHASH","inputs":[],"outputs":[{"name":"","type":"bytes32","internalType":"bytes32"}],"stateMutability":"view"},{"type":"function","name":"cancel","inputs":[{"name":"proposalId","type":"uint256","internalType":"uint256"}],"outputs":[],"stateMutability":"nonpayable"},{"type":"function","name":"cancel","inputs":[{"name":"targets","type":"address[]","internalType":"address[]"},{"name":"values","type":"uint256[]","internalType":"uint256[]"},{"name":"calldatas","type":"bytes[]","internalType":"bytes[]"},{"name":"descriptionHash","type":"bytes32","internalType":"bytes32"}],"outputs":[{"name":"","type":"uint256","internalType":"uint256"}],"stateMutability":"nonpayable"},{"type":"function","name":"castVote","inputs":[{"name":"proposalId","type":"uint256","internalType":"uint256"},{"name":"support","type":"uint8","internalType":"uint8"}],"outputs":[{"name":"","type":"uint256","internalType":"uint256"}],"stateMutability":"nonpayable"},{"type":"function","name":"castVoteBySig","inputs":[{"name":"proposalId","type":"uint256","internalType":"uint256"},{"name":"support","type":"uint8","internalType":"uint8"},{"name":"v","type":"uint8","internalType":"uint8"},{"name":"r","type":"bytes32","internalType":"bytes32"},{"name":"s","type":"bytes32","internalType":"bytes32"}],"outputs":[{"name":"","type":"uint256","internalType":"uint256"}],"stateMutability":"nonpayable"},{"type":"function","name":"castVoteWithReason","inputs":[{"name":"proposalId","type":"uint256","internalType":"uint256"},{"name":"support","type":"uint8","internalType":"uint8"},{"name":"reason","type":"string","internalType":"string"}],"outputs":[{"name":"","type":"uint256","internalType":"uint256"}],"stateMutability":"nonpayable"},{"type":"function","name":"castVoteWithReasonAndParams","inputs":[{"name":"proposalId","type":"uint256","internalType":"uint256"},{"name":"support","type":"uint8","internalType":"uint8"},{"name":"reason","type":"string","internalType":"string"},{"name":"params","type":"bytes","internalType":"bytes"}],"outputs":[{"name":"","type":"uint256","internalType":"uint256"}],"stateMutability":"nonpayable"},{"type":"function","name":"castVoteWithReasonAndParamsBySig","inputs":[{"name":"proposalId","type":"uint256","internalType":"uint256"},{"name":"support","type":"uint8","internalType":"uint8"},{"name":"reason","type":"string","internalType":"string"},{"name":"params","type":"bytes","internalType":"bytes"},{"name":"v","type":"uint8","internalType":"uint8"},{"name":"r","type":"bytes32","internalType":"bytes32"},{"name":"s","type":"bytes32","internalType":"bytes32"}],"outputs":[{"name":"","type":"uint256","internalType":"uint256"}],"stateMutability":"nonpayable"},{"type":"function","name":"clock","inputs":[],"outputs":[{"name":"","type":"uint48","internalType":"uint48"}],"stateMutability":"view"},{"type":"function","name":"eip712Domain","inputs":[],"outputs":[{"name":"fields","type":"bytes1","internalType":"bytes1"},{"name":"name","type":"string","internalType":"string"},{"name":"version","type":"string","internalType":"string"},{"name":"chainId","type":"uint256","internalType":"uint256"},{"name":"verifyingContract","type":"address","internalType":"address"},{"name":"salt","type":"bytes32","internalType":"bytes32"},{"name":"extensions","type":"uint256[]","internalType":"uint256[]"}],"stateMutability":"view"},{"type":"function","name":"execute","inputs":[{"name":"targets","type":"address[]","internalType":"address[]"},{"name":"values","type":"uint256[]","internalType":"uint256[]"},{"name":"calldatas","type":"bytes[]","internalType":"bytes[]"},{"name":"descriptionHash","type":"bytes32","internalType":"bytes32"}],"outputs":[{"name":"","type":"uint256","internalType":"uint256"}],"stateMutability":"payable"},{"type":"function","name":"execute","inputs":[{"name":"proposalId","type":"uint256","internalType":"uint256"}],"outputs":[],"stateMutability":"payable"},{"type":"function","name":"getActions","inputs":[{"name":"proposalId","type":"uint256","internalType":"uint256"}],"outputs":[{"name":"targets","type":"address[]","internalType":"address[]"},{"name":"values","type":"uint256[]","internalType":"uint256[]"},{"name":"signatures","type":"string[]","internalType":"string[]"},{"name":"calldatas","type":"bytes[]","internalType":"bytes[]"}],"stateMutability":"view"},{"type":"function","name":"getReceipt","inputs":[{"name":"proposalId","type":"uint256","internalType":"uint256"},{"name":"voter","type":"address","internalType":"address"}],"outputs":[{"name":"","type":"tuple","internalType":"struct IGovernorCompatibilityBravo.Receipt","components":[{"name":"hasVoted","type":"bool","internalType":"bool"},{"name":"support","type":"uint8","internalType":"uint8"},{"name":"votes","type":"uint96","internalType":"uint96"}]}],"stateMutability":"view"},{"type":"function","name":"getVotes","inputs":[{"name":"account","type":"address","internalType":"address"},{"name":"timepoint","type":"uint256","internalType":"uint256"}],"outputs":[{"name":"","type":"uint256","internalType":"uint256"}],"stateMutability":"view"},{"type":"function","name":"getVotesWithParams","inputs":[{"name":"account","type":"address","internalType":"address"},{"name":"timepoint","type":"uint256","internalType":"uint256"},{"name":"params","type":"bytes","internalType":"bytes"}],"outputs":[{"name":"","type":"uint256","internalType":"uint256"}],"stateMutability":"view"},{"type":"function","name":"hasVoted","inputs":[{"name":"proposalId","type":"uint256","internalType":"uint256"},{"name":"account","type":"address","internalType":"address"}],"outputs":[{"name":"","type":"bool","internalType":"bool"}],"stateMutability":"view"},{"type":"function","name":"hashProposal","inputs":[{"name":"targets","type":"address[]","internalType":"address[]"},{"name":"values","type":"uint256[]","internalType":"uint256[]"},{"name":"calldatas","type":"bytes[]","internalType":"bytes[]"},{"name":"descriptionHash","type":"bytes32","internalType":"bytes32"}],"outputs":[{"name":"","type":"uint256","internalType":"uint256"}],"stateMutability":"pure"},{"type":"function","name":"name","inputs":[],"outputs":[{"name":"","type":"string","internalType":"string"}],"stateMutability":"view"},{"type":"function","name":"onERC1155BatchReceived","inputs":[{"name":"","type":"address","internalType":"address"},{"name":"","type":"address","internalType":"address"},{"name":"","type":"uint256[]","internalType":"uint256[]"},{"name":"","type":"uint256[]","internalType":"uint256[]"},{"name":"","type":"bytes","internalType":"bytes"}],"outputs":[{"name":"","type":"bytes4","internalType":"bytes4"}],"stateMutability":"nonpayable"},{"type":"function","name":"onERC1155Received","inputs":[{"name":"","type":"address","internalType":"address"},{"name":"","type":"address","internalType":"address"},{"name":"","type":"uint256","internalType":"uint256"},{"name":"","type":"uint256","internalType":"uint256"},{"name":"","type":"bytes","internalType":"bytes"}],"outputs":[{"name":"","type":"bytes4","internalType":"bytes4"}],"stateMutability":"nonpayable"},{"type":"function","name":"onERC721Received","inputs":[{"name":"","type":"address","internalType":"address"},{"name":"","type":"address","internalType":"address"},{"name":"","type":"uint256","internalType":"uint256"},{"name":"","type":"bytes","internalType":"bytes"}],"outputs":[{"name":"","type":"bytes4","internalType":"bytes4"}],"stateMutability":"nonpayable"},{"type":"function","name":"proposalDeadline","inputs":[{"name":"proposalId","type":"uint256","internalType":"uint256"}],"outputs":[{"name":"","type":"uint256","internalType":"uint256"}],"stateMutability":"view"},{"type":"function","name":"proposalEta","inputs":[{"name":"proposalId","type":"uint256","internalType":"uint256"}],"outputs":[{"name":"","type":"uint256","internalType":"uint256"}],"stateMutability":"pure"},{"type":"function","name":"proposalProposer","inputs":[{"name":"proposalId","type":"uint256","internalType":"uint256"}],"outputs":[{"name":"","type":"address","internalType":"address"}],"stateMutability":"view"},{"type":"function","name":"proposalSnapshot","inputs":[{"name":"proposalId","type":"uint256","internalType":"uint256"}],"outputs":[{"name":"","type":"uint256","internalType":"uint256"}],"stateMutability":"view"},{"type":"function","name":"proposalThreshold","inputs":[],"outputs":[{"name":"","type":"uint256","internalType":"uint256"}],"stateMutability":"pure"},{"type":"function","name":"proposals","inputs":[{"name":"proposalId","type":"uint256","internalType":"uint256"}],"outputs":[{"name":"id","type":"uint256","internalType":"uint256"},{"name":"proposer","type":"address","internalType":"address"},{"name":"eta","type":"uint256","internalType":"uint256"},{"name":"startBlock","type":"uint256","internalType":"uint256"},{"name":"endBlock","type":"uint256","internalType":"uint256"},{"name":"forVotes","type":"uint256","internalType":"uint256"},{"name":"againstVotes","type":"uint256","internalType":"uint256"},{"name":"abstainVotes","type":"uint256","internalType":"uint256"},{"name":"canceled","type":"bool","internalType":"bool"},{"name":"executed","type":"bool","internalType":"bool"}],"stateMutability":"view"},{"type":"function","name":"propose","inputs":[{"name":"targets","type":"address[]","internalType":"address[]"},{"name":"values","type":"uint256[]","internalType":"uint256[]"},{"name":"calldatas","type":"bytes[]","internalType":"bytes[]"},{"name":"description","type":"string","internalType":"string"}],"outputs":[{"name":"","type":"uint256","internalType":"uint256"}],"stateMutability":"nonpayable"},{"type":"function","name":"propose","inputs":[{"name":"targets","type":"address[]","internalType":"address[]"},{"name":"values","type":"uint256[]","internalType":"uint256[]"},{"name":"signatures","type":"string[]","internalType":"string[]"},{"name":"calldatas","type":"bytes[]","internalType":"bytes[]"},{"name":"description","type":"string","internalType":"string"}],"outputs":[{"name":"","type":"uint256","internalType":"uint256"}],"stateMutability":"nonpayable"},{"type":"function","name":"queue","inputs":[{"name":"targets","type":"address[]","internalType":"address[]"},{"name":"values","type":"uint256[]","internalType":"uint256[]"},{"name":"calldatas","type":"bytes[]","internalType":"bytes[]"},{"name":"descriptionHash","type":"bytes32","internalType":"bytes32"}],"outputs":[{"name":"proposalId","type":"uint256","internalType":"uint256"}],"stateMutability":"pure"},{"type":"function","name":"queue","inputs":[{"name":"proposalId","type":"uint256","internalType":"uint256"}],"outputs":[],"stateMutability":"nonpayable"},{"type":"function","name":"quorum","inputs":[{"name":"timepoint","type":"uint256","internalType":"uint256"}],"outputs":[{"name":"","type":"uint256","internalType":"uint256"}],"stateMutability":"view"},{"type":"function","name":"quorumDenominator","inputs":[],"outputs":[{"name":"","type":"uint256","internalType":"uint256"}],"stateMutability":"view"},{"type":"function","name":"quorumNumerator","inputs":[{"name":"timepoint","type":"uint256","internalType":"uint256"}],"outputs":[{"name":"","type":"uint256","internalType":"uint256"}],"stateMutability":"view"},{"type":"function","name":"quorumNumerator","inputs":[],"outputs":[{"name":"","type":"uint256","internalType":"uint256"}],"stateMutability":"view"},{"type":"function","name":"quorumVotes","inputs":[],"outputs":[{"name":"","type":"uint256","internalType":"uint256"}],"stateMutability":"view"},{"type":"function","name":"relay","inputs":[{"name":"target","type":"address","internalType":"address"},{"name":"value","type":"uint256","internalType":"uint256"},{"name":"data","type":"bytes","internalType":"bytes"}],"outputs":[],"stateMutability":"payable"},{"type":"function","name":"state","inputs":[{"name":"proposalId","type":"uint256","internalType":"uint256"}],"outputs":[{"name":"","type":"uint8","internalType":"enum IGovernor.ProposalState"}],"stateMutability":"view"},{"type":"function","name":"supportsInterface","inputs":[{"name":"interfaceId","type":"bytes4","internalType":"bytes4"}],"outputs":[{"name":"","type":"bool","internalType":"bool"}],"stateMutability":"view"},{"type":"function","name":"timelock","inputs":[],"outputs":[{"name":"","type":"address","internalType":"address"}],"stateMutability":"pure"},{"type":"function","name":"token","inputs":[],"outputs":[{"name":"","type":"address","internalType":"contract IERC5805"}],"stateMutability":"view"},{"type":"function","name":"updateQuorumNumerator","inputs":[{"name":"newQuorumNumerator","type":"uint256","internalType":"uint256"}],"outputs":[],"stateMutability":"nonpayable"},{"type":"function","name":"version","inputs":[],"outputs":[{"name":"","type":"string","internalType":"string"}],"stateMutability":"view"},{"type":"function","name":"votingDelay","inputs":[],"outputs":[{"name":"","type":"uint256","internalType":"uint256"}],"stateMutability":"pure"},{"type":"function","name":"votingPeriod","inputs":[],"outputs":[{"name":"","type":"uint256","internalType":"uint256"}],"stateMutability":"pure"},{"type":"event","name":"EIP712DomainChanged","inputs":[],"anonymous":false},{"type":"event","name":"ProposalCanceled","inputs":[{"name":"proposalId","type":"uint256","indexed":false,"internalType":"uint256"}],"anonymous":false},{"type":"event","name":"ProposalCreated","inputs":[{"name":"proposalId","type":"uint256","indexed":false,"internalType":"uint256"},{"name":"proposer","type":"address","indexed":false,"internalType":"address"},{"name":"targets","type":"address[]","indexed":false,"internalType":"address[]"},{"name":"values","type":"uint256[]","indexed":false,"internalType":"uint256[]"},{"name":"signatures","type":"string[]","indexed":false,"internalType":"string[]"},{"name":"calldatas","type":"bytes[]","indexed":false,"internalType":"bytes[]"},{"name":"voteStart","type":"uint256","indexed":false,"internalType":"uint256"},{"name":"voteEnd","type":"uint256","indexed":false,"internalType":"uint256"},{"name":"description","type":"string","indexed":false,"internalType":"string"}],"anonymous":false},{"type":"event","name":"ProposalExecuted","inputs":[{"name":"proposalId","type":"uint256","indexed":false,"internalType":"uint256"}],"anonymous":false},{"type":"event","name":"ProposalQueued","inputs":[{"name":"proposalId","type":"uint256","indexed":false,"internalType":"uint256"},{"name":"eta","type":"uint256","indexed":false,"internalType":"uint256"}],"anonymous":false},{"type":"event","name":"QuorumNumeratorUpdated","inputs":[{"name":"oldQuorumNumerator","type":"uint256","indexed":false,"internalType":"uint256"},{"name":"newQuorumNumerator","type":"uint256","indexed":false,"internalType":"uint256"}],"anonymous":false},{"type":"event","name":"VoteCast","inputs":[{"name":"voter","type":"address","indexed":true,"internalType":"address"},{"name":"proposalId","type":"uint256","indexed":false,"internalType":"uint256"},{"name":"support","type":"uint8","indexed":false,"internalType":"uint8"},{"name":"weight","type":"uint256","indexed":false,"internalType":"uint256"},{"name":"reason","type":"string","indexed":false,"internalType":"string"}],"anonymous":false},{"type":"event","name":"VoteCastWithParams","inputs":[{"name":"voter","type":"address","indexed":true,"internalType":"address"},{"name":"proposalId","type":"uint256","indexed":false,"internalType":"uint256"},{"name":"support","type":"uint8","indexed":false,"internalType":"uint8"},{"name":"weight","type":"uint256","indexed":false,"internalType":"uint256"},{"name":"reason","type":"string","indexed":false,"internalType":"string"},{"name":"params","type":"bytes","indexed":false,"internalType":"bytes"}],"anonymous":false},{"type":"error","name":"Empty","inputs":[]},{"type":"error","name":"InvalidShortString","inputs":[]},{"type":"error","name":"StringTooLong","inputs":[{"name":"str","type":"string","internalType":"string"}]}],"bytecode":{"object":"0x610180604052348015610010575f80fd5b5060405161538038038061538083398101604081905261002f91610708565b5f816040518060400160405280600b81526020016a2220a7a3b7bb32b93737b960a91b8152508061006461013d60201b60201c565b61006e825f610158565b6101205261007d816001610158565b61014052815160208084019190912060e052815190820120610100524660a05261010960e05161010051604080517f8b73c3c69bb8fe3d512ecc4cf759cc79239f7b179b0ffacaa9a75d522b39400f60208201529081019290925260608201524660808201523060a08201525f9060c00160405160208183030381529060405280519060200120905090565b60805250503060c052600261011e82826107c6565b50506001600160a01b0316610160526101368161018a565b505061091c565b6040805180820190915260018152603160f81b602082015290565b5f6020835110156101735761016c836102fb565b9050610184565b8161017e84826107c6565b5060ff90505b92915050565b60648111156102125760405162461bcd60e51b815260206004820152604360248201527f476f7665726e6f72566f74657351756f72756d4672616374696f6e3a2071756f60448201527f72756d4e756d657261746f72206f7665722071756f72756d44656e6f6d696e616064820152623a37b960e91b608482015260a4015b60405180910390fd5b5f61021b610338565b9050801580159061022c5750600854155b1561028f57604080518082019091525f81526008906020810161024e84610363565b6001600160e01b0390811690915282546001810184555f938452602093849020835194909301519091166401000000000263ffffffff909316929092179101555b6102bc6102aa61029d6103cf565b65ffffffffffff1661043f565b6102b384610363565b600891906104a3565b505060408051828152602081018490527f0553476bf02ef2726e8ce5ced78d63e26e602e4a2257b1f559418e24b4633997910160405180910390a15050565b5f80829050601f81511115610325578260405163305a27a960e01b81526004016102099190610880565b8051610330826108b5565b179392505050565b6008545f901561035a5761034c60086104bd565b6001600160e01b0316905090565b6007545b905090565b5f6001600160e01b038211156103cb5760405162461bcd60e51b815260206004820152602760248201527f53616665436173743a2076616c756520646f65736e27742066697420696e20326044820152663234206269747360c81b6064820152608401610209565b5090565b5f610160516001600160a01b03166391ddadf46040518163ffffffff1660e01b8152600401602060405180830381865afa92505050801561042d575060408051601f3d908101601f1916820190925261042a918101906108d8565b60015b61043a5761035e43610503565b919050565b5f63ffffffff8211156103cb5760405162461bcd60e51b815260206004820152602660248201527f53616665436173743a2076616c756520646f65736e27742066697420696e203360448201526532206269747360d01b6064820152608401610209565b5f806104b0858585610569565b915091505b935093915050565b80545f9080156104fa576104e3836104d66001846108fd565b5f91825260209091200190565b5464010000000090046001600160e01b03166104fc565b5f5b9392505050565b5f65ffffffffffff8211156103cb5760405162461bcd60e51b815260206004820152602660248201527f53616665436173743a2076616c756520646f65736e27742066697420696e203460448201526538206269747360d01b6064820152608401610209565b82545f90819080156106af575f610585876104d66001856108fd565b60408051808201909152905463ffffffff8082168084526401000000009092046001600160e01b0316602084015291925090871610156106075760405162461bcd60e51b815260206004820152601b60248201527f436865636b706f696e743a2064656372656173696e67206b65797300000000006044820152606401610209565b805163ffffffff8088169116036106505784610628886104d66001866108fd565b80546001600160e01b03929092166401000000000263ffffffff90921691909117905561069f565b6040805180820190915263ffffffff80881682526001600160e01b0380881660208085019182528b54600181018d555f8d81529190912094519151909216640100000000029216919091179101555b6020015192508391506104b59050565b50506040805180820190915263ffffffff80851682526001600160e01b0380851660208085019182528854600181018a555f8a8152918220955192519093166401000000000291909316179201919091559050816104b5565b5f60208284031215610718575f80fd5b81516001600160a01b03811681146104fc575f80fd5b634e487b7160e01b5f52604160045260245ffd5b600181811c9082168061075657607f821691505b60208210810361077457634e487b7160e01b5f52602260045260245ffd5b50919050565b601f8211156107c157805f5260205f20601f840160051c8101602085101561079f5750805b601f840160051c820191505b818110156107be575f81556001016107ab565b50505b505050565b81516001600160401b038111156107df576107df61072e565b6107f3816107ed8454610742565b8461077a565b6020601f821160018114610825575f831561080e5750848201515b5f19600385901b1c1916600184901b1784556107be565b5f84815260208120601f198516915b828110156108545787850151825560209485019460019092019101610834565b508482101561087157868401515f19600387901b60f8161c191681555b50505050600190811b01905550565b602081525f82518060208401528060208501604085015e5f604082850101526040601f19601f83011684010191505092915050565b80516020808301519190811015610774575f1960209190910360031b1b16919050565b5f602082840312156108e8575f80fd5b815165ffffffffffff811681146104fc575f80fd5b8181038181111561018457634e487b7160e01b5f52601160045260245ffd5b60805160a05160c05160e051610100516101205161014051610160516149ed6109935f395f8181610a67015281816111d00152818161148f0152818161175e015261240401525f61143d01525f61141301525f61277901525f61275101525f6126ac01525f6126d601525f61270001526149ed5ff3fe6080604052600436106102a8575f3560e01c806360c4247f1161016f578063c28bc2fa116100d8578063deaaa7cc11610092578063f23a6e611161006d578063f23a6e6114610a0c578063f8ce560a14610a37578063fc0c546a14610a56578063fe0d94c114610a89575f80fd5b8063deaaa7cc146108f3578063e23a9a5214610926578063eb9019d4146109ed575f80fd5b8063c28bc2fa1461082c578063c59057e41461083f578063d33219b41461085e578063da95691a14610870578063dd4e2ba51461088f578063ddf0b009146108d4575f80fd5b80639a802a6d116101295780639a802a6d1461077a578063a7713a7014610799578063ab58fb8e146107ad578063b58131b01461055a578063bc197c81146107ca578063c01f9e37146107f5575f80fd5b806360c4247f146106b85780637b3c71d3146106d75780637d5e81e2146106f657806384b0196e1461071557806391ddadf41461073c57806397c3d33414610767575f80fd5b80632fe3e2611161021157806343859632116101cb57806343859632146105d6578063452115d61461061e5780634bf5d7e91461063d57806354fd4d5014610651578063567813881461067a5780635f398a1414610699575f80fd5b80632fe3e261146104f8578063328dd9821461052b5780633932abb11461055a5780633bccf4fd1461056c5780633e4f49e61461058b57806340e58ee5146105b7575f80fd5b8063143489d011610262578063143489d0146103e4578063150b7a0214610437578063160cbed71461047a57806324bc1a641461049d5780632656227d146104b15780632d63f693146104c4575f80fd5b8063013cf08b146102be57806301ffc9a71461033857806302a251a314610367578063034201811461038557806306f3f9e6146103a457806306fdde03146103c3575f80fd5b366102ba57005b60405180910390fd5b005b5f80fd5b3480156102c9575f80fd5b506102dd6102d8366004613a50565b610aa1565b604080519a8b526001600160a01b0390991660208b0152978901969096526060880194909452608087019290925260a086015260c085015260e084015215156101008301521515610120820152610140015b60405180910390f35b348015610343575f80fd5b50610357610352366004613a67565b610b3e565b604051901515815260200161032f565b348015610372575f80fd5b506113885b60405190815260200161032f565b348015610390575f80fd5b5061037761039f366004613ba0565b610b4e565b3480156103af575f80fd5b506102b86103be366004613a50565b610c44565b3480156103ce575f80fd5b506103d7610cb1565b60405161032f9190613c71565b3480156103ef575f80fd5b5061041f6103fe366004613a50565b5f90815260036020526040902054600160401b90046001600160a01b031690565b6040516001600160a01b03909116815260200161032f565b348015610442575f80fd5b50610461610451366004613c99565b630a85bd0160e11b949350505050565b6040516001600160e01b0319909116815260200161032f565b348015610485575f80fd5b50610377610494366004613e59565b5f949350505050565b3480156104a8575f80fd5b50610377610d41565b6103776104bf366004613e59565b610d66565b3480156104cf575f80fd5b506103776104de366004613a50565b5f908152600360205260409020546001600160401b031690565b348015610503575f80fd5b506103777fb3b3f3b703cd84ce352197dcff232b1b5d3cfb2025ce47cf04742d0651f1af8881565b348015610536575f80fd5b5061054a610545366004613a50565b610e8f565b60405161032f9493929190613fb9565b348015610565575f80fd5b505f610377565b348015610577575f80fd5b50610377610586366004614005565b61110f565b348015610596575f80fd5b506105aa6105a5366004613a50565b611183565b60405161032f9190614063565b3480156105c2575f80fd5b506102b86105d1366004613a50565b61118d565b3480156105e1575f80fd5b506103576105f0366004614089565b5f8281526006602090815260408083206001600160a01b038516845260080190915290205460ff1692915050565b348015610629575f80fd5b50610377610638366004613e59565b6111b6565b348015610648575f80fd5b506103d76111cc565b34801561065c575f80fd5b506040805180820190915260018152603160f81b60208201526103d7565b348015610685575f80fd5b506103776106943660046140b3565b61128c565b3480156106a4575f80fd5b506103776106b33660046140d4565b6112b3565b3480156106c3575f80fd5b506103776106d2366004613a50565b6112fb565b3480156106e2575f80fd5b506103776106f1366004614155565b6113a9565b348015610701575f80fd5b506103776107103660046141aa565b6113f9565b348015610720575f80fd5b50610729611406565b60405161032f9796959493929190614247565b348015610747575f80fd5b5061075061148c565b60405165ffffffffffff909116815260200161032f565b348015610772575f80fd5b506064610377565b348015610785575f80fd5b506103776107943660046142a8565b611514565b3480156107a4575f80fd5b5061037761152a565b3480156107b8575f80fd5b506103776107c7366004613a50565b90565b3480156107d5575f80fd5b506104616107e43660046142fa565b63bc197c8160e01b95945050505050565b348015610800575f80fd5b5061037761080f366004613a50565b5f908152600360205260409020600101546001600160401b031690565b6102b861083a36600461438d565b611553565b34801561084a575f80fd5b50610377610859366004613e59565b611641565b348015610869575f80fd5b505f61041f565b34801561087b575f80fd5b5061037761088a3660046143ca565b61167a565b34801561089a575f80fd5b5060408051808201909152601a81527f737570706f72743d627261766f2671756f72756d3d627261766f00000000000060208201526103d7565b3480156108df575f80fd5b506102b86108ee366004613a50565b611700565b3480156108fe575f80fd5b506103777f150214d74d59b7d1e90c73fc22ef3d991dd0a76b046543d4d80ab92d2a50328f81565b348015610931575f80fd5b506109bd610940366004614089565b604080516060810182525f8082526020820181905291810191909152505f9182526006602090815260408084206001600160a01b0393909316845260089092018152918190208151606081018352905460ff8082161515835261010082041693820193909352620100009092046001600160601b03169082015290565b6040805182511515815260208084015160ff1690820152918101516001600160601b03169082015260600161032f565b3480156109f8575f80fd5b50610377610a07366004614474565b61171d565b348015610a17575f80fd5b50610461610a2636600461449c565b63f23a6e6160e01b95945050505050565b348015610a42575f80fd5b50610377610a51366004613a50565b61173c565b348015610a61575f80fd5b5061041f7f000000000000000000000000000000000000000000000000000000000000000081565b6102b8610a97366004613a50565b6117e3565b905090565b5f81815260036020908152604080832080546001909101546006938490529184208054600582015494820154600783015488976001600160a01b039093169688966001600160401b03968716961694909390819081610aff8a611183565b90506002816007811115610b1557610b1561404f565b1493506007816007811115610b2c57610b2c61404f565b14925050509193959799509193959799565b5f610b4882611804565b92915050565b5f80610bf1610be97fb3b3f3b703cd84ce352197dcff232b1b5d3cfb2025ce47cf04742d0651f1af888c8c8c8c604051610b899291906144ef565b60405180910390208b80519060200120604051602001610bce959493929190948552602085019390935260ff9190911660408401526060830152608082015260a00190565b6040516020818303038152906040528051906020012061189f565b8686866118cb565b9050610c368a828b8b8b8080601f0160208091040260200160405190810160405280939291908181526020018383808284375f920191909152508d92506118e7915050565b9a9950505050505050505050565b333014610c8e5760405162461bcd60e51b8152602060048201526018602482015277476f7665726e6f723a206f6e6c79476f7665726e616e636560401b60448201526064016102af565b610ca5565b80610c9e6004611a39565b03610c9357505b610cae81611ab6565b50565b606060028054610cc0906144fe565b80601f0160208091040260200160405190810160405280929190818152602001828054610cec906144fe565b8015610d375780601f10610d0e57610100808354040283529160200191610d37565b820191905f5260205f20905b815481529060010190602001808311610d1a57829003601f168201915b5050505050905090565b5f610a9c6001610d4f61148c565b610d59919061454a565b65ffffffffffff1661173c565b5f80610d7486868686611641565b90505f610d8082611183565b90506004816007811115610d9657610d9661404f565b1480610db357506005816007811115610db157610db161404f565b145b610e095760405162461bcd60e51b815260206004820152602160248201527f476f7665726e6f723a2070726f706f73616c206e6f74207375636365737366756044820152601b60fa1b60648201526084016102af565b5f8281526003602052604090819020600201805460ff19166001179055517f712ae1383f79ac853f8d882153778e0260ef8f03b504e2866e0593e04d2b291f90610e569084815260200190565b60405180910390a1610e6b8288888888611c21565b610e788288888888611ca4565b610e858288888888611c21565b5095945050505050565b6060806060805f60065f8781526020019081526020015f2090508060010181600201826003018360040183805480602002602001604051908101604052809291908181526020018280548015610f0c57602002820191905f5260205f20905b81546001600160a01b03168152600190910190602001808311610eee575b5050505050935082805480602002602001604051908101604052809291908181526020018280548015610f5c57602002820191905f5260205f20905b815481526020019060010190808311610f48575b5050505050925081805480602002602001604051908101604052809291908181526020015f905b8282101561102b578382905f5260205f20018054610fa0906144fe565b80601f0160208091040260200160405190810160405280929190818152602001828054610fcc906144fe565b80156110175780601f10610fee57610100808354040283529160200191611017565b820191905f5260205f20905b815481529060010190602001808311610ffa57829003601f168201915b505050505081526020019060010190610f83565b50505050915080805480602002602001604051908101604052809291908181526020015f905b828210156110f9578382905f5260205f2001805461106e906144fe565b80601f016020809104026020016040519081016040528092919081815260200182805461109a906144fe565b80156110e55780601f106110bc576101008083540402835291602001916110e5565b820191905f5260205f20905b8154815290600101906020018083116110c857829003601f168201915b505050505081526020019060010190611051565b5050505090509450945094509450509193509193565b604080517f150214d74d59b7d1e90c73fc22ef3d991dd0a76b046543d4d80ab92d2a50328f602082015290810186905260ff851660608201525f90819061115c90610be990608001610bce565b905061117887828860405180602001604052805f815250611cb1565b979650505050505050565b5f610b4882611cd2565b5f805f8061119a85611e11565b93509350935093506111ae848484846111b6565b505050505050565b5f6111c385858585612090565b95945050505050565b60607f00000000000000000000000000000000000000000000000000000000000000006001600160a01b0316634bf5d7e96040518163ffffffff1660e01b81526004015f60405180830381865afa92505050801561124b57506040513d5f823e601f3d908101601f191682016040526112489190810190614568565b60015b611287575060408051808201909152601d81527f6d6f64653d626c6f636b6e756d6265722666726f6d3d64656661756c74000000602082015290565b919050565b5f803390506112ab84828560405180602001604052805f815250611cb1565b949350505050565b5f8033905061117887828888888080601f0160208091040260200160405190810160405280939291908181526020018383808284375f920191909152508a92506118e7915050565b6008545f90808203611311575050600754919050565b5f600861131f6001846145dc565b8154811061132f5761132f6145ef565b5f9182526020918290206040805180820190915291015463ffffffff8116808352600160201b9091046001600160e01b0316928201929092529150841061138457602001516001600160e01b03169392505050565b61139861139085612151565b6008906121b9565b6001600160e01b0316949350505050565b5f803390506113ef86828787878080601f0160208091040260200160405190810160405280939291908181526020018383808284375f92019190915250611cb192505050565b9695505050505050565b5f6111c385858585612266565b5f606080828080836114387f0000000000000000000000000000000000000000000000000000000000000000836122cd565b6114637f000000000000000000000000000000000000000000000000000000000000000060016122cd565b604080515f80825260208201909252600f60f81b9b939a50919850469750309650945092509050565b5f7f00000000000000000000000000000000000000000000000000000000000000006001600160a01b03166391ddadf46040518163ffffffff1660e01b8152600401602060405180830381865afa925050508015611507575060408051601f3d908101601f1916820190925261150491810190614603565b60015b61128757610a9c43612376565b5f6115208484846123dc565b90505b9392505050565b6008545f901561154c5761153e600861246f565b6001600160e01b0316905090565b5060075490565b33301461159d5760405162461bcd60e51b8152602060048201526018602482015277476f7665726e6f723a206f6e6c79476f7665726e616e636560401b60448201526064016102af565b6115b4565b806115ad6004611a39565b036115a257505b5f80856001600160a01b03168585856040516115d19291906144ef565b5f6040518083038185875af1925050503d805f811461160b576040519150601f19603f3d011682016040523d82523d5f602084013e611610565b606091505b50915091506116388282604051806060016040528060288152602001614969602891396124a6565b50505050505050565b5f848484846040516020016116599493929190614628565b60408051601f19818403018152919052805160209091012095945050505050565b5f82518451146116dd5760405162461bcd60e51b815260206004820152602860248201527f476f7665726e6f72427261766f3a20696e76616c6964207369676e61747572656044820152670e640d8cadccee8d60c31b60648201526084016102af565b6116eb3387878787876124bf565b6113ef86866116fa878761257a565b856113f9565b5f805f8061170d85611e11565b929650909450925090505f6111ae565b5f611523838361173760408051602081019091525f815290565b6123dc565b5f6064611748836112fb565b604051632394e7a360e21b8152600481018590527f00000000000000000000000000000000000000000000000000000000000000006001600160a01b031690638e539e8c90602401602060405180830381865afa1580156117ab573d5f803e3d5ffd5b505050506040513d601f19601f820116820180604052508101906117cf9190614672565b6117d99190614689565b610b4891906146b4565b5f805f806117f085611e11565b93509350935093506111ae84848484610d66565b5f63288ace0360e11b6318df743f60e31b63bf26d89760e01b6379dd796f60e01b6001600160e01b0319861682148061184957506001600160e01b0319868116908216145b8061186057506001600160e01b0319868116908516145b8061187b57506001600160e01b03198616630271189760e51b145b806113ef57506301ffc9a760e01b6001600160e01b03198716149695505050505050565b5f610b486118ab6126a0565b8360405161190160f01b8152600281019290925260228201526042902090565b5f805f6118da878787876127c9565b91509150610e8581612886565b5f85815260036020526040812060016118ff88611183565b60078111156119105761191061404f565b146119695760405162461bcd60e51b815260206004820152602360248201527f476f7665726e6f723a20766f7465206e6f742063757272656e746c792061637460448201526269766560e81b60648201526084016102af565b80545f906119829088906001600160401b0316866123dc565b905061199188888884886129cf565b83515f036119e557866001600160a01b03167fb8e138887d0aa13bab447e82de9d5c1777041ecd21ca36ba824ff1e6c07ddda4898884896040516119d894939291906146d3565b60405180910390a2611178565b866001600160a01b03167fe2babfbac5889a709b63bb7f598b324e08bc5a4fb9ec647fb3cbc9ec07eb87128988848989604051611a269594939291906146fa565b60405180910390a2979650505050505050565b5f611a538254600f81810b600160801b909204900b131590565b15611a7157604051631ed9509560e11b815260040160405180910390fd5b508054600f0b5f818152600180840160205260408220805492905583546fffffffffffffffffffffffffffffffff191692016001600160801b03169190911790915590565b6064811115611b395760405162461bcd60e51b815260206004820152604360248201527f476f7665726e6f72566f74657351756f72756d4672616374696f6e3a2071756f60448201527f72756d4e756d657261746f72206f7665722071756f72756d44656e6f6d696e616064820152623a37b960e91b608482015260a4016102af565b5f611b4261152a565b90508015801590611b535750600854155b15611bb557604080518082019091525f815260089060208101611b7584612b67565b6001600160e01b0390811690915282546001810184555f93845260209384902083519490930151909116600160201b0263ffffffff909316929092179101555b611be2611bd0611bc361148c565b65ffffffffffff16612151565b611bd984612b67565b60089190612bcf565b505060408051828152602081018490527f0553476bf02ef2726e8ce5ced78d63e26e602e4a2257b1f559418e24b4633997910160405180910390a15050565b611c9d565b84518110156111ae57306001600160a01b0316858281518110611c4b57611c4b6145ef565b60200260200101516001600160a01b031603611c9557611c95838281518110611c7657611c766145ef565b6020026020010151805190602001206004612be990919063ffffffff16565b600101611c26565b5050505050565b611c9d8585858585612c24565b5f6111c385858585611ccd60408051602081019091525f815290565b6118e7565b5f818152600360205260408120600281015460ff1615611cf55750600792915050565b6002810154610100900460ff1615611d105750600292915050565b5f838152600360205260408120546001600160401b031690819003611d775760405162461bcd60e51b815260206004820152601d60248201527f476f7665726e6f723a20756e6b6e6f776e2070726f706f73616c20696400000060448201526064016102af565b5f611d8061148c565b65ffffffffffff169050808210611d9b57505f949350505050565b5f858152600360205260409020600101546001600160401b0316818110611dc85750600195945050505050565b611dd186612d0e565b8015611df457505f86815260066020819052604090912090810154600590910154115b15611e055750600495945050505050565b50600395945050505050565b60608060605f8060065f8781526020019081526020015f2090508060010181600201611fd583600301805480602002602001604051908101604052809291908181526020015f905b82821015611f01578382905f5260205f20018054611e76906144fe565b80601f0160208091040260200160405190810160405280929190818152602001828054611ea2906144fe565b8015611eed5780601f10611ec457610100808354040283529160200191611eed565b820191905f5260205f20905b815481529060010190602001808311611ed057829003601f168201915b505050505081526020019060010190611e59565b5050506004860180546040805160208084028201810190925282815293505f9084015b82821015611fcc578382905f5260205f20018054611f41906144fe565b80601f0160208091040260200160405190810160405280929190818152602001828054611f6d906144fe565b8015611fb85780601f10611f8f57610100808354040283529160200191611fb8565b820191905f5260205f20905b815481529060010190602001808311611f9b57829003601f168201915b505050505081526020019060010190611f24565b5050505061257a565b600984015483546040805160208084028201810190925282815291869183018282801561202957602002820191905f5260205f20905b81546001600160a01b0316815260019091019060200180831161200b575b505050505093508280548060200260200160405190810160405280929190818152602001828054801561207957602002820191905f5260205f20905b815481526020019060010190808311612065575b505050505092509450945094509450509193509193565b5f8061209e86868686611641565b5f818152600660205260409020549091506001600160a01b0316338114806120e957505f6120e78260016120d061148c565b6120da919061454a565b65ffffffffffff1661171d565b105b6121455760405162461bcd60e51b815260206004820152602760248201527f476f7665726e6f72427261766f3a2070726f706f7365722061626f76652074686044820152661c995cda1bdb1960ca1b60648201526084016102af565b61117887878787612d4a565b5f63ffffffff8211156121b55760405162461bcd60e51b815260206004820152602660248201527f53616665436173743a2076616c756520646f65736e27742066697420696e203360448201526532206269747360d01b60648201526084016102af565b5090565b81545f9081816005811115612213575f6121d284612d57565b6121dc90856145dc565b5f8881526020902090915081015463ffffffff908116908716101561220357809150612211565b61220e81600161473f565b92505b505b5f61222087878585612e3b565b9050801561225a57612244876122376001846145dc565b5f91825260209091200190565b54600160201b90046001600160e01b0316611178565b5f979650505050505050565b5f6122c133868686516001600160401b0381111561228657612286613ae2565b6040519080825280602002602001820160405280156122b957816020015b60608152602001906001900390816122a45790505b5087876124bf565b6111c385858585612e8e565b606060ff83146122e7576122e083613249565b9050610b48565b8180546122f3906144fe565b80601f016020809104026020016040519081016040528092919081815260200182805461231f906144fe565b801561236a5780601f106123415761010080835404028352916020019161236a565b820191905f5260205f20905b81548152906001019060200180831161234d57829003601f168201915b50505050509050610b48565b5f65ffffffffffff8211156121b55760405162461bcd60e51b815260206004820152602660248201527f53616665436173743a2076616c756520646f65736e27742066697420696e203460448201526538206269747360d01b60648201526084016102af565b604051630748d63560e31b81526001600160a01b038481166004830152602482018490525f917f000000000000000000000000000000000000000000000000000000000000000090911690633a46b1a890604401602060405180830381865afa15801561244b573d5f803e3d5ffd5b505050506040513d601f19601f820116820180604052508101906115209190614672565b80545f90801561249e57612488836122376001846145dc565b54600160201b90046001600160e01b0316611523565b5f9392505050565b606083156124b5575081611523565b6115238383613286565b805160208201205f6124dc87876124d6888861257a565b85611641565b5f81815260066020526040902060098101549192509061256f5780546001600160a01b0319166001600160a01b038a16178155875161252490600183019060208b0190613895565b50865161253a90600283019060208a01906138f4565b508551612550906003830190602089019061392d565b508451612566906004830190602088019061397d565b50600981018390555b505050505050505050565b60605f82516001600160401b0381111561259657612596613ae2565b6040519080825280602002602001820160405280156125c957816020015b60608152602001906001900390816125b45790505b5090505f5b8151811015612698578481815181106125e9576125e96145ef565b6020026020010151515f146126585784818151811061260a5761260a6145ef565b60200260200101518051906020012084828151811061262b5761262b6145ef565b6020026020010151604051602001612644929190614769565b604051602081830303815290604052612673565b83818151811061266a5761266a6145ef565b60200260200101515b828281518110612685576126856145ef565b60209081029190910101526001016125ce565b509392505050565b5f306001600160a01b037f0000000000000000000000000000000000000000000000000000000000000000161480156126f857507f000000000000000000000000000000000000000000000000000000000000000046145b1561272257507f000000000000000000000000000000000000000000000000000000000000000090565b610a9c604080517f8b73c3c69bb8fe3d512ecc4cf759cc79239f7b179b0ffacaa9a75d522b39400f60208201527f0000000000000000000000000000000000000000000000000000000000000000918101919091527f000000000000000000000000000000000000000000000000000000000000000060608201524660808201523060a08201525f9060c00160405160208183030381529060405280519060200120905090565b5f807f7fffffffffffffffffffffffffffffff5d576e7357a4501ddfe92f46681b20a08311156127fe57505f9050600361287d565b604080515f8082526020820180845289905260ff881692820192909252606081018690526080810185905260019060a0016020604051602081039080840390855afa15801561284f573d5f803e3d5ffd5b5050604051601f1901519150506001600160a01b038116612877575f6001925092505061287d565b91505f90505b94509492505050565b5f8160048111156128995761289961404f565b036128a15750565b60018160048111156128b5576128b561404f565b036129025760405162461bcd60e51b815260206004820152601860248201527f45434453413a20696e76616c6964207369676e6174757265000000000000000060448201526064016102af565b60028160048111156129165761291661404f565b036129635760405162461bcd60e51b815260206004820152601f60248201527f45434453413a20696e76616c6964207369676e6174757265206c656e6774680060448201526064016102af565b60038160048111156129775761297761404f565b03610cae5760405162461bcd60e51b815260206004820152602260248201527f45434453413a20696e76616c6964207369676e6174757265202773272076616c604482015261756560f01b60648201526084016102af565b5f8581526006602090815260408083206001600160a01b038816845260088101909252909120805460ff1615612a5d5760405162461bcd60e51b815260206004820152602d60248201527f476f7665726e6f72436f6d7061746962696c697479427261766f3a20766f746560448201526c08185b1c9958591e4818d85cdd609a1b60648201526084016102af565b805460ff86166101000261ffff19909116176001178155612a7d846132b0565b81546001600160601b039190911662010000026dffffffffffffffffffffffff00001990911617815560ff8516612acc5783826006015f828254612ac1919061473f565b909155506116389050565b5f1960ff861601612aea5783826005015f828254612ac1919061473f565b60011960ff861601612b095783826007015f828254612ac1919061473f565b60405162461bcd60e51b815260206004820152602d60248201527f476f7665726e6f72436f6d7061746962696c697479427261766f3a20696e766160448201526c6c696420766f7465207479706560981b60648201526084016102af565b5f6001600160e01b038211156121b55760405162461bcd60e51b815260206004820152602760248201527f53616665436173743a2076616c756520646f65736e27742066697420696e20326044820152663234206269747360c81b60648201526084016102af565b5f80612bdc858585613317565b915091505b935093915050565b8154600160801b90819004600f0b5f818152600180860160205260409091209390935583546001600160801b03908116939091011602179055565b5f6040518060600160405280602781526020016149916027913990505f5b8551811015611638575f80878381518110612c5f57612c5f6145ef565b60200260200101516001600160a01b0316878481518110612c8257612c826145ef565b6020026020010151878581518110612c9c57612c9c6145ef565b6020026020010151604051612cb19190614784565b5f6040518083038185875af1925050503d805f8114612ceb576040519150601f19603f3d011682016040523d82523d5f602084013e612cf0565b606091505b5091509150612d008282866124a6565b505050806001019050612c42565b5f8181526006602052604081206005810154612d41610a51855f908152600360205260409020546001600160401b031690565b11159392505050565b5f6111c3858585856134b2565b5f815f03612d6657505f919050565b5f6001612d72846135cd565b901c6001901b90506001818481612d8b57612d8b6146a0565b048201901c90506001818481612da357612da36146a0565b048201901c90506001818481612dbb57612dbb6146a0565b048201901c90506001818481612dd357612dd36146a0565b048201901c90506001818481612deb57612deb6146a0565b048201901c90506001818481612e0357612e036146a0565b048201901c90506001818481612e1b57612e1b6146a0565b048201901c905061152381828581612e3557612e356146a0565b04613660565b5f5b81831015612698575f612e508484613675565b5f8781526020902090915063ffffffff86169082015463ffffffff161115612e7a57809250612e88565b612e8581600161473f565b93505b50612e3d565b5f33612e9a818461368f565b612ee65760405162461bcd60e51b815260206004820152601d60248201527f476f7665726e6f723a2070726f706f736572207265737472696374656400000060448201526064016102af565b5f612eef61148c565b65ffffffffffff1690505f612f0983610a076001856145dc565b1015612f715760405162461bcd60e51b815260206004820152603160248201527f476f7665726e6f723a2070726f706f73657220766f7465732062656c6f7720706044820152701c9bdc1bdcd85b081d1a1c995cda1bdb19607a1b60648201526084016102af565b5f612f858888888880519060200120611641565b90508651885114612fa85760405162461bcd60e51b81526004016102af9061478f565b8551885114612fc95760405162461bcd60e51b81526004016102af9061478f565b5f8851116130195760405162461bcd60e51b815260206004820152601860248201527f476f7665726e6f723a20656d7074792070726f706f73616c000000000000000060448201526064016102af565b5f818152600360205260409020546001600160401b0316156130875760405162461bcd60e51b815260206004820152602160248201527f476f7665726e6f723a2070726f706f73616c20616c72656164792065786973746044820152607360f81b60648201526084016102af565b5f613092818461473f565b90505f6130a16113888361473f565b90506040518060e001604052806130b784613777565b6001600160401b031681526001600160a01b03871660208201525f60408201526060016130e383613777565b6001600160401b0390811682525f60208084018290526040808501839052606094850183905288835260038252918290208551815492870151878501519186166001600160e01b031990941693909317600160401b6001600160a01b039094168402176001600160e01b0316600160e01b60e09290921c91909102178155938501516080860151908416921c0217600183015560a08301516002909201805460c09094015161ffff1990941692151561ff00191692909217610100931515939093029290921790558a517f7d84a6263ae0d98d3329bd7b46bb4e8d6f98cd35a7adb45c274c8b7fd5ebd5e091859188918e918e918111156131e6576131e6613ae2565b60405190808252806020026020018201604052801561321957816020015b60608152602001906001900390816132045790505b508d88888f604051613233999897969594939291906147d0565b60405180910390a1509098975050505050505050565b60605f613255836137de565b6040805160208082528183019092529192505f91906020820181803683375050509182525060208101929092525090565b8151156132965781518083602001fd5b8060405162461bcd60e51b81526004016102af9190613c71565b5f6001600160601b038211156121b55760405162461bcd60e51b815260206004820152602660248201527f53616665436173743a2076616c756520646f65736e27742066697420696e203960448201526536206269747360d01b60648201526084016102af565b82545f908190801561345a575f613333876122376001856145dc565b60408051808201909152905463ffffffff808216808452600160201b9092046001600160e01b0316602084015291925090871610156133b45760405162461bcd60e51b815260206004820152601b60248201527f436865636b706f696e743a2064656372656173696e67206b657973000000000060448201526064016102af565b805163ffffffff8088169116036133fc57846133d5886122376001866145dc565b80546001600160e01b0392909216600160201b0263ffffffff90921691909117905561344a565b6040805180820190915263ffffffff80881682526001600160e01b0380881660208085019182528b54600181018d555f8d81529190912094519151909216600160201b029216919091179101555b602001519250839150612be19050565b50506040805180820190915263ffffffff80851682526001600160e01b0380851660208085019182528854600181018a555f8a815291822095519251909316600160201b029190931617920191909155905081612be1565b5f806134c086868686611641565b90505f6134cc82611183565b905060028160078111156134e2576134e261404f565b14158015613502575060068160078111156134ff576134ff61404f565b14155b80156135205750600781600781111561351d5761351d61404f565b14155b61356c5760405162461bcd60e51b815260206004820152601d60248201527f476f7665726e6f723a2070726f706f73616c206e6f742061637469766500000060448201526064016102af565b5f8281526003602052604090819020600201805461ff001916610100179055517f789cf55be980739dad1d0699b93b58e806b51c9d96619bfa8fe0a28abaa7b30c906135bb9084815260200190565b60405180910390a15095945050505050565b5f80608083901c156135e157608092831c92015b604083901c156135f357604092831c92015b602083901c1561360557602092831c92015b601083901c1561361757601092831c92015b600883901c1561362957600892831c92015b600483901c1561363b57600492831c92015b600283901c1561364d57600292831c92015b600183901c15610b485760010192915050565b5f81831061366e5781611523565b5090919050565b5f61368360028484186146b4565b6115239084841661473f565b80515f9060348110156136a6576001915050610b48565b82810160131901516001600160a01b031981166b046e0e4dee0dee6cae47a60f60a31b146136d957600192505050610b48565b5f806136e66028856145dc565b90505b83811015613756575f8061371c888481518110613708576137086145ef565b01602001516001600160f81b031916613805565b91509150816137345760019650505050505050610b48565b8060ff166004856001600160a01b0316901b17935050508060010190506136e9565b50856001600160a01b0316816001600160a01b031614935050505092915050565b5f6001600160401b038211156121b55760405162461bcd60e51b815260206004820152602660248201527f53616665436173743a2076616c756520646f65736e27742066697420696e203660448201526534206269747360d01b60648201526084016102af565b5f60ff8216601f811115610b4857604051632cd44ac360e21b815260040160405180910390fd5b5f8060f883901c602f8111801561381f5750603a8160ff16105b1561383457600194602f199091019350915050565b8060ff16604010801561384a575060478160ff16105b1561385f576001946036199091019350915050565b8060ff166060108015613875575060678160ff16105b1561388a576001946056199091019350915050565b505f93849350915050565b828054828255905f5260205f209081019282156138e8579160200282015b828111156138e857825182546001600160a01b0319166001600160a01b039091161782556020909201916001909101906138b3565b506121b59291506139cd565b828054828255905f5260205f209081019282156138e8579160200282015b828111156138e8578251825591602001919060010190613912565b828054828255905f5260205f20908101928215613971579160200282015b82811115613971578251829061396190826148ae565b509160200191906001019061394b565b506121b59291506139e1565b828054828255905f5260205f209081019282156139c1579160200282015b828111156139c157825182906139b190826148ae565b509160200191906001019061399b565b506121b59291506139fd565b5b808211156121b5575f81556001016139ce565b808211156121b5575f6139f48282613a19565b506001016139e1565b808211156121b5575f613a108282613a19565b506001016139fd565b508054613a25906144fe565b5f825580601f10613a34575050565b601f0160209004905f5260205f2090810190610cae91906139cd565b5f60208284031215613a60575f80fd5b5035919050565b5f60208284031215613a77575f80fd5b81356001600160e01b031981168114611523575f80fd5b803560ff81168114611287575f80fd5b5f8083601f840112613aae575f80fd5b5081356001600160401b03811115613ac4575f80fd5b602083019150836020828501011115613adb575f80fd5b9250929050565b634e487b7160e01b5f52604160045260245ffd5b604051601f8201601f191681016001600160401b0381118282101715613b1e57613b1e613ae2565b604052919050565b5f6001600160401b03821115613b3e57613b3e613ae2565b50601f01601f191660200190565b5f82601f830112613b5b575f80fd5b8135602083015f613b73613b6e84613b26565b613af6565b9050828152858383011115613b86575f80fd5b828260208301375f92810160200192909252509392505050565b5f805f805f805f8060e0898b031215613bb7575f80fd5b88359750613bc760208a01613a8e565b965060408901356001600160401b03811115613be1575f80fd5b613bed8b828c01613a9e565b90975095505060608901356001600160401b03811115613c0b575f80fd5b613c178b828c01613b4c565b945050613c2660808a01613a8e565b979a969950949793969295929450505060a08201359160c0013590565b5f81518084528060208401602086015e5f602082860101526020601f19601f83011685010191505092915050565b602081525f6115236020830184613c43565b80356001600160a01b0381168114611287575f80fd5b5f805f8060808587031215613cac575f80fd5b613cb585613c83565b9350613cc360208601613c83565b92506040850135915060608501356001600160401b03811115613ce4575f80fd5b613cf087828801613b4c565b91505092959194509250565b5f6001600160401b03821115613d1457613d14613ae2565b5060051b60200190565b5f82601f830112613d2d575f80fd5b8135613d3b613b6e82613cfc565b8082825260208201915060208360051b860101925085831115613d5c575f80fd5b602085015b83811015610e8557613d7281613c83565b835260209283019201613d61565b5f82601f830112613d8f575f80fd5b8135613d9d613b6e82613cfc565b8082825260208201915060208360051b860101925085831115613dbe575f80fd5b602085015b83811015610e85578035835260209283019201613dc3565b5f82601f830112613dea575f80fd5b8135613df8613b6e82613cfc565b8082825260208201915060208360051b860101925085831115613e19575f80fd5b602085015b83811015610e855780356001600160401b03811115613e3b575f80fd5b613e4a886020838a0101613b4c565b84525060209283019201613e1e565b5f805f8060808587031215613e6c575f80fd5b84356001600160401b03811115613e81575f80fd5b613e8d87828801613d1e565b94505060208501356001600160401b03811115613ea8575f80fd5b613eb487828801613d80565b93505060408501356001600160401b03811115613ecf575f80fd5b613edb87828801613ddb565b949793965093946060013593505050565b5f8151808452602084019350602083015f5b82811015613f255781516001600160a01b0316865260209586019590910190600101613efe565b5093949350505050565b5f8151808452602084019350602083015f5b82811015613f25578151865260209586019590910190600101613f41565b5f82825180855260208501945060208160051b830101602085015f5b83811015613fad57601f19858403018852613f97838351613c43565b6020988901989093509190910190600101613f7b565b50909695505050505050565b608081525f613fcb6080830187613eec565b8281036020840152613fdd8187613f2f565b90508281036040840152613ff18186613f5f565b905082810360608401526111788185613f5f565b5f805f805f60a08688031215614019575f80fd5b8535945061402960208701613a8e565b935061403760408701613a8e565b94979396509394606081013594506080013592915050565b634e487b7160e01b5f52602160045260245ffd5b602081016008831061408357634e487b7160e01b5f52602160045260245ffd5b91905290565b5f806040838503121561409a575f80fd5b823591506140aa60208401613c83565b90509250929050565b5f80604083850312156140c4575f80fd5b823591506140aa60208401613a8e565b5f805f805f608086880312156140e8575f80fd5b853594506140f860208701613a8e565b935060408601356001600160401b03811115614112575f80fd5b61411e88828901613a9e565b90945092505060608601356001600160401b0381111561413c575f80fd5b61414888828901613b4c565b9150509295509295909350565b5f805f8060608587031215614168575f80fd5b8435935061417860208601613a8e565b925060408501356001600160401b03811115614192575f80fd5b61419e87828801613a9e565b95989497509550505050565b5f805f80608085870312156141bd575f80fd5b84356001600160401b038111156141d2575f80fd5b6141de87828801613d1e565b94505060208501356001600160401b038111156141f9575f80fd5b61420587828801613d80565b93505060408501356001600160401b03811115614220575f80fd5b61422c87828801613ddb565b92505060608501356001600160401b03811115613ce4575f80fd5b60ff60f81b8816815260e060208201525f61426560e0830189613c43565b82810360408401526142778189613c43565b606084018890526001600160a01b038716608085015260a0840186905283810360c08501529050610c368185613f2f565b5f805f606084860312156142ba575f80fd5b6142c384613c83565b92506020840135915060408401356001600160401b038111156142e4575f80fd5b6142f086828701613b4c565b9150509250925092565b5f805f805f60a0868803121561430e575f80fd5b61431786613c83565b945061432560208701613c83565b935060408601356001600160401b0381111561433f575f80fd5b61434b88828901613d80565b93505060608601356001600160401b03811115614366575f80fd5b61437288828901613d80565b92505060808601356001600160401b0381111561413c575f80fd5b5f805f80606085870312156143a0575f80fd5b6143a985613c83565b93506020850135925060408501356001600160401b03811115614192575f80fd5b5f805f805f60a086880312156143de575f80fd5b85356001600160401b038111156143f3575f80fd5b6143ff88828901613d1e565b95505060208601356001600160401b0381111561441a575f80fd5b61442688828901613d80565b94505060408601356001600160401b03811115614441575f80fd5b61444d88828901613ddb565b93505060608601356001600160401b03811115614468575f80fd5b61437288828901613ddb565b5f8060408385031215614485575f80fd5b61448e83613c83565b946020939093013593505050565b5f805f805f60a086880312156144b0575f80fd5b6144b986613c83565b94506144c760208701613c83565b9350604086013592506060860135915060808601356001600160401b0381111561413c575f80fd5b818382375f9101908152919050565b600181811c9082168061451257607f821691505b60208210810361453057634e487b7160e01b5f52602260045260245ffd5b50919050565b634e487b7160e01b5f52601160045260245ffd5b65ffffffffffff8281168282160390811115610b4857610b48614536565b5f60208284031215614578575f80fd5b81516001600160401b0381111561458d575f80fd5b8201601f8101841361459d575f80fd5b80516145ab613b6e82613b26565b8181528560208385010111156145bf575f80fd5b8160208401602083015e5f91810160200191909152949350505050565b81810381811115610b4857610b48614536565b634e487b7160e01b5f52603260045260245ffd5b5f60208284031215614613575f80fd5b815165ffffffffffff81168114611523575f80fd5b608081525f61463a6080830187613eec565b828103602084015261464c8187613f2f565b905082810360408401526146608186613f5f565b91505082606083015295945050505050565b5f60208284031215614682575f80fd5b5051919050565b8082028115828204841417610b4857610b48614536565b634e487b7160e01b5f52601260045260245ffd5b5f826146ce57634e487b7160e01b5f52601260045260245ffd5b500490565b84815260ff84166020820152826040820152608060608201525f6113ef6080830184613c43565b85815260ff8516602082015283604082015260a060608201525f61472160a0830185613c43565b82810360808401526147338185613c43565b98975050505050505050565b80820180821115610b4857610b48614536565b5f81518060208401855e5f93019283525090919050565b6001600160e01b0319831681525f6115206004830184614752565b5f6115238284614752565b60208082526021908201527f476f7665726e6f723a20696e76616c69642070726f706f73616c206c656e67746040820152600d60fb1b606082015260800190565b8981526001600160a01b0389166020820152610120604082018190525f906147fa9083018a613eec565b828103606084015261480c818a613f2f565b905082810360808401526148208189613f5f565b905082810360a08401526148348188613f5f565b90508560c08401528460e08401528281036101008401526148558185613c43565b9c9b505050505050505050505050565b601f8211156148a957805f5260205f20601f840160051c8101602085101561488a5750805b601f840160051c820191505b81811015611c9d575f8155600101614896565b505050565b81516001600160401b038111156148c7576148c7613ae2565b6148db816148d584546144fe565b84614865565b6020601f82116001811461490d575f83156148f65750848201515b5f19600385901b1c1916600184901b178455611c9d565b5f84815260208120601f198516915b8281101561493c578785015182556020948501946001909201910161491c565b508482101561495957868401515f19600387901b60f8161c191681555b50505050600190811b0190555056fe476f7665726e6f723a2072656c617920726576657274656420776974686f7574206d657373616765476f7665726e6f723a2063616c6c20726576657274656420776974686f7574206d657373616765a2646970667358221220447bf8c5e33aed77d7ba93cfd42c64f5704bb7015c4b1b31a96806fa7cdc6eff64736f6c634300081a0033","linkReferences":{}},"methodIdentifiers":{"BALLOT_TYPEHASH()":"deaaa7cc","CLOCK_MODE()":"4bf5d7e9","COUNTING_MODE()":"dd4e2ba5","EXTENDED_BALLOT_TYPEHASH()":"2fe3e261","cancel(address[],uint256[],bytes[],bytes32)":"452115d6","cancel(uint256)":"40e58ee5","castVote(uint256,uint8)":"56781388","castVoteBySig(uint256,uint8,uint8,bytes32,bytes32)":"3bccf4fd","castVoteWithReason(uint256,uint8,string)":"7b3c71d3","castVoteWithReasonAndParams(uint256,uint8,string,bytes)":"5f398a14","castVoteWithReasonAndParamsBySig(uint256,uint8,string,bytes,uint8,bytes32,bytes32)":"03420181","clock()":"91ddadf4","eip712Domain()":"84b0196e","execute(address[],uint256[],bytes[],bytes32)":"2656227d","execute(uint256)":"fe0d94c1","getActions(uint256)":"328dd982","getReceipt(uint256,address)":"e23a9a52","getVotes(address,uint256)":"eb9019d4","getVotesWithParams(address,uint256,bytes)":"9a802a6d","hasVoted(uint256,address)":"43859632","hashProposal(address[],uint256[],bytes[],bytes32)":"c59057e4","name()":"06fdde03","onERC1155BatchReceived(address,address,uint256[],uint256[],bytes)":"bc197c81","onERC1155Received(address,address,uint256,uint256,bytes)":"f23a6e61","onERC721Received(address,address,uint256,bytes)":"150b7a02","proposalDeadline(uint256)":"c01f9e37","proposalEta(uint256)":"ab58fb8e","proposalProposer(uint256)":"143489d0","proposalSnapshot(uint256)":"2d63f693","proposalThreshold()":"b58131b0","proposals(uint256)":"013cf08b","propose(address[],uint256[],bytes[],string)":"7d5e81e2","propose(address[],uint256[],string[],bytes[],string)":"da95691a","queue(address[],uint256[],bytes[],bytes32)":"160cbed7","queue(uint256)":"ddf0b009","quorum(uint256)":"f8ce560a","quorumDenominator()":"97c3d334","quorumNumerator()":"a7713a70","quorumNumerator(uint256)":"60c4247f","quorumVotes()":"24bc1a64","relay(address,uint256,bytes)":"c28bc2fa","state(uint256)":"3e4f49e6","supportsInterface(bytes4)":"01ffc9a7","timelock()":"d33219b4","token()":"fc0c546a","updateQuorumNumerator(uint256)":"06f3f9e6","version()":"54fd4d50","votingDelay()":"3932abb1","votingPeriod()":"02a251a3"},"id":58}