{
  "_format": "hh-sol-artifact-1",
  "contractName": "AIProposalAdvisor",
  "sourceName": "contracts/AIProposalAdvisor.sol",
  "abi": [
    {
      "inputs": [
        {
          "internalType": "address",
          "name": "_oracleAddress",
          "type": "address"
        },
        {
          "internalType": "string",
          "name": "_instruction",
          "type": "string"
        },
        {
          "internalType": "string",
          "name": "_name",
          "type": "string"
        }
      ],
      "stateMutability": "nonpayable",
      "type": "constructor"
    },
    {
      "anonymous": false,
      "inputs": [
        {
          "indexed": true,
          "internalType": "address",
          "name": "newOracleAddress",
          "type": "address"
        }
      ],
      "name": "OracleAddressUpdated",
      "type": "event"
    },
    {
      "inputs": [
        {
          "internalType": "uint256",
          "name": "proposalId",
          "type": "uint256"
        }
      ],
      "name": "getMessageHistoryContents",
      "outputs": [
        {
          "internalType": "string[]",
          "name": "",
          "type": "string[]"
        }
      ],
      "stateMutability": "view",
      "type": "function"
    },
    {
      "inputs": [
        {
          "internalType": "uint256",
          "name": "proposalId",
          "type": "uint256"
        }
      ],
      "name": "getMessageHistoryRoles",
      "outputs": [
        {
          "internalType": "string[]",
          "name": "",
          "type": "string[]"
        }
      ],
      "stateMutability": "pure",
      "type": "function"
    },
    {
      "inputs": [
        {
          "internalType": "uint256",
          "name": "proposalId",
          "type": "uint256"
        }
      ],
      "name": "getProposalAdvice",
      "outputs": [
        {
          "internalType": "string",
          "name": "",
          "type": "string"
        }
      ],
      "stateMutability": "view",
      "type": "function"
    },
    {
      "inputs": [],
      "name": "getProposalCount",
      "outputs": [
        {
          "internalType": "uint256",
          "name": "",
          "type": "uint256"
        }
      ],
      "stateMutability": "view",
      "type": "function"
    },
    {
      "inputs": [],
      "name": "instruction",
      "outputs": [
        {
          "internalType": "string",
          "name": "",
          "type": "string"
        }
      ],
      "stateMutability": "view",
      "type": "function"
    },
    {
      "inputs": [],
      "name": "maxIterations",
      "outputs": [
        {
          "internalType": "uint256",
          "name": "",
          "type": "uint256"
        }
      ],
      "stateMutability": "view",
      "type": "function"
    },
    {
      "inputs": [],
      "name": "name",
      "outputs": [
        {
          "internalType": "string",
          "name": "",
          "type": "string"
        }
      ],
      "stateMutability": "view",
      "type": "function"
    },
    {
      "inputs": [
        {
          "internalType": "uint256",
          "name": "index",
          "type": "uint256"
        },
        {
          "internalType": "string",
          "name": "response",
          "type": "string"
        },
        {
          "internalType": "string",
          "name": "",
          "type": "string"
        }
      ],
      "name": "onOracleLlmResponse",
      "outputs": [],
      "stateMutability": "nonpayable",
      "type": "function"
    },
    {
      "inputs": [],
      "name": "oracleAddress",
      "outputs": [
        {
          "internalType": "address",
          "name": "",
          "type": "address"
        }
      ],
      "stateMutability": "view",
      "type": "function"
    },
    {
      "inputs": [
        {
          "internalType": "uint256",
          "name": "",
          "type": "uint256"
        }
      ],
      "name": "proposals",
      "outputs": [
        {
          "internalType": "uint256",
          "name": "id",
          "type": "uint256"
        },
        {
          "internalType": "string",
          "name": "description",
          "type": "string"
        },
        {
          "internalType": "string",
          "name": "summarizedDescription",
          "type": "string"
        },
        {
          "internalType": "string",
          "name": "advice",
          "type": "string"
        },
        {
          "internalType": "uint256",
          "name": "iteration",
          "type": "uint256"
        },
        {
          "internalType": "bool",
          "name": "isVoted",
          "type": "bool"
        },
        {
          "internalType": "bool",
          "name": "isResolved",
          "type": "bool"
        }
      ],
      "stateMutability": "view",
      "type": "function"
    },
    {
      "inputs": [
        {
          "internalType": "address",
          "name": "newOracleAddress",
          "type": "address"
        }
      ],
      "name": "setOracleAddress",
      "outputs": [],
      "stateMutability": "nonpayable",
      "type": "function"
    },
    {
      "inputs": [
        {
          "internalType": "uint256",
          "name": "proposalId",
          "type": "uint256"
        }
      ],
      "name": "setVoted",
      "outputs": [],
      "stateMutability": "nonpayable",
      "type": "function"
    },
    {
      "inputs": [
        {
          "internalType": "string[]",
          "name": "proposalDescriptions",
          "type": "string[]"
        },
        {
          "internalType": "uint256[]",
          "name": "proposalIds",
          "type": "uint256[]"
        }
      ],
      "name": "submitProposals",
      "outputs": [],
      "stateMutability": "nonpayable",
      "type": "function"
    }
  ],
  "bytecode": "0x60a06040523462000368576200175e803803806200001d816200036d565b9283398101606082820312620003685781516001600160a01b0381169290839003620003685760208181015190926001600160401b039290918381116200036857826200006c918301620003a9565b9160408201518481116200036857620000869201620003a9565b90600560805260018060a01b031991600095338488541617875560019384541617835581518481116200035457600254928484811c9416801562000349575b8785101462000335578190601f94858111620002e1575b5087908583116001146200027b5789926200026f575b5050600019600383901b1c191690841b176002555b80519384116200025b5760039586548481811c9116801562000250575b878210146200023c57838111620001f4575b50859285116001146200018e57939450849291908362000182575b50501b9160001990841b1c19161790555b60405161134290816200041c8239608051818181610aa101526111440152f35b01519250388062000151565b86815285812093958591601f198316915b88838310620001d95750505010620001c0575b505050811b01905562000162565b015160001983861b60f8161c19169055388080620001b2565b8587015188559096019594850194879350908101906200019f565b8782528682208480880160051c82019289891062000232575b0160051c019085905b8281106200022657505062000136565b83815501859062000216565b925081926200020d565b634e487b7160e01b82526022600452602482fd5b90607f169062000124565b634e487b7160e01b86526041600452602486fd5b015190503880620000f2565b60028a52888a208794509190601f1984168b5b8b828210620002ca5750508411620002b0575b505050811b0160025562000107565b015160001960f88460031b161c19169055388080620002a1565b8385015186558a979095019493840193016200028e565b909150600289528789208580850160051c8201928a86106200032b575b918891869594930160051c01915b8281106200031c575050620000dc565b8b81558594508891016200030c565b92508192620002fe565b634e487b7160e01b88526022600452602488fd5b93607f1693620000c5565b634e487b7160e01b87526041600452602487fd5b600080fd5b6040519190601f01601f191682016001600160401b038111838210176200039357604052565b634e487b7160e01b600052604160045260246000fd5b919080601f84011215620003685782516001600160401b0381116200039357602090620003df601f8201601f191683016200036d565b92818452828287010111620003685760005b8181106200040757508260009394955001015290565b8581018301518482018401528201620003f156fe6080604052600436101561001257600080fd5b60003560e01c8063013cf08b14610b9257806306fdde0314610ac4578063387f504a14610a895780634c69c00f146109e45780635e486e0f146109c85780638581a0311461096657806392eca6b4146102b55780639748f50714610282578063a1b67ed1146101db578063a89ae4ba146101b2578063c08cc02d14610194578063eb17429a1461010f5763ed6e39e5146100ab57600080fd5b3461010a57602036600319011261010a576101066100c761125a565b6040516100d381610cf1565b600681526573797374656d60d01b60208201526100ef82610fb5565b526100f981610fb5565b5060405191829182610f44565b0390f35b600080fd5b3461010a5760208060031936011261010a576101069061012d61125a565b9061018b61013c600435610c4b565b5091610152600161014b610d2d565b9401610deb565b92604051938161016b8693518092868087019101610e8f565b820161017f82518093868085019101610e8f565b01038084520182610d0c565b6100ef82610fb5565b3461010a57600036600319011261010a576020600454604051908152f35b3461010a57600036600319011261010a576001546040516001600160a01b039091168152602090f35b3461010a57606036600319011261010a576001600160401b0360243581811161010a5761020c903690600401610eee565b9060443590811161010a57610225903690600401610eee565b506001546001600160a01b031633036102465761024490600435610fd6565b005b60405162461bcd60e51b815260206004820152601460248201527343616c6c6572206973206e6f74206f7261636c6560601b6044820152606490fd5b3461010a57602036600319011261010a576101066102a1600435611210565b604051918291602083526020830190610eb2565b3461010a57604036600319011261010a576004356001600160401b03811161010a573660238201121561010a5780600401356102f081610ed7565b916102fe6040519384610d0c565b8183526024602084019260051b8201019036821161010a5760248101925b82841061093757602435856001600160401b03821161010a573660238301121561010a5781600401359161034f83610ed7565b9261035d6040519485610d0c565b8084526024602085019160051b8301019136831161010a57602401905b8282106109275750505080518251036108bc57906000915b8051831015610244576103a58383610fc2565b51926103b18183610fc2565b51936040519060e082018281106001600160401b038211176106fd576040528152602081019485526040516103e581610cd6565b6000815260408201526040516103fa81610cd6565b60008152606082015260006080820152600060a0820152600060c0820152600454680100000000000000008110156106fd5780600161043c9201600455610c4b565b9590956108a65781518655519485516001600160401b0381116106fd576104666001830154610c9c565b601f811161085f575b506020601f82116001146107ee57819293949596976000926107e3575b50508160011b916000199060031b1c19161760018201555b60408201518051906001600160401b0382116106fd5781906104c96002850154610c9c565b601f8111610790575b50602090601f831160011461071e57600092610713575b50508160011b916000199060031b1c19161760028201555b60608201518051906001600160401b0382116106fd576105246003840154610c9c565b601f81116106b6575b50602090601f831160011461064357600593929160009183610638575b50508160011b916000199060031b1c19161760038201555b60808301516004820155019060a081015115159060ff61ff0060c08554930151151560081b1692169061ffff19161717905560018060a01b036001541660045460001981019081116106225760009160246020926040519485938492636c4e899160e11b845260048401525af18015610616576105eb575b506105e490610fa6565b9190610392565b602090813d831161060f575b6106018183610d0c565b8101031261010a57836105da565b503d6105f7565b6040513d6000823e3d90fd5b634e487b7160e01b600052601160045260246000fd5b01519050888061054a565b906003840160005260206000209160005b601f198516811061069e575091839160019360059695601f19811610610685575b505050811b016003820155610562565b015160001960f88460031b161c19169055888080610675565b91926020600181928685015181550194019201610654565b600384016000526020600020601f840160051c8101602085106106f6575b601f830160051c820181106106ea57505061052d565b600081556001016106d4565b50806106d4565b634e487b7160e01b600052604160045260246000fd5b0151905087806104e9565b9250600284016000526020600020906000935b601f1984168510610775576001945083601f1981161061075c575b505050811b016002820155610501565b015160001960f88460031b161c1916905587808061074c565b81810151835560209485019460019093019290910190610731565b909150600284016000526020600020601f840160051c8101602085106107dc575b90849392915b601f830160051c820181106107cd5750506104d2565b600081558594506001016107b7565b50806107b1565b01519050878061048c565b6001830160005260206000209060005b601f19841681106108475750600193949596979883601f1981161061082e575b505050811b0160018201556104a4565b015160001960f88460031b161c1916905587808061081e565b9091602060018192858d0151815501930191016107fe565b600183016000526020600020601f830160051c81016020841061089f575b601f830160051c8201811061089357505061046f565b6000815560010161087d565b508061087d565b634e487b7160e01b600052600060045260246000fd5b60405162461bcd60e51b815260206004820152603760248201527f50726f706f73616c206465736372697074696f6e7320616e6420494473206d7560448201527f73742068617665207468652073616d65206c656e6774680000000000000000006064820152608490fd5b813581526020918201910161037a565b83356001600160401b03811161010a5760209161095b839260243691870101610eee565b81520193019261031c565b3461010a57602036600319011261010a5760043560005b6004548110156109c35780826109956109a193610c4b565b5054146109a657610fa6565b61097d565b60056109b182610c4b565b5001805460ff19166001179055610fa6565b6111d6565b3461010a57600036600319011261010a576101066102a1610d2d565b3461010a57602036600319011261010a576004356001600160a01b038181169182900361010a57600054163303610a4e57600180546001600160a01b031916821790557f107a9fafffb7ac890f780879e423760c9ffea8dcee8045681f40f542aede2cb8600080a2005b60405162461bcd60e51b815260206004820152601360248201527221b0b63632b91034b9903737ba1037bbb732b960691b6044820152606490fd5b3461010a57600036600319011261010a5760206040517f00000000000000000000000000000000000000000000000000000000000000008152f35b3461010a57600036600319011261010a576040516000600354610ae681610c9c565b80845290600190818116908115610b6b5750600114610b10575b610106846102a181860382610d0c565b6003600090815292507fc2575a0e9e593c00f959f8c92f12db2869c3395a3b0502d05e2516446f71f85b5b828410610b535750505081016020016102a182610b00565b80546020858701810191909152909301928101610b3b565b60ff191660208087019190915292151560051b850190920192506102a19150839050610b00565b3461010a57602036600319011261010a5760043560045481101561010a57610bb990610c4b565b508054610bc860018301610deb565b9160ff610bd760028301610deb565b610c2c610be660038501610deb565b610c1e6005600487015496015493610c10604051998a998a5260e060208b015260e08a0190610eb2565b9088820360408a0152610eb2565b908682036060880152610eb2565b926080850152818116151560a085015260081c16151560c08301520390f35b600454811015610c86576006906004600052027f8a35acfbc15ff81a39ae7d344fd709f28e8600b4aa8c65c6b64bfe7fe36bd19b0190600090565b634e487b7160e01b600052603260045260246000fd5b90600182811c92168015610ccc575b6020831014610cb657565b634e487b7160e01b600052602260045260246000fd5b91607f1691610cab565b602081019081106001600160401b038211176106fd57604052565b604081019081106001600160401b038211176106fd57604052565b90601f801991011681019081106001600160401b038211176106fd57604052565b6040519060008260025491610d4183610c9c565b80835292600190818116908115610dc95750600114610d6a575b50610d6892500383610d0c565b565b6002600090815291507f405787fa12a823e0f2b7631cc41b3ba8828b3321ca811111fa75cd3aa3bb5ace5b848310610dae5750610d68935050810160200138610d5b565b81935090816020925483858a01015201910190918592610d95565b905060209250610d6894915060ff191682840152151560051b82010138610d5b565b9060405191826000825492610dff84610c9c565b908184526001948581169081600014610e6c5750600114610e29575b5050610d6892500383610d0c565b9093915060005260209081600020936000915b818310610e54575050610d6893508201013880610e1b565b85548884018501529485019487945091830191610e3c565b915050610d6894506020925060ff191682840152151560051b8201013880610e1b565b60005b838110610ea25750506000910152565b8181015183820152602001610e92565b90602091610ecb81518092818552858086019101610e8f565b601f01601f1916010190565b6001600160401b0381116106fd5760051b60200190565b81601f8201121561010a578035906001600160401b0382116106fd5760405192610f22601f8401601f191660200185610d0c565b8284526020838301011161010a57816000926020809301838601378301015290565b602080820190808352835180925260408301928160408460051b8301019501936000915b848310610f785750505050505090565b9091929394958480610f96600193603f198682030187528a51610eb2565b9801930193019194939290610f68565b60001981146106225760010190565b805115610c865760200190565b8051821015610c865760209160051b010190565b919091610fe28361128f565b1561111b575b61100d816005610ff9600394610c4b565b5001805461ff001916610100179055610c4b565b500182516001600160401b0381116106fd576110298254610c9c565b601f81116110d3575b50602080601f831160011461106f575081929394600092611064575b50508160011b916000199060031b1c1916179055565b01519050388061104e565b90601f198316958460005282600020926000905b8882106110bb575050836001959697106110a2575b505050811b019055565b015160001960f88460031b161c19169055388080611098565b80600185968294968601518155019501930190611083565b600083815260208120601f840160051c81019260208510611111575b601f0160051c01915b828110611106575050611032565b8181556001016110f8565b90925082906110ef565b600461112682610c4b565b50016111328154610fa6565b9055600461113f82610c4b565b5001547f00000000000000000000000000000000000000000000000000000000000000001115610fe8576000919250602090602461118760018060a01b036001541692610c4b565b50546040519485938492636c4e899160e11b845260048401525af18015610616576111af5750565b602090813d81116111cf575b6111c58183610d0c565b8101031261010a57565b503d6111bb565b60405162461bcd60e51b8152602060048201526012602482015271141c9bdc1bdcd85b081b9bdd08199bdd5b9960721b6044820152606490fd5b6004549060005b828110156111d6578161122982610c4b565b50541461123e5761123990610fa6565b611217565b61125792506003915061125090610c4b565b5001610deb565b90565b60405161126681610cf1565b600181528060005b6020808210156112895790606060209282850101520161126e565b50505090565b805160001981018181116106225782511115610c8657601f910101516001600160f81b031916605960f81b81149081156112fe575b81156112f0575b81156112e2575b50156112dd57600190565b600090565b603760f91b149050386112d2565b607960f81b811491506112cb565b602760f91b811491506112c456fea2646970667358221220272a85e8b80309906b99d6cb3c3e85981ffc10c39eb67a7d49c9241ba283e5ae64736f6c63430008140033",
  "linkReferences": {},
  "deployedLinkReferences": {}
}