{
	"abi": [
		{
			"type": "constructor",
			"inputs": [],
			"stateMutability": "nonpayable"
		},
		{
			"type": "function",
			"name": "CLOCK_MODE",
			"inputs": [],
			"outputs": [
				{
					"name": "",
					"type": "string",
					"internalType": "string"
				}
			],
			"stateMutability": "view"
		},
		{
			"type": "function",
			"name": "DOMAIN_SEPARATOR",
			"inputs": [],
			"outputs": [
				{
					"name": "",
					"type": "bytes32",
					"internalType": "bytes32"
				}
			],
			"stateMutability": "view"
		},
		{
			"type": "function",
			"name": "allowance",
			"inputs": [
				{
					"name": "owner",
					"type": "address",
					"internalType": "address"
				},
				{
					"name": "spender",
					"type": "address",
					"internalType": "address"
				}
			],
			"outputs": [
				{
					"name": "",
					"type": "uint256",
					"internalType": "uint256"
				}
			],
			"stateMutability": "view"
		},
		{
			"type": "function",
			"name": "approve",
			"inputs": [
				{
					"name": "spender",
					"type": "address",
					"internalType": "address"
				},
				{
					"name": "amount",
					"type": "uint256",
					"internalType": "uint256"
				}
			],
			"outputs": [
				{
					"name": "",
					"type": "bool",
					"internalType": "bool"
				}
			],
			"stateMutability": "nonpayable"
		},
		{
			"type": "function",
			"name": "balanceOf",
			"inputs": [
				{
					"name": "account",
					"type": "address",
					"internalType": "address"
				}
			],
			"outputs": [
				{
					"name": "",
					"type": "uint256",
					"internalType": "uint256"
				}
			],
			"stateMutability": "view"
		},
		{
			"type": "function",
			"name": "checkpoints",
			"inputs": [
				{
					"name": "account",
					"type": "address",
					"internalType": "address"
				},
				{
					"name": "pos",
					"type": "uint32",
					"internalType": "uint32"
				}
			],
			"outputs": [
				{
					"name": "",
					"type": "tuple",
					"internalType": "struct ERC20Votes.Checkpoint",
					"components": [
						{
							"name": "fromBlock",
							"type": "uint32",
							"internalType": "uint32"
						},
						{
							"name": "votes",
							"type": "uint224",
							"internalType": "uint224"
						}
					]
				}
			],
			"stateMutability": "view"
		},
		{
			"type": "function",
			"name": "clock",
			"inputs": [],
			"outputs": [
				{
					"name": "",
					"type": "uint48",
					"internalType": "uint48"
				}
			],
			"stateMutability": "view"
		},
		{
			"type": "function",
			"name": "decimals",
			"inputs": [],
			"outputs": [
				{
					"name": "",
					"type": "uint8",
					"internalType": "uint8"
				}
			],
			"stateMutability": "view"
		},
		{
			"type": "function",
			"name": "decreaseAllowance",
			"inputs": [
				{
					"name": "spender",
					"type": "address",
					"internalType": "address"
				},
				{
					"name": "subtractedValue",
					"type": "uint256",
					"internalType": "uint256"
				}
			],
			"outputs": [
				{
					"name": "",
					"type": "bool",
					"internalType": "bool"
				}
			],
			"stateMutability": "nonpayable"
		},
		{
			"type": "function",
			"name": "delegate",
			"inputs": [
				{
					"name": "delegatee",
					"type": "address",
					"internalType": "address"
				}
			],
			"outputs": [],
			"stateMutability": "nonpayable"
		},
		{
			"type": "function",
			"name": "delegateBySig",
			"inputs": [
				{
					"name": "delegatee",
					"type": "address",
					"internalType": "address"
				},
				{
					"name": "nonce",
					"type": "uint256",
					"internalType": "uint256"
				},
				{
					"name": "expiry",
					"type": "uint256",
					"internalType": "uint256"
				},
				{
					"name": "v",
					"type": "uint8",
					"internalType": "uint8"
				},
				{
					"name": "r",
					"type": "bytes32",
					"internalType": "bytes32"
				},
				{
					"name": "s",
					"type": "bytes32",
					"internalType": "bytes32"
				}
			],
			"outputs": [],
			"stateMutability": "nonpayable"
		},
		{
			"type": "function",
			"name": "delegates",
			"inputs": [
				{
					"name": "account",
					"type": "address",
					"internalType": "address"
				}
			],
			"outputs": [
				{
					"name": "",
					"type": "address",
					"internalType": "address"
				}
			],
			"stateMutability": "view"
		},
		{
			"type": "function",
			"name": "eip712Domain",
			"inputs": [],
			"outputs": [
				{
					"name": "fields",
					"type": "bytes1",
					"internalType": "bytes1"
				},
				{
					"name": "name",
					"type": "string",
					"internalType": "string"
				},
				{
					"name": "version",
					"type": "string",
					"internalType": "string"
				},
				{
					"name": "chainId",
					"type": "uint256",
					"internalType": "uint256"
				},
				{
					"name": "verifyingContract",
					"type": "address",
					"internalType": "address"
				},
				{
					"name": "salt",
					"type": "bytes32",
					"internalType": "bytes32"
				},
				{
					"name": "extensions",
					"type": "uint256[]",
					"internalType": "uint256[]"
				}
			],
			"stateMutability": "view"
		},
		{
			"type": "function",
			"name": "getPastTotalSupply",
			"inputs": [
				{
					"name": "timepoint",
					"type": "uint256",
					"internalType": "uint256"
				}
			],
			"outputs": [
				{
					"name": "",
					"type": "uint256",
					"internalType": "uint256"
				}
			],
			"stateMutability": "view"
		},
		{
			"type": "function",
			"name": "getPastVotes",
			"inputs": [
				{
					"name": "account",
					"type": "address",
					"internalType": "address"
				},
				{
					"name": "timepoint",
					"type": "uint256",
					"internalType": "uint256"
				}
			],
			"outputs": [
				{
					"name": "",
					"type": "uint256",
					"internalType": "uint256"
				}
			],
			"stateMutability": "view"
		},
		{
			"type": "function",
			"name": "getVotes",
			"inputs": [
				{
					"name": "account",
					"type": "address",
					"internalType": "address"
				}
			],
			"outputs": [
				{
					"name": "",
					"type": "uint256",
					"internalType": "uint256"
				}
			],
			"stateMutability": "view"
		},
		{
			"type": "function",
			"name": "increaseAllowance",
			"inputs": [
				{
					"name": "spender",
					"type": "address",
					"internalType": "address"
				},
				{
					"name": "addedValue",
					"type": "uint256",
					"internalType": "uint256"
				}
			],
			"outputs": [
				{
					"name": "",
					"type": "bool",
					"internalType": "bool"
				}
			],
			"stateMutability": "nonpayable"
		},
		{
			"type": "function",
			"name": "mint",
			"inputs": [
				{
					"name": "to",
					"type": "address",
					"internalType": "address"
				},
				{
					"name": "amount",
					"type": "uint256",
					"internalType": "uint256"
				}
			],
			"outputs": [],
			"stateMutability": "nonpayable"
		},
		{
			"type": "function",
			"name": "name",
			"inputs": [],
			"outputs": [
				{
					"name": "",
					"type": "string",
					"internalType": "string"
				}
			],
			"stateMutability": "view"
		},
		{
			"type": "function",
			"name": "nonces",
			"inputs": [
				{
					"name": "owner",
					"type": "address",
					"internalType": "address"
				}
			],
			"outputs": [
				{
					"name": "",
					"type": "uint256",
					"internalType": "uint256"
				}
			],
			"stateMutability": "view"
		},
		{
			"type": "function",
			"name": "numCheckpoints",
			"inputs": [
				{
					"name": "account",
					"type": "address",
					"internalType": "address"
				}
			],
			"outputs": [
				{
					"name": "",
					"type": "uint32",
					"internalType": "uint32"
				}
			],
			"stateMutability": "view"
		},
		{
			"type": "function",
			"name": "permit",
			"inputs": [
				{
					"name": "owner",
					"type": "address",
					"internalType": "address"
				},
				{
					"name": "spender",
					"type": "address",
					"internalType": "address"
				},
				{
					"name": "value",
					"type": "uint256",
					"internalType": "uint256"
				},
				{
					"name": "deadline",
					"type": "uint256",
					"internalType": "uint256"
				},
				{
					"name": "v",
					"type": "uint8",
					"internalType": "uint8"
				},
				{
					"name": "r",
					"type": "bytes32",
					"internalType": "bytes32"
				},
				{
					"name": "s",
					"type": "bytes32",
					"internalType": "bytes32"
				}
			],
			"outputs": [],
			"stateMutability": "nonpayable"
		},
		{
			"type": "function",
			"name": "symbol",
			"inputs": [],
			"outputs": [
				{
					"name": "",
					"type": "string",
					"internalType": "string"
				}
			],
			"stateMutability": "view"
		},
		{
			"type": "function",
			"name": "totalSupply",
			"inputs": [],
			"outputs": [
				{
					"name": "",
					"type": "uint256",
					"internalType": "uint256"
				}
			],
			"stateMutability": "view"
		},
		{
			"type": "function",
			"name": "transfer",
			"inputs": [
				{
					"name": "to",
					"type": "address",
					"internalType": "address"
				},
				{
					"name": "amount",
					"type": "uint256",
					"internalType": "uint256"
				}
			],
			"outputs": [
				{
					"name": "",
					"type": "bool",
					"internalType": "bool"
				}
			],
			"stateMutability": "nonpayable"
		},
		{
			"type": "function",
			"name": "transferFrom",
			"inputs": [
				{
					"name": "from",
					"type": "address",
					"internalType": "address"
				},
				{
					"name": "to",
					"type": "address",
					"internalType": "address"
				},
				{
					"name": "amount",
					"type": "uint256",
					"internalType": "uint256"
				}
			],
			"outputs": [
				{
					"name": "",
					"type": "bool",
					"internalType": "bool"
				}
			],
			"stateMutability": "nonpayable"
		},
		{
			"type": "event",
			"name": "Approval",
			"inputs": [
				{
					"name": "owner",
					"type": "address",
					"indexed": true,
					"internalType": "address"
				},
				{
					"name": "spender",
					"type": "address",
					"indexed": true,
					"internalType": "address"
				},
				{
					"name": "value",
					"type": "uint256",
					"indexed": false,
					"internalType": "uint256"
				}
			],
			"anonymous": false
		},
		{
			"type": "event",
			"name": "DelegateChanged",
			"inputs": [
				{
					"name": "delegator",
					"type": "address",
					"indexed": true,
					"internalType": "address"
				},
				{
					"name": "fromDelegate",
					"type": "address",
					"indexed": true,
					"internalType": "address"
				},
				{
					"name": "toDelegate",
					"type": "address",
					"indexed": true,
					"internalType": "address"
				}
			],
			"anonymous": false
		},
		{
			"type": "event",
			"name": "DelegateVotesChanged",
			"inputs": [
				{
					"name": "delegate",
					"type": "address",
					"indexed": true,
					"internalType": "address"
				},
				{
					"name": "previousBalance",
					"type": "uint256",
					"indexed": false,
					"internalType": "uint256"
				},
				{
					"name": "newBalance",
					"type": "uint256",
					"indexed": false,
					"internalType": "uint256"
				}
			],
			"anonymous": false
		},
		{
			"type": "event",
			"name": "EIP712DomainChanged",
			"inputs": [],
			"anonymous": false
		},
		{
			"type": "event",
			"name": "Transfer",
			"inputs": [
				{
					"name": "from",
					"type": "address",
					"indexed": true,
					"internalType": "address"
				},
				{
					"name": "to",
					"type": "address",
					"indexed": true,
					"internalType": "address"
				},
				{
					"name": "value",
					"type": "uint256",
					"indexed": false,
					"internalType": "uint256"
				}
			],
			"anonymous": false
		},
		{
			"type": "error",
			"name": "InvalidShortString",
			"inputs": []
		},
		{
			"type": "error",
			"name": "StringTooLong",
			"inputs": [
				{
					"name": "str",
					"type": "string",
					"internalType": "string"
				}
			]
		}
	],
	"bytecode": {
		"object": "0x610160604052348015610010575f80fd5b50604051806040016040528060088152602001672220a7aa37b5b2b760c11b81525080604051806040016040528060018152602001603160f81b815250604051806040016040528060088152602001672220a7aa37b5b2b760c11b8152506040518060400160405280600381526020016244414f60e81b81525081600390816100999190610270565b5060046100a68282610270565b506100b691508390506005610160565b610120526100c5816006610160565b61014052815160208084019190912060e052815190820120610100524660a05261015160e05161010051604080517f8b73c3c69bb8fe3d512ecc4cf759cc79239f7b179b0ffacaa9a75d522b39400f60208201529081019290925260608201524660808201523060a08201525f9060c00160405160208183030381529060405280519060200120905090565b60805250503060c05250610382565b5f60208351101561017b5761017483610192565b905061018c565b816101868482610270565b5060ff90505b92915050565b5f80829050601f815111156101c5578260405163305a27a960e01b81526004016101bc919061032a565b60405180910390fd5b80516101d08261035f565b179392505050565b634e487b7160e01b5f52604160045260245ffd5b600181811c9082168061020057607f821691505b60208210810361021e57634e487b7160e01b5f52602260045260245ffd5b50919050565b601f82111561026b57805f5260205f20601f840160051c810160208510156102495750805b601f840160051c820191505b81811015610268575f8155600101610255565b50505b505050565b81516001600160401b03811115610289576102896101d8565b61029d8161029784546101ec565b84610224565b6020601f8211600181146102cf575f83156102b85750848201515b5f19600385901b1c1916600184901b178455610268565b5f84815260208120601f198516915b828110156102fe57878501518255602094850194600190920191016102de565b508482101561031b57868401515f19600387901b60f8161c191681555b50505050600190811b01905550565b602081525f82518060208401528060208501604085015e5f604082850101526040601f19601f83011684010191505092915050565b8051602080830151919081101561021e575f1960209190910360031b1b16919050565b60805160a05160c05160e0516101005161012051610140516120016103d35f395f6106b401525f61068901525f610fe301525f610fbb01525f610f1601525f610f4001525f610f6a01526120015ff3fe608060405234801561000f575f80fd5b5060043610610187575f3560e01c806370a08231116100d95780639ab24eb011610093578063c3cda5201161006e578063c3cda52014610392578063d505accf146103a5578063dd62ed3e146103b8578063f1127ed8146103cb575f80fd5b80639ab24eb014610359578063a457c2d71461036c578063a9059cbb1461037f575f80fd5b806370a08231146102c95780637ecebe00146102f157806384b0196e146103045780638e539e8c1461031f57806391ddadf41461033257806395d89b4114610351575f80fd5b806339509351116101445780634bf5d7e91161011f5780634bf5d7e914610243578063587cde1e1461024b5780635c19a95c1461028e5780636fcfff45146102a1575f80fd5b806339509351146102085780633a46b1a81461021b57806340c10f191461022e575f80fd5b806306fdde031461018b578063095ea7b3146101a957806318160ddd146101cc57806323b872dd146101de578063313ce567146101f15780633644e51514610200575b5f80fd5b610193610408565b6040516101a09190611c77565b60405180910390f35b6101bc6101b7366004611ca4565b610498565b60405190151581526020016101a0565b6002545b6040519081526020016101a0565b6101bc6101ec366004611ccc565b6104b1565b604051601281526020016101a0565b6101d06104d4565b6101bc610216366004611ca4565b6104e2565b6101d0610229366004611ca4565b610503565b61024161023c366004611ca4565b61058b565b005b610193610599565b610276610259366004611d06565b6001600160a01b039081165f908152600960205260409020541690565b6040516001600160a01b0390911681526020016101a0565b61024161029c366004611d06565b610631565b6102b46102af366004611d06565b61063e565b60405163ffffffff90911681526020016101a0565b6101d06102d7366004611d06565b6001600160a01b03165f9081526020819052604090205490565b6101d06102ff366004611d06565b61065f565b61030c61067c565b6040516101a09796959493929190611d1f565b6101d061032d366004611db5565b610703565b61033a610769565b60405165ffffffffffff90911681526020016101a0565b610193610773565b6101d0610367366004611d06565b610782565b6101bc61037a366004611ca4565b6107ff565b6101bc61038d366004611ca4565b610879565b6102416103a0366004611ddc565b610886565b6102416103b3366004611e30565b6109bb565b6101d06103c6366004611e96565b610b1c565b6103de6103d9366004611ec7565b610b46565b60408051825163ffffffff1681526020928301516001600160e01b031692810192909252016101a0565b60606003805461041790611f04565b80601f016020809104026020016040519081016040528092919081815260200182805461044390611f04565b801561048e5780601f106104655761010080835404028352916020019161048e565b820191905f5260205f20905b81548152906001019060200180831161047157829003601f168201915b5050505050905090565b5f336104a5818585610bc7565b60019150505b92915050565b5f336104be858285610cea565b6104c9858585610d62565b506001949350505050565b5f6104dd610f0a565b905090565b5f336104a58185856104f48383610b1c565b6104fe9190611f4a565b610bc7565b5f61050c610769565b65ffffffffffff1682106105635760405162461bcd60e51b815260206004820152601960248201527804552433230566f7465733a20667574757265206c6f6f6b757603c1b60448201526064015b60405180910390fd5b6001600160a01b0383165f908152600a602052604090206105849083611033565b9392505050565b6105958282611114565b5050565b6060436105a4610769565b65ffffffffffff16146105f95760405162461bcd60e51b815260206004820152601d60248201527f4552433230566f7465733a2062726f6b656e20636c6f636b206d6f6465000000604482015260640161055a565b5060408051808201909152601d81527f6d6f64653d626c6f636b6e756d6265722666726f6d3d64656661756c74000000602082015290565b61063b338261111e565b50565b6001600160a01b0381165f908152600a60205260408120546104ab90611196565b6001600160a01b0381165f908152600760205260408120546104ab565b5f606080828080836106af7f000000000000000000000000000000000000000000000000000000000000000060056111fe565b6106da7f000000000000000000000000000000000000000000000000000000000000000060066111fe565b604080515f80825260208201909252600f60f81b9b939a50919850469750309650945092509050565b5f61070c610769565b65ffffffffffff16821061075e5760405162461bcd60e51b815260206004820152601960248201527804552433230566f7465733a20667574757265206c6f6f6b757603c1b604482015260640161055a565b6104ab600b83611033565b5f6104dd436112a7565b60606004805461041790611f04565b6001600160a01b0381165f908152600a602052604081205480156107ed576001600160a01b0383165f908152600a6020526040902080545f1983019081106107cc576107cc611f5d565b5f9182526020909120015464010000000090046001600160e01b03166107ef565b5f5b6001600160e01b03169392505050565b5f338161080c8286610b1c565b90508381101561086c5760405162461bcd60e51b815260206004820152602560248201527f45524332303a2064656372656173656420616c6c6f77616e63652062656c6f77604482015264207a65726f60d81b606482015260840161055a565b6104c98286868403610bc7565b5f336104a5818585610d62565b834211156108d65760405162461bcd60e51b815260206004820152601d60248201527f4552433230566f7465733a207369676e61747572652065787069726564000000604482015260640161055a565b604080517fe48329057bfd03d55e49b547132e39cffd9c1820ad7b9d4c5307691425d15adf60208201526001600160a01b0388169181019190915260608101869052608081018590525f9061094f906109479060a0016040516020818303038152906040528051906020012061130d565b858585611339565b905061095a8161135f565b86146109a85760405162461bcd60e51b815260206004820152601960248201527f4552433230566f7465733a20696e76616c6964206e6f6e636500000000000000604482015260640161055a565b6109b2818861111e565b50505050505050565b83421115610a0b5760405162461bcd60e51b815260206004820152601d60248201527f45524332305065726d69743a206578706972656420646561646c696e65000000604482015260640161055a565b5f7f6e71edae12b1b97f4d1f60370fef10105fa2faae0126114a169c64845d6126c9888888610a398c61135f565b6040805160208101969096526001600160a01b0394851690860152929091166060840152608083015260a082015260c0810186905260e0016040516020818303038152906040528051906020012090505f610a938261130d565b90505f610aa282878787611339565b9050896001600160a01b0316816001600160a01b031614610b055760405162461bcd60e51b815260206004820152601e60248201527f45524332305065726d69743a20696e76616c6964207369676e61747572650000604482015260640161055a565b610b108a8a8a610bc7565b50505050505050505050565b6001600160a01b039182165f90815260016020908152604080832093909416825291909152205490565b604080518082019091525f80825260208201526001600160a01b0383165f908152600a60205260409020805463ffffffff8416908110610b8857610b88611f5d565b5f9182526020918290206040805180820190915291015463ffffffff8116825264010000000090046001600160e01b0316918101919091529392505050565b6001600160a01b038316610c295760405162461bcd60e51b8152602060048201526024808201527f45524332303a20617070726f76652066726f6d20746865207a65726f206164646044820152637265737360e01b606482015260840161055a565b6001600160a01b038216610c8a5760405162461bcd60e51b815260206004820152602260248201527f45524332303a20617070726f766520746f20746865207a65726f206164647265604482015261737360f01b606482015260840161055a565b6001600160a01b038381165f8181526001602090815260408083209487168084529482529182902085905590518481527f8c5be1e5ebec7d5bd14f71427d1e84f3dd0314c0f7b2291e5b200ac8c7c3b925910160405180910390a3505050565b5f610cf58484610b1c565b90505f198114610d5c5781811015610d4f5760405162461bcd60e51b815260206004820152601d60248201527f45524332303a20696e73756666696369656e7420616c6c6f77616e6365000000604482015260640161055a565b610d5c8484848403610bc7565b50505050565b6001600160a01b038316610dc65760405162461bcd60e51b815260206004820152602560248201527f45524332303a207472616e736665722066726f6d20746865207a65726f206164604482015264647265737360d81b606482015260840161055a565b6001600160a01b038216610e285760405162461bcd60e51b815260206004820152602360248201527f45524332303a207472616e7366657220746f20746865207a65726f206164647260448201526265737360e81b606482015260840161055a565b6001600160a01b0383165f9081526020819052604090205481811015610e9f5760405162461bcd60e51b815260206004820152602660248201527f45524332303a207472616e7366657220616d6f756e7420657863656564732062604482015265616c616e636560d01b606482015260840161055a565b6001600160a01b038481165f81815260208181526040808320878703905593871680835291849020805487019055925185815290927fddf252ad1be2c89b69c2b068fc378daa952ba7f163c4a11628f55a4df523b3ef910160405180910390a3610d5c84848461138b565b5f306001600160a01b037f000000000000000000000000000000000000000000000000000000000000000016148015610f6257507f000000000000000000000000000000000000000000000000000000000000000046145b15610f8c57507f000000000000000000000000000000000000000000000000000000000000000090565b6104dd604080517f8b73c3c69bb8fe3d512ecc4cf759cc79239f7b179b0ffacaa9a75d522b39400f60208201527f0000000000000000000000000000000000000000000000000000000000000000918101919091527f000000000000000000000000000000000000000000000000000000000000000060608201524660808201523060a08201525f9060c00160405160208183030381529060405280519060200120905090565b81545f908181600581111561108a575f61104c84611396565b6110569085611f71565b5f88815260209020909150869082015463ffffffff16111561107a57809150611088565b611085816001611f4a565b92505b505b808210156110d5575f61109d838361147a565b5f88815260209020909150869082015463ffffffff1611156110c1578091506110cf565b6110cc816001611f4a565b92505b5061108a565b80156110ff575f8681526020902081015f19015464010000000090046001600160e01b0316611101565b5f5b6001600160e01b03169695505050505050565b6105958282611494565b6001600160a01b038281165f818152600960208181526040808420805485845282862054949093528787166001600160a01b03198416811790915590519190951694919391928592917f3134e8a2e6d97e929a7e54011ea5485d7d196dd5f0ba4d4ef95803e8e3fc257f9190a4610d5c82848361151e565b5f63ffffffff8211156111fa5760405162461bcd60e51b815260206004820152602660248201527f53616665436173743a2076616c756520646f65736e27742066697420696e203360448201526532206269747360d01b606482015260840161055a565b5090565b606060ff83146112185761121183611658565b90506104ab565b81805461122490611f04565b80601f016020809104026020016040519081016040528092919081815260200182805461125090611f04565b801561129b5780601f106112725761010080835404028352916020019161129b565b820191905f5260205f20905b81548152906001019060200180831161127e57829003601f168201915b505050505090506104ab565b5f65ffffffffffff8211156111fa5760405162461bcd60e51b815260206004820152602660248201527f53616665436173743a2076616c756520646f65736e27742066697420696e203460448201526538206269747360d01b606482015260840161055a565b5f6104ab611319610f0a565b8360405161190160f01b8152600281019290925260228201526042902090565b5f805f61134887878787611695565b9150915061135581611752565b5095945050505050565b6001600160a01b0381165f9081526007602052604090208054600181018255905b50919050565b505050565b61138683838361189b565b5f815f036113a557505f919050565b5f60016113b1846118cc565b901c6001901b905060018184816113ca576113ca611f84565b048201901c905060018184816113e2576113e2611f84565b048201901c905060018184816113fa576113fa611f84565b048201901c9050600181848161141257611412611f84565b048201901c9050600181848161142a5761142a611f84565b048201901c9050600181848161144257611442611f84565b048201901c9050600181848161145a5761145a611f84565b048201901c90506105848182858161147457611474611f84565b0461195f565b5f6114886002848418611f98565b61058490848416611f4a565b61149e8282611974565b6002546001600160e01b0310156115105760405162461bcd60e51b815260206004820152603060248201527f4552433230566f7465733a20746f74616c20737570706c79207269736b73206f60448201526f766572666c6f77696e6720766f74657360801b606482015260840161055a565b610d5c600b611a3883611a43565b816001600160a01b0316836001600160a01b03161415801561153f57505f81115b15611386576001600160a01b038316156115cc576001600160a01b0383165f908152600a60205260408120819061157990611baf85611a43565b91509150846001600160a01b03167fdec2bacdd2f05b59de34da9b523dff8be42e5e38e818c82fdb0bae774387a72483836040516115c1929190918252602082015260400190565b60405180910390a250505b6001600160a01b03821615611386576001600160a01b0382165f908152600a60205260408120819061160190611a3885611a43565b91509150836001600160a01b03167fdec2bacdd2f05b59de34da9b523dff8be42e5e38e818c82fdb0bae774387a7248383604051611649929190918252602082015260400190565b60405180910390a25050505050565b60605f61166483611bba565b6040805160208082528183019092529192505f91906020820181803683375050509182525060208101929092525090565b5f807f7fffffffffffffffffffffffffffffff5d576e7357a4501ddfe92f46681b20a08311156116ca57505f90506003611749565b604080515f8082526020820180845289905260ff881692820192909252606081018690526080810185905260019060a0016020604051602081039080840390855afa15801561171b573d5f803e3d5ffd5b5050604051601f1901519150506001600160a01b038116611743575f60019250925050611749565b91505f90505b94509492505050565b5f81600481111561176557611765611fb7565b0361176d5750565b600181600481111561178157611781611fb7565b036117ce5760405162461bcd60e51b815260206004820152601860248201527f45434453413a20696e76616c6964207369676e61747572650000000000000000604482015260640161055a565b60028160048111156117e2576117e2611fb7565b0361182f5760405162461bcd60e51b815260206004820152601f60248201527f45434453413a20696e76616c6964207369676e6174757265206c656e67746800604482015260640161055a565b600381600481111561184357611843611fb7565b0361063b5760405162461bcd60e51b815260206004820152602260248201527f45434453413a20696e76616c6964207369676e6174757265202773272076616c604482015261756560f01b606482015260840161055a565b6001600160a01b038381165f908152600960205260408082205485841683529120546113869291821691168361151e565b5f80608083901c156118e057608092831c92015b604083901c156118f257604092831c92015b602083901c1561190457602092831c92015b601083901c1561191657601092831c92015b600883901c1561192857600892831c92015b600483901c1561193a57600492831c92015b600283901c1561194c57600292831c92015b600183901c156104ab5760010192915050565b5f81831061196d5781610584565b5090919050565b6001600160a01b0382166119ca5760405162461bcd60e51b815260206004820152601f60248201527f45524332303a206d696e7420746f20746865207a65726f206164647265737300604482015260640161055a565b8060025f8282546119db9190611f4a565b90915550506001600160a01b0382165f81815260208181526040808320805486019055518481527fddf252ad1be2c89b69c2b068fc378daa952ba7f163c4a11628f55a4df523b3ef910160405180910390a36105955f838361138b565b5f6105848284611f4a565b82545f908190818115611a8d575f8781526020902082015f190160408051808201909152905463ffffffff8116825264010000000090046001600160e01b03166020820152611aa1565b604080518082019091525f80825260208201525b905080602001516001600160e01b03169350611ac184868863ffffffff16565b92505f82118015611ae95750611ad5610769565b65ffffffffffff16815f015163ffffffff16145b15611b2c57611af783611be1565b5f8881526020902083015f190180546001600160e01b03929092166401000000000263ffffffff909216919091179055611ba5565b866040518060400160405280611b50611b43610769565b65ffffffffffff16611196565b63ffffffff168152602001611b6486611be1565b6001600160e01b0390811690915282546001810184555f938452602093849020835194909301519091166401000000000263ffffffff909316929092179101555b5050935093915050565b5f6105848284611f71565b5f60ff8216601f8111156104ab57604051632cd44ac360e21b815260040160405180910390fd5b5f6001600160e01b038211156111fa5760405162461bcd60e51b815260206004820152602760248201527f53616665436173743a2076616c756520646f65736e27742066697420696e20326044820152663234206269747360c81b606482015260840161055a565b5f81518084528060208401602086015e5f602082860101526020601f19601f83011685010191505092915050565b602081525f6105846020830184611c49565b80356001600160a01b0381168114611c9f575f80fd5b919050565b5f8060408385031215611cb5575f80fd5b611cbe83611c89565b946020939093013593505050565b5f805f60608486031215611cde575f80fd5b611ce784611c89565b9250611cf560208501611c89565b929592945050506040919091013590565b5f60208284031215611d16575f80fd5b61058482611c89565b60ff60f81b8816815260e060208201525f611d3d60e0830189611c49565b8281036040840152611d4f8189611c49565b606084018890526001600160a01b038716608085015260a0840186905283810360c0850152845180825260208087019350909101905f5b81811015611da4578351835260209384019390920191600101611d86565b50909b9a5050505050505050505050565b5f60208284031215611dc5575f80fd5b5035919050565b803560ff81168114611c9f575f80fd5b5f805f805f8060c08789031215611df1575f80fd5b611dfa87611c89565b95506020870135945060408701359350611e1660608801611dcc565b9598949750929560808101359460a0909101359350915050565b5f805f805f805f60e0888a031215611e46575f80fd5b611e4f88611c89565b9650611e5d60208901611c89565b95506040880135945060608801359350611e7960808901611dcc565b9699959850939692959460a0840135945060c09093013592915050565b5f8060408385031215611ea7575f80fd5b611eb083611c89565b9150611ebe60208401611c89565b90509250929050565b5f8060408385031215611ed8575f80fd5b611ee183611c89565b9150602083013563ffffffff81168114611ef9575f80fd5b809150509250929050565b600181811c90821680611f1857607f821691505b60208210810361138057634e487b7160e01b5f52602260045260245ffd5b634e487b7160e01b5f52601160045260245ffd5b808201808211156104ab576104ab611f36565b634e487b7160e01b5f52603260045260245ffd5b818103818111156104ab576104ab611f36565b634e487b7160e01b5f52601260045260245ffd5b5f82611fb257634e487b7160e01b5f52601260045260245ffd5b500490565b634e487b7160e01b5f52602160045260245ffdfea2646970667358221220e326b63cc5a31ad459c41a23475f8487e157360650f9d7881aeeadee4f31a89f64736f6c634300081a0033",
		"linkReferences": {}
	},
	"methodIdentifiers": {
		"CLOCK_MODE()": "4bf5d7e9",
		"DOMAIN_SEPARATOR()": "3644e515",
		"allowance(address,address)": "dd62ed3e",
		"approve(address,uint256)": "095ea7b3",
		"balanceOf(address)": "70a08231",
		"checkpoints(address,uint32)": "f1127ed8",
		"clock()": "91ddadf4",
		"decimals()": "313ce567",
		"decreaseAllowance(address,uint256)": "a457c2d7",
		"delegate(address)": "5c19a95c",
		"delegateBySig(address,uint256,uint256,uint8,bytes32,bytes32)": "c3cda520",
		"delegates(address)": "587cde1e",
		"eip712Domain()": "84b0196e",
		"getPastTotalSupply(uint256)": "8e539e8c",
		"getPastVotes(address,uint256)": "3a46b1a8",
		"getVotes(address)": "9ab24eb0",
		"increaseAllowance(address,uint256)": "39509351",
		"mint(address,uint256)": "40c10f19",
		"name()": "06fdde03",
		"nonces(address)": "7ecebe00",
		"numCheckpoints(address)": "6fcfff45",
		"permit(address,address,uint256,uint256,uint8,bytes32,bytes32)": "d505accf",
		"symbol()": "95d89b41",
		"totalSupply()": "18160ddd",
		"transfer(address,uint256)": "a9059cbb",
		"transferFrom(address,address,uint256)": "23b872dd"
	},
	"id": 59
}