{"contracts/AIProposalAdvisor.sol":{"AIProposalAdvisor":{"abi":[{"inputs":[{"internalType":"address","name":"_oracleAddress","type":"address"},{"internalType":"string","name":"_instruction","type":"string"},{"internalType":"string","name":"_name","type":"string"}],"stateMutability":"nonpayable","type":"constructor"},{"anonymous":false,"inputs":[{"indexed":true,"internalType":"address","name":"newOracleAddress","type":"address"}],"name":"OracleAddressUpdated","type":"event"},{"inputs":[{"internalType":"uint256","name":"proposalId","type":"uint256"}],"name":"getMessageHistoryContents","outputs":[{"internalType":"string[]","name":"","type":"string[]"}],"stateMutability":"view","type":"function"},{"inputs":[{"internalType":"uint256","name":"proposalId","type":"uint256"}],"name":"getMessageHistoryRoles","outputs":[{"internalType":"string[]","name":"","type":"string[]"}],"stateMutability":"pure","type":"function"},{"inputs":[{"internalType":"uint256","name":"proposalId","type":"uint256"}],"name":"getProposalAdvice","outputs":[{"internalType":"string","name":"","type":"string"}],"stateMutability":"view","type":"function"},{"inputs":[],"name":"getProposalCount","outputs":[{"internalType":"uint256","name":"","type":"uint256"}],"stateMutability":"view","type":"function"},{"inputs":[],"name":"instruction","outputs":[{"internalType":"string","name":"","type":"string"}],"stateMutability":"view","type":"function"},{"inputs":[],"name":"maxIterations","outputs":[{"internalType":"uint256","name":"","type":"uint256"}],"stateMutability":"view","type":"function"},{"inputs":[],"name":"name","outputs":[{"internalType":"string","name":"","type":"string"}],"stateMutability":"view","type":"function"},{"inputs":[{"internalType":"uint256","name":"index","type":"uint256"},{"internalType":"string","name":"response","type":"string"},{"internalType":"string","name":"","type":"string"}],"name":"onOracleLlmResponse","outputs":[],"stateMutability":"nonpayable","type":"function"},{"inputs":[],"name":"oracleAddress","outputs":[{"internalType":"address","name":"","type":"address"}],"stateMutability":"view","type":"function"},{"inputs":[{"internalType":"uint256","name":"","type":"uint256"}],"name":"proposals","outputs":[{"internalType":"uint256","name":"id","type":"uint256"},{"internalType":"string","name":"description","type":"string"},{"internalType":"string","name":"summarizedDescription","type":"string"},{"internalType":"string","name":"advice","type":"string"},{"internalType":"uint256","name":"iteration","type":"uint256"},{"internalType":"bool","name":"isVoted","type":"bool"},{"internalType":"bool","name":"isResolved","type":"bool"}],"stateMutability":"view","type":"function"},{"inputs":[{"internalType":"address","name":"newOracleAddress","type":"address"}],"name":"setOracleAddress","outputs":[],"stateMutability":"nonpayable","type":"function"},{"inputs":[{"internalType":"uint256","name":"proposalId","type":"uint256"}],"name":"setVoted","outputs":[],"stateMutability":"nonpayable","type":"function"},{"inputs":[{"internalType":"string[]","name":"proposalDescriptions","type":"string[]"},{"internalType":"uint256[]","name":"proposalIds","type":"uint256[]"}],"name":"submitProposals","outputs":[],"stateMutability":"nonpayable","type":"function"}],"evm":{"bytecode":{"linkReferences":{},"object":"60a06040523462000368576200175e803803806200001d816200036d565b9283398101606082820312620003685781516001600160a01b0381169290839003620003685760208181015190926001600160401b039290918381116200036857826200006c918301620003a9565b9160408201518481116200036857620000869201620003a9565b90600560805260018060a01b031991600095338488541617875560019384541617835581518481116200035457600254928484811c9416801562000349575b8785101462000335578190601f94858111620002e1575b5087908583116001146200027b5789926200026f575b5050600019600383901b1c191690841b176002555b80519384116200025b5760039586548481811c9116801562000250575b878210146200023c57838111620001f4575b50859285116001146200018e57939450849291908362000182575b50501b9160001990841b1c19161790555b60405161134290816200041c8239608051818181610aa101526111440152f35b01519250388062000151565b86815285812093958591601f198316915b88838310620001d95750505010620001c0575b505050811b01905562000162565b015160001983861b60f8161c19169055388080620001b2565b8587015188559096019594850194879350908101906200019f565b8782528682208480880160051c82019289891062000232575b0160051c019085905b8281106200022657505062000136565b83815501859062000216565b925081926200020d565b634e487b7160e01b82526022600452602482fd5b90607f169062000124565b634e487b7160e01b86526041600452602486fd5b015190503880620000f2565b60028a52888a208794509190601f1984168b5b8b828210620002ca5750508411620002b0575b505050811b0160025562000107565b015160001960f88460031b161c19169055388080620002a1565b8385015186558a979095019493840193016200028e565b909150600289528789208580850160051c8201928a86106200032b575b918891869594930160051c01915b8281106200031c575050620000dc565b8b81558594508891016200030c565b92508192620002fe565b634e487b7160e01b88526022600452602488fd5b93607f1693620000c5565b634e487b7160e01b87526041600452602487fd5b600080fd5b6040519190601f01601f191682016001600160401b038111838210176200039357604052565b634e487b7160e01b600052604160045260246000fd5b919080601f84011215620003685782516001600160401b0381116200039357602090620003df601f8201601f191683016200036d565b92818452828287010111620003685760005b8181106200040757508260009394955001015290565b8581018301518482018401528201620003f156fe6080604052600436101561001257600080fd5b60003560e01c8063013cf08b14610b9257806306fdde0314610ac4578063387f504a14610a895780634c69c00f146109e45780635e486e0f146109c85780638581a0311461096657806392eca6b4146102b55780639748f50714610282578063a1b67ed1146101db578063a89ae4ba146101b2578063c08cc02d14610194578063eb17429a1461010f5763ed6e39e5146100ab57600080fd5b3461010a57602036600319011261010a576101066100c761125a565b6040516100d381610cf1565b600681526573797374656d60d01b60208201526100ef82610fb5565b526100f981610fb5565b5060405191829182610f44565b0390f35b600080fd5b3461010a5760208060031936011261010a576101069061012d61125a565b9061018b61013c600435610c4b565b5091610152600161014b610d2d565b9401610deb565b92604051938161016b8693518092868087019101610e8f565b820161017f82518093868085019101610e8f565b01038084520182610d0c565b6100ef82610fb5565b3461010a57600036600319011261010a576020600454604051908152f35b3461010a57600036600319011261010a576001546040516001600160a01b039091168152602090f35b3461010a57606036600319011261010a576001600160401b0360243581811161010a5761020c903690600401610eee565b9060443590811161010a57610225903690600401610eee565b506001546001600160a01b031633036102465761024490600435610fd6565b005b60405162461bcd60e51b815260206004820152601460248201527343616c6c6572206973206e6f74206f7261636c6560601b6044820152606490fd5b3461010a57602036600319011261010a576101066102a1600435611210565b604051918291602083526020830190610eb2565b3461010a57604036600319011261010a576004356001600160401b03811161010a573660238201121561010a5780600401356102f081610ed7565b916102fe6040519384610d0c565b8183526024602084019260051b8201019036821161010a5760248101925b82841061093757602435856001600160401b03821161010a573660238301121561010a5781600401359161034f83610ed7565b9261035d6040519485610d0c565b8084526024602085019160051b8301019136831161010a57602401905b8282106109275750505080518251036108bc57906000915b8051831015610244576103a58383610fc2565b51926103b18183610fc2565b51936040519060e082018281106001600160401b038211176106fd576040528152602081019485526040516103e581610cd6565b6000815260408201526040516103fa81610cd6565b60008152606082015260006080820152600060a0820152600060c0820152600454680100000000000000008110156106fd5780600161043c9201600455610c4b565b9590956108a65781518655519485516001600160401b0381116106fd576104666001830154610c9c565b601f811161085f575b506020601f82116001146107ee57819293949596976000926107e3575b50508160011b916000199060031b1c19161760018201555b60408201518051906001600160401b0382116106fd5781906104c96002850154610c9c565b601f8111610790575b50602090601f831160011461071e57600092610713575b50508160011b916000199060031b1c19161760028201555b60608201518051906001600160401b0382116106fd576105246003840154610c9c565b601f81116106b6575b50602090601f831160011461064357600593929160009183610638575b50508160011b916000199060031b1c19161760038201555b60808301516004820155019060a081015115159060ff61ff0060c08554930151151560081b1692169061ffff19161717905560018060a01b036001541660045460001981019081116106225760009160246020926040519485938492636c4e899160e11b845260048401525af18015610616576105eb575b506105e490610fa6565b9190610392565b602090813d831161060f575b6106018183610d0c565b8101031261010a57836105da565b503d6105f7565b6040513d6000823e3d90fd5b634e487b7160e01b600052601160045260246000fd5b01519050888061054a565b906003840160005260206000209160005b601f198516811061069e575091839160019360059695601f19811610610685575b505050811b016003820155610562565b015160001960f88460031b161c19169055888080610675565b91926020600181928685015181550194019201610654565b600384016000526020600020601f840160051c8101602085106106f6575b601f830160051c820181106106ea57505061052d565b600081556001016106d4565b50806106d4565b634e487b7160e01b600052604160045260246000fd5b0151905087806104e9565b9250600284016000526020600020906000935b601f1984168510610775576001945083601f1981161061075c575b505050811b016002820155610501565b015160001960f88460031b161c1916905587808061074c565b81810151835560209485019460019093019290910190610731565b909150600284016000526020600020601f840160051c8101602085106107dc575b90849392915b601f830160051c820181106107cd5750506104d2565b600081558594506001016107b7565b50806107b1565b01519050878061048c565b6001830160005260206000209060005b601f19841681106108475750600193949596979883601f1981161061082e575b505050811b0160018201556104a4565b015160001960f88460031b161c1916905587808061081e565b9091602060018192858d0151815501930191016107fe565b600183016000526020600020601f830160051c81016020841061089f575b601f830160051c8201811061089357505061046f565b6000815560010161087d565b508061087d565b634e487b7160e01b600052600060045260246000fd5b60405162461bcd60e51b815260206004820152603760248201527f50726f706f73616c206465736372697074696f6e7320616e6420494473206d7560448201527f73742068617665207468652073616d65206c656e6774680000000000000000006064820152608490fd5b813581526020918201910161037a565b83356001600160401b03811161010a5760209161095b839260243691870101610eee565b81520193019261031c565b3461010a57602036600319011261010a5760043560005b6004548110156109c35780826109956109a193610c4b565b5054146109a657610fa6565b61097d565b60056109b182610c4b565b5001805460ff19166001179055610fa6565b6111d6565b3461010a57600036600319011261010a576101066102a1610d2d565b3461010a57602036600319011261010a576004356001600160a01b038181169182900361010a57600054163303610a4e57600180546001600160a01b031916821790557f107a9fafffb7ac890f780879e423760c9ffea8dcee8045681f40f542aede2cb8600080a2005b60405162461bcd60e51b815260206004820152601360248201527221b0b63632b91034b9903737ba1037bbb732b960691b6044820152606490fd5b3461010a57600036600319011261010a5760206040517f00000000000000000000000000000000000000000000000000000000000000008152f35b3461010a57600036600319011261010a576040516000600354610ae681610c9c565b80845290600190818116908115610b6b5750600114610b10575b610106846102a181860382610d0c565b6003600090815292507fc2575a0e9e593c00f959f8c92f12db2869c3395a3b0502d05e2516446f71f85b5b828410610b535750505081016020016102a182610b00565b80546020858701810191909152909301928101610b3b565b60ff191660208087019190915292151560051b850190920192506102a19150839050610b00565b3461010a57602036600319011261010a5760043560045481101561010a57610bb990610c4b565b508054610bc860018301610deb565b9160ff610bd760028301610deb565b610c2c610be660038501610deb565b610c1e6005600487015496015493610c10604051998a998a5260e060208b015260e08a0190610eb2565b9088820360408a0152610eb2565b908682036060880152610eb2565b926080850152818116151560a085015260081c16151560c08301520390f35b600454811015610c86576006906004600052027f8a35acfbc15ff81a39ae7d344fd709f28e8600b4aa8c65c6b64bfe7fe36bd19b0190600090565b634e487b7160e01b600052603260045260246000fd5b90600182811c92168015610ccc575b6020831014610cb657565b634e487b7160e01b600052602260045260246000fd5b91607f1691610cab565b602081019081106001600160401b038211176106fd57604052565b604081019081106001600160401b038211176106fd57604052565b90601f801991011681019081106001600160401b038211176106fd57604052565b6040519060008260025491610d4183610c9c565b80835292600190818116908115610dc95750600114610d6a575b50610d6892500383610d0c565b565b6002600090815291507f405787fa12a823e0f2b7631cc41b3ba8828b3321ca811111fa75cd3aa3bb5ace5b848310610dae5750610d68935050810160200138610d5b565b81935090816020925483858a01015201910190918592610d95565b905060209250610d6894915060ff191682840152151560051b82010138610d5b565b9060405191826000825492610dff84610c9c565b908184526001948581169081600014610e6c5750600114610e29575b5050610d6892500383610d0c565b9093915060005260209081600020936000915b818310610e54575050610d6893508201013880610e1b565b85548884018501529485019487945091830191610e3c565b915050610d6894506020925060ff191682840152151560051b8201013880610e1b565b60005b838110610ea25750506000910152565b8181015183820152602001610e92565b90602091610ecb81518092818552858086019101610e8f565b601f01601f1916010190565b6001600160401b0381116106fd5760051b60200190565b81601f8201121561010a578035906001600160401b0382116106fd5760405192610f22601f8401601f191660200185610d0c565b8284526020838301011161010a57816000926020809301838601378301015290565b602080820190808352835180925260408301928160408460051b8301019501936000915b848310610f785750505050505090565b9091929394958480610f96600193603f198682030187528a51610eb2565b9801930193019194939290610f68565b60001981146106225760010190565b805115610c865760200190565b8051821015610c865760209160051b010190565b919091610fe28361128f565b1561111b575b61100d816005610ff9600394610c4b565b5001805461ff001916610100179055610c4b565b500182516001600160401b0381116106fd576110298254610c9c565b601f81116110d3575b50602080601f831160011461106f575081929394600092611064575b50508160011b916000199060031b1c1916179055565b01519050388061104e565b90601f198316958460005282600020926000905b8882106110bb575050836001959697106110a2575b505050811b019055565b015160001960f88460031b161c19169055388080611098565b80600185968294968601518155019501930190611083565b600083815260208120601f840160051c81019260208510611111575b601f0160051c01915b828110611106575050611032565b8181556001016110f8565b90925082906110ef565b600461112682610c4b565b50016111328154610fa6565b9055600461113f82610c4b565b5001547f00000000000000000000000000000000000000000000000000000000000000001115610fe8576000919250602090602461118760018060a01b036001541692610c4b565b50546040519485938492636c4e899160e11b845260048401525af18015610616576111af5750565b602090813d81116111cf575b6111c58183610d0c565b8101031261010a57565b503d6111bb565b60405162461bcd60e51b8152602060048201526012602482015271141c9bdc1bdcd85b081b9bdd08199bdd5b9960721b6044820152606490fd5b6004549060005b828110156111d6578161122982610c4b565b50541461123e5761123990610fa6565b611217565b61125792506003915061125090610c4b565b5001610deb565b90565b60405161126681610cf1565b600181528060005b6020808210156112895790606060209282850101520161126e565b50505090565b805160001981018181116106225782511115610c8657601f910101516001600160f81b031916605960f81b81149081156112fe575b81156112f0575b81156112e2575b50156112dd57600190565b600090565b603760f91b149050386112d2565b607960f81b811491506112cb565b602760f91b811491506112c456fea2646970667358221220272a85e8b80309906b99d6cb3c3e85981ffc10c39eb67a7d49c9241ba283e5ae64736f6c63430008140033","opcodes":"PUSH1 0xA0 PUSH1 0x40 MSTORE CALLVALUE PUSH3 0x368 JUMPI PUSH3 0x175E DUP1 CODESIZE SUB DUP1 PUSH3 0x1D DUP2 PUSH3 0x36D JUMP JUMPDEST SWAP3 DUP4 CODECOPY DUP2 ADD PUSH1 0x60 DUP3 DUP3 SUB SLT PUSH3 0x368 JUMPI DUP2 MLOAD PUSH1 0x1 PUSH1 0x1 PUSH1 0xA0 SHL SUB DUP2 AND SWAP3 SWAP1 DUP4 SWAP1 SUB PUSH3 0x368 JUMPI PUSH1 0x20 DUP2 DUP2 ADD MLOAD SWAP1 SWAP3 PUSH1 0x1 PUSH1 0x1 PUSH1 0x40 SHL SUB SWAP3 SWAP1 SWAP2 DUP4 DUP2 GT PUSH3 0x368 JUMPI DUP3 PUSH3 0x6C SWAP2 DUP4 ADD PUSH3 0x3A9 JUMP JUMPDEST SWAP2 PUSH1 0x40 DUP3 ADD MLOAD DUP5 DUP2 GT PUSH3 0x368 JUMPI PUSH3 0x86 SWAP3 ADD PUSH3 0x3A9 JUMP JUMPDEST SWAP1 PUSH1 0x5 PUSH1 0x80 MSTORE PUSH1 0x1 DUP1 PUSH1 0xA0 SHL SUB NOT SWAP2 PUSH1 0x0 SWAP6 CALLER DUP5 DUP9 SLOAD AND OR DUP8 SSTORE PUSH1 0x1 SWAP4 DUP5 SLOAD AND OR DUP4 SSTORE DUP2 MLOAD DUP5 DUP2 GT PUSH3 0x354 JUMPI PUSH1 0x2 SLOAD SWAP3 DUP5 DUP5 DUP2 SHR SWAP5 AND DUP1 ISZERO PUSH3 0x349 JUMPI JUMPDEST DUP8 DUP6 LT EQ PUSH3 0x335 JUMPI DUP2 SWAP1 PUSH1 0x1F SWAP5 DUP6 DUP2 GT PUSH3 0x2E1 JUMPI JUMPDEST POP DUP8 SWAP1 DUP6 DUP4 GT PUSH1 0x1 EQ PUSH3 0x27B JUMPI DUP10 SWAP3 PUSH3 0x26F JUMPI JUMPDEST POP POP PUSH1 0x0 NOT PUSH1 0x3 DUP4 SWAP1 SHL SHR NOT AND SWAP1 DUP5 SHL OR PUSH1 0x2 SSTORE JUMPDEST DUP1 MLOAD SWAP4 DUP5 GT PUSH3 0x25B JUMPI PUSH1 0x3 SWAP6 DUP7 SLOAD DUP5 DUP2 DUP2 SHR SWAP2 AND DUP1 ISZERO PUSH3 0x250 JUMPI JUMPDEST DUP8 DUP3 LT EQ PUSH3 0x23C JUMPI DUP4 DUP2 GT PUSH3 0x1F4 JUMPI JUMPDEST POP DUP6 SWAP3 DUP6 GT PUSH1 0x1 EQ PUSH3 0x18E JUMPI SWAP4 SWAP5 POP DUP5 SWAP3 SWAP2 SWAP1 DUP4 PUSH3 0x182 JUMPI JUMPDEST POP POP SHL SWAP2 PUSH1 0x0 NOT SWAP1 DUP5 SHL SHR NOT AND OR SWAP1 SSTORE JUMPDEST PUSH1 0x40 MLOAD PUSH2 0x1342 SWAP1 DUP2 PUSH3 0x41C DUP3 CODECOPY PUSH1 0x80 MLOAD DUP2 DUP2 DUP2 PUSH2 0xAA1 ADD MSTORE PUSH2 0x1144 ADD MSTORE RETURN JUMPDEST ADD MLOAD SWAP3 POP CODESIZE DUP1 PUSH3 0x151 JUMP JUMPDEST DUP7 DUP2 MSTORE DUP6 DUP2 KECCAK256 SWAP4 SWAP6 DUP6 SWAP2 PUSH1 0x1F NOT DUP4 AND SWAP2 JUMPDEST DUP9 DUP4 DUP4 LT PUSH3 0x1D9 JUMPI POP POP POP LT PUSH3 0x1C0 JUMPI JUMPDEST POP POP POP DUP2 SHL ADD SWAP1 SSTORE PUSH3 0x162 JUMP JUMPDEST ADD MLOAD PUSH1 0x0 NOT DUP4 DUP7 SHL PUSH1 0xF8 AND SHR NOT AND SWAP1 SSTORE CODESIZE DUP1 DUP1 PUSH3 0x1B2 JUMP JUMPDEST DUP6 DUP8 ADD MLOAD DUP9 SSTORE SWAP1 SWAP7 ADD SWAP6 SWAP5 DUP6 ADD SWAP5 DUP8 SWAP4 POP SWAP1 DUP2 ADD SWAP1 PUSH3 0x19F JUMP JUMPDEST DUP8 DUP3 MSTORE DUP7 DUP3 KECCAK256 DUP5 DUP1 DUP9 ADD PUSH1 0x5 SHR DUP3 ADD SWAP3 DUP10 DUP10 LT PUSH3 0x232 JUMPI JUMPDEST ADD PUSH1 0x5 SHR ADD SWAP1 DUP6 SWAP1 JUMPDEST DUP3 DUP2 LT PUSH3 0x226 JUMPI POP POP PUSH3 0x136 JUMP JUMPDEST DUP4 DUP2 SSTORE ADD DUP6 SWAP1 PUSH3 0x216 JUMP JUMPDEST SWAP3 POP DUP2 SWAP3 PUSH3 0x20D JUMP JUMPDEST PUSH4 0x4E487B71 PUSH1 0xE0 SHL DUP3 MSTORE PUSH1 0x22 PUSH1 0x4 MSTORE PUSH1 0x24 DUP3 REVERT JUMPDEST SWAP1 PUSH1 0x7F AND SWAP1 PUSH3 0x124 JUMP JUMPDEST PUSH4 0x4E487B71 PUSH1 0xE0 SHL DUP7 MSTORE PUSH1 0x41 PUSH1 0x4 MSTORE PUSH1 0x24 DUP7 REVERT JUMPDEST ADD MLOAD SWAP1 POP CODESIZE DUP1 PUSH3 0xF2 JUMP JUMPDEST PUSH1 0x2 DUP11 MSTORE DUP9 DUP11 KECCAK256 DUP8 SWAP5 POP SWAP2 SWAP1 PUSH1 0x1F NOT DUP5 AND DUP12 JUMPDEST DUP12 DUP3 DUP3 LT PUSH3 0x2CA JUMPI POP POP DUP5 GT PUSH3 0x2B0 JUMPI JUMPDEST POP POP POP DUP2 SHL ADD PUSH1 0x2 SSTORE PUSH3 0x107 JUMP JUMPDEST ADD MLOAD PUSH1 0x0 NOT PUSH1 0xF8 DUP5 PUSH1 0x3 SHL AND SHR NOT AND SWAP1 SSTORE CODESIZE DUP1 DUP1 PUSH3 0x2A1 JUMP JUMPDEST DUP4 DUP6 ADD MLOAD DUP7 SSTORE DUP11 SWAP8 SWAP1 SWAP6 ADD SWAP5 SWAP4 DUP5 ADD SWAP4 ADD PUSH3 0x28E JUMP JUMPDEST SWAP1 SWAP2 POP PUSH1 0x2 DUP10 MSTORE DUP8 DUP10 KECCAK256 DUP6 DUP1 DUP6 ADD PUSH1 0x5 SHR DUP3 ADD SWAP3 DUP11 DUP7 LT PUSH3 0x32B JUMPI JUMPDEST SWAP2 DUP9 SWAP2 DUP7 SWAP6 SWAP5 SWAP4 ADD PUSH1 0x5 SHR ADD SWAP2 JUMPDEST DUP3 DUP2 LT PUSH3 0x31C JUMPI POP POP PUSH3 0xDC JUMP JUMPDEST DUP12 DUP2 SSTORE DUP6 SWAP5 POP DUP9 SWAP2 ADD PUSH3 0x30C JUMP JUMPDEST SWAP3 POP DUP2 SWAP3 PUSH3 0x2FE JUMP JUMPDEST PUSH4 0x4E487B71 PUSH1 0xE0 SHL DUP9 MSTORE PUSH1 0x22 PUSH1 0x4 MSTORE PUSH1 0x24 DUP9 REVERT JUMPDEST SWAP4 PUSH1 0x7F AND SWAP4 PUSH3 0xC5 JUMP JUMPDEST PUSH4 0x4E487B71 PUSH1 0xE0 SHL DUP8 MSTORE PUSH1 0x41 PUSH1 0x4 MSTORE PUSH1 0x24 DUP8 REVERT JUMPDEST PUSH1 0x0 DUP1 REVERT JUMPDEST PUSH1 0x40 MLOAD SWAP2 SWAP1 PUSH1 0x1F ADD PUSH1 0x1F NOT AND DUP3 ADD PUSH1 0x1 PUSH1 0x1 PUSH1 0x40 SHL SUB DUP2 GT DUP4 DUP3 LT OR PUSH3 0x393 JUMPI PUSH1 0x40 MSTORE JUMP JUMPDEST PUSH4 0x4E487B71 PUSH1 0xE0 SHL PUSH1 0x0 MSTORE PUSH1 0x41 PUSH1 0x4 MSTORE PUSH1 0x24 PUSH1 0x0 REVERT JUMPDEST SWAP2 SWAP1 DUP1 PUSH1 0x1F DUP5 ADD SLT ISZERO PUSH3 0x368 JUMPI DUP3 MLOAD PUSH1 0x1 PUSH1 0x1 PUSH1 0x40 SHL SUB DUP2 GT PUSH3 0x393 JUMPI PUSH1 0x20 SWAP1 PUSH3 0x3DF PUSH1 0x1F DUP3 ADD PUSH1 0x1F NOT AND DUP4 ADD PUSH3 0x36D JUMP JUMPDEST SWAP3 DUP2 DUP5 MSTORE DUP3 DUP3 DUP8 ADD ADD GT PUSH3 0x368 JUMPI PUSH1 0x0 JUMPDEST DUP2 DUP2 LT PUSH3 0x407 JUMPI POP DUP3 PUSH1 0x0 SWAP4 SWAP5 SWAP6 POP ADD ADD MSTORE SWAP1 JUMP JUMPDEST DUP6 DUP2 ADD DUP4 ADD MLOAD DUP5 DUP3 ADD DUP5 ADD MSTORE DUP3 ADD PUSH3 0x3F1 JUMP INVALID PUSH1 0x80 PUSH1 0x40 MSTORE PUSH1 0x4 CALLDATASIZE LT ISZERO PUSH2 0x12 JUMPI PUSH1 0x0 DUP1 REVERT JUMPDEST PUSH1 0x0 CALLDATALOAD PUSH1 0xE0 SHR DUP1 PUSH4 0x13CF08B EQ PUSH2 0xB92 JUMPI DUP1 PUSH4 0x6FDDE03 EQ PUSH2 0xAC4 JUMPI DUP1 PUSH4 0x387F504A EQ PUSH2 0xA89 JUMPI DUP1 PUSH4 0x4C69C00F EQ PUSH2 0x9E4 JUMPI DUP1 PUSH4 0x5E486E0F EQ PUSH2 0x9C8 JUMPI DUP1 PUSH4 0x8581A031 EQ PUSH2 0x966 JUMPI DUP1 PUSH4 0x92ECA6B4 EQ PUSH2 0x2B5 JUMPI DUP1 PUSH4 0x9748F507 EQ PUSH2 0x282 JUMPI DUP1 PUSH4 0xA1B67ED1 EQ PUSH2 0x1DB JUMPI DUP1 PUSH4 0xA89AE4BA EQ PUSH2 0x1B2 JUMPI DUP1 PUSH4 0xC08CC02D EQ PUSH2 0x194 JUMPI DUP1 PUSH4 0xEB17429A EQ PUSH2 0x10F JUMPI PUSH4 0xED6E39E5 EQ PUSH2 0xAB JUMPI PUSH1 0x0 DUP1 REVERT JUMPDEST CALLVALUE PUSH2 0x10A JUMPI PUSH1 0x20 CALLDATASIZE PUSH1 0x3 NOT ADD SLT PUSH2 0x10A JUMPI PUSH2 0x106 PUSH2 0xC7 PUSH2 0x125A JUMP JUMPDEST PUSH1 0x40 MLOAD PUSH2 0xD3 DUP2 PUSH2 0xCF1 JUMP JUMPDEST PUSH1 0x6 DUP2 MSTORE PUSH6 0x73797374656D PUSH1 0xD0 SHL PUSH1 0x20 DUP3 ADD MSTORE PUSH2 0xEF DUP3 PUSH2 0xFB5 JUMP JUMPDEST MSTORE PUSH2 0xF9 DUP2 PUSH2 0xFB5 JUMP JUMPDEST POP PUSH1 0x40 MLOAD SWAP2 DUP3 SWAP2 DUP3 PUSH2 0xF44 JUMP JUMPDEST SUB SWAP1 RETURN JUMPDEST PUSH1 0x0 DUP1 REVERT JUMPDEST CALLVALUE PUSH2 0x10A JUMPI PUSH1 0x20 DUP1 PUSH1 0x3 NOT CALLDATASIZE ADD SLT PUSH2 0x10A JUMPI PUSH2 0x106 SWAP1 PUSH2 0x12D PUSH2 0x125A JUMP JUMPDEST SWAP1 PUSH2 0x18B PUSH2 0x13C PUSH1 0x4 CALLDATALOAD PUSH2 0xC4B JUMP JUMPDEST POP SWAP2 PUSH2 0x152 PUSH1 0x1 PUSH2 0x14B PUSH2 0xD2D JUMP JUMPDEST SWAP5 ADD PUSH2 0xDEB JUMP JUMPDEST SWAP3 PUSH1 0x40 MLOAD SWAP4 DUP2 PUSH2 0x16B DUP7 SWAP4 MLOAD DUP1 SWAP3 DUP7 DUP1 DUP8 ADD SWAP2 ADD PUSH2 0xE8F JUMP JUMPDEST DUP3 ADD PUSH2 0x17F DUP3 MLOAD DUP1 SWAP4 DUP7 DUP1 DUP6 ADD SWAP2 ADD PUSH2 0xE8F JUMP JUMPDEST ADD SUB DUP1 DUP5 MSTORE ADD DUP3 PUSH2 0xD0C JUMP JUMPDEST PUSH2 0xEF DUP3 PUSH2 0xFB5 JUMP JUMPDEST CALLVALUE PUSH2 0x10A JUMPI PUSH1 0x0 CALLDATASIZE PUSH1 0x3 NOT ADD SLT PUSH2 0x10A JUMPI PUSH1 0x20 PUSH1 0x4 SLOAD PUSH1 0x40 MLOAD SWAP1 DUP2 MSTORE RETURN JUMPDEST CALLVALUE PUSH2 0x10A JUMPI PUSH1 0x0 CALLDATASIZE PUSH1 0x3 NOT ADD SLT PUSH2 0x10A JUMPI PUSH1 0x1 SLOAD PUSH1 0x40 MLOAD PUSH1 0x1 PUSH1 0x1 PUSH1 0xA0 SHL SUB SWAP1 SWAP2 AND DUP2 MSTORE PUSH1 0x20 SWAP1 RETURN JUMPDEST CALLVALUE PUSH2 0x10A JUMPI PUSH1 0x60 CALLDATASIZE PUSH1 0x3 NOT ADD SLT PUSH2 0x10A JUMPI PUSH1 0x1 PUSH1 0x1 PUSH1 0x40 SHL SUB PUSH1 0x24 CALLDATALOAD DUP2 DUP2 GT PUSH2 0x10A JUMPI PUSH2 0x20C SWAP1 CALLDATASIZE SWAP1 PUSH1 0x4 ADD PUSH2 0xEEE JUMP JUMPDEST SWAP1 PUSH1 0x44 CALLDATALOAD SWAP1 DUP2 GT PUSH2 0x10A JUMPI PUSH2 0x225 SWAP1 CALLDATASIZE SWAP1 PUSH1 0x4 ADD PUSH2 0xEEE JUMP JUMPDEST POP PUSH1 0x1 SLOAD PUSH1 0x1 PUSH1 0x1 PUSH1 0xA0 SHL SUB AND CALLER SUB PUSH2 0x246 JUMPI PUSH2 0x244 SWAP1 PUSH1 0x4 CALLDATALOAD PUSH2 0xFD6 JUMP JUMPDEST STOP JUMPDEST PUSH1 0x40 MLOAD PUSH3 0x461BCD PUSH1 0xE5 SHL DUP2 MSTORE PUSH1 0x20 PUSH1 0x4 DUP3 ADD MSTORE PUSH1 0x14 PUSH1 0x24 DUP3 ADD MSTORE PUSH20 0x43616C6C6572206973206E6F74206F7261636C65 PUSH1 0x60 SHL PUSH1 0x44 DUP3 ADD MSTORE PUSH1 0x64 SWAP1 REVERT JUMPDEST CALLVALUE PUSH2 0x10A JUMPI PUSH1 0x20 CALLDATASIZE PUSH1 0x3 NOT ADD SLT PUSH2 0x10A JUMPI PUSH2 0x106 PUSH2 0x2A1 PUSH1 0x4 CALLDATALOAD PUSH2 0x1210 JUMP JUMPDEST PUSH1 0x40 MLOAD SWAP2 DUP3 SWAP2 PUSH1 0x20 DUP4 MSTORE PUSH1 0x20 DUP4 ADD SWAP1 PUSH2 0xEB2 JUMP JUMPDEST CALLVALUE PUSH2 0x10A JUMPI PUSH1 0x40 CALLDATASIZE PUSH1 0x3 NOT ADD SLT PUSH2 0x10A JUMPI PUSH1 0x4 CALLDATALOAD PUSH1 0x1 PUSH1 0x1 PUSH1 0x40 SHL SUB DUP2 GT PUSH2 0x10A JUMPI CALLDATASIZE PUSH1 0x23 DUP3 ADD SLT ISZERO PUSH2 0x10A JUMPI DUP1 PUSH1 0x4 ADD CALLDATALOAD PUSH2 0x2F0 DUP2 PUSH2 0xED7 JUMP JUMPDEST SWAP2 PUSH2 0x2FE PUSH1 0x40 MLOAD SWAP4 DUP5 PUSH2 0xD0C JUMP JUMPDEST DUP2 DUP4 MSTORE PUSH1 0x24 PUSH1 0x20 DUP5 ADD SWAP3 PUSH1 0x5 SHL DUP3 ADD ADD SWAP1 CALLDATASIZE DUP3 GT PUSH2 0x10A JUMPI PUSH1 0x24 DUP2 ADD SWAP3 JUMPDEST DUP3 DUP5 LT PUSH2 0x937 JUMPI PUSH1 0x24 CALLDATALOAD DUP6 PUSH1 0x1 PUSH1 0x1 PUSH1 0x40 SHL SUB DUP3 GT PUSH2 0x10A JUMPI CALLDATASIZE PUSH1 0x23 DUP4 ADD SLT ISZERO PUSH2 0x10A JUMPI DUP2 PUSH1 0x4 ADD CALLDATALOAD SWAP2 PUSH2 0x34F DUP4 PUSH2 0xED7 JUMP JUMPDEST SWAP3 PUSH2 0x35D PUSH1 0x40 MLOAD SWAP5 DUP6 PUSH2 0xD0C JUMP JUMPDEST DUP1 DUP5 MSTORE PUSH1 0x24 PUSH1 0x20 DUP6 ADD SWAP2 PUSH1 0x5 SHL DUP4 ADD ADD SWAP2 CALLDATASIZE DUP4 GT PUSH2 0x10A JUMPI PUSH1 0x24 ADD SWAP1 JUMPDEST DUP3 DUP3 LT PUSH2 0x927 JUMPI POP POP POP DUP1 MLOAD DUP3 MLOAD SUB PUSH2 0x8BC JUMPI SWAP1 PUSH1 0x0 SWAP2 JUMPDEST DUP1 MLOAD DUP4 LT ISZERO PUSH2 0x244 JUMPI PUSH2 0x3A5 DUP4 DUP4 PUSH2 0xFC2 JUMP JUMPDEST MLOAD SWAP3 PUSH2 0x3B1 DUP2 DUP4 PUSH2 0xFC2 JUMP JUMPDEST MLOAD SWAP4 PUSH1 0x40 MLOAD SWAP1 PUSH1 0xE0 DUP3 ADD DUP3 DUP2 LT PUSH1 0x1 PUSH1 0x1 PUSH1 0x40 SHL SUB DUP3 GT OR PUSH2 0x6FD JUMPI PUSH1 0x40 MSTORE DUP2 MSTORE PUSH1 0x20 DUP2 ADD SWAP5 DUP6 MSTORE PUSH1 0x40 MLOAD PUSH2 0x3E5 DUP2 PUSH2 0xCD6 JUMP JUMPDEST PUSH1 0x0 DUP2 MSTORE PUSH1 0x40 DUP3 ADD MSTORE PUSH1 0x40 MLOAD PUSH2 0x3FA DUP2 PUSH2 0xCD6 JUMP JUMPDEST PUSH1 0x0 DUP2 MSTORE PUSH1 0x60 DUP3 ADD MSTORE PUSH1 0x0 PUSH1 0x80 DUP3 ADD MSTORE PUSH1 0x0 PUSH1 0xA0 DUP3 ADD MSTORE PUSH1 0x0 PUSH1 0xC0 DUP3 ADD MSTORE PUSH1 0x4 SLOAD PUSH9 0x10000000000000000 DUP2 LT ISZERO PUSH2 0x6FD JUMPI DUP1 PUSH1 0x1 PUSH2 0x43C SWAP3 ADD PUSH1 0x4 SSTORE PUSH2 0xC4B JUMP JUMPDEST SWAP6 SWAP1 SWAP6 PUSH2 0x8A6 JUMPI DUP2 MLOAD DUP7 SSTORE MLOAD SWAP5 DUP6 MLOAD PUSH1 0x1 PUSH1 0x1 PUSH1 0x40 SHL SUB DUP2 GT PUSH2 0x6FD JUMPI PUSH2 0x466 PUSH1 0x1 DUP4 ADD SLOAD PUSH2 0xC9C JUMP JUMPDEST PUSH1 0x1F DUP2 GT PUSH2 0x85F JUMPI JUMPDEST POP PUSH1 0x20 PUSH1 0x1F DUP3 GT PUSH1 0x1 EQ PUSH2 0x7EE JUMPI DUP2 SWAP3 SWAP4 SWAP5 SWAP6 SWAP7 SWAP8 PUSH1 0x0 SWAP3 PUSH2 0x7E3 JUMPI JUMPDEST POP POP DUP2 PUSH1 0x1 SHL SWAP2 PUSH1 0x0 NOT SWAP1 PUSH1 0x3 SHL SHR NOT AND OR PUSH1 0x1 DUP3 ADD SSTORE JUMPDEST PUSH1 0x40 DUP3 ADD MLOAD DUP1 MLOAD SWAP1 PUSH1 0x1 PUSH1 0x1 PUSH1 0x40 SHL SUB DUP3 GT PUSH2 0x6FD JUMPI DUP2 SWAP1 PUSH2 0x4C9 PUSH1 0x2 DUP6 ADD SLOAD PUSH2 0xC9C JUMP JUMPDEST PUSH1 0x1F DUP2 GT PUSH2 0x790 JUMPI JUMPDEST POP PUSH1 0x20 SWAP1 PUSH1 0x1F DUP4 GT PUSH1 0x1 EQ PUSH2 0x71E JUMPI PUSH1 0x0 SWAP3 PUSH2 0x713 JUMPI JUMPDEST POP POP DUP2 PUSH1 0x1 SHL SWAP2 PUSH1 0x0 NOT SWAP1 PUSH1 0x3 SHL SHR NOT AND OR PUSH1 0x2 DUP3 ADD SSTORE JUMPDEST PUSH1 0x60 DUP3 ADD MLOAD DUP1 MLOAD SWAP1 PUSH1 0x1 PUSH1 0x1 PUSH1 0x40 SHL SUB DUP3 GT PUSH2 0x6FD JUMPI PUSH2 0x524 PUSH1 0x3 DUP5 ADD SLOAD PUSH2 0xC9C JUMP JUMPDEST PUSH1 0x1F DUP2 GT PUSH2 0x6B6 JUMPI JUMPDEST POP PUSH1 0x20 SWAP1 PUSH1 0x1F DUP4 GT PUSH1 0x1 EQ PUSH2 0x643 JUMPI PUSH1 0x5 SWAP4 SWAP3 SWAP2 PUSH1 0x0 SWAP2 DUP4 PUSH2 0x638 JUMPI JUMPDEST POP POP DUP2 PUSH1 0x1 SHL SWAP2 PUSH1 0x0 NOT SWAP1 PUSH1 0x3 SHL SHR NOT AND OR PUSH1 0x3 DUP3 ADD SSTORE JUMPDEST PUSH1 0x80 DUP4 ADD MLOAD PUSH1 0x4 DUP3 ADD SSTORE ADD SWAP1 PUSH1 0xA0 DUP2 ADD MLOAD ISZERO ISZERO SWAP1 PUSH1 0xFF PUSH2 0xFF00 PUSH1 0xC0 DUP6 SLOAD SWAP4 ADD MLOAD ISZERO ISZERO PUSH1 0x8 SHL AND SWAP3 AND SWAP1 PUSH2 0xFFFF NOT AND OR OR SWAP1 SSTORE PUSH1 0x1 DUP1 PUSH1 0xA0 SHL SUB PUSH1 0x1 SLOAD AND PUSH1 0x4 SLOAD PUSH1 0x0 NOT DUP2 ADD SWAP1 DUP2 GT PUSH2 0x622 JUMPI PUSH1 0x0 SWAP2 PUSH1 0x24 PUSH1 0x20 SWAP3 PUSH1 0x40 MLOAD SWAP5 DUP6 SWAP4 DUP5 SWAP3 PUSH4 0x6C4E8991 PUSH1 0xE1 SHL DUP5 MSTORE PUSH1 0x4 DUP5 ADD MSTORE GAS CALL DUP1 ISZERO PUSH2 0x616 JUMPI PUSH2 0x5EB JUMPI JUMPDEST POP PUSH2 0x5E4 SWAP1 PUSH2 0xFA6 JUMP JUMPDEST SWAP2 SWAP1 PUSH2 0x392 JUMP JUMPDEST PUSH1 0x20 SWAP1 DUP2 RETURNDATASIZE DUP4 GT PUSH2 0x60F JUMPI JUMPDEST PUSH2 0x601 DUP2 DUP4 PUSH2 0xD0C JUMP JUMPDEST DUP2 ADD SUB SLT PUSH2 0x10A JUMPI DUP4 PUSH2 0x5DA JUMP JUMPDEST POP RETURNDATASIZE PUSH2 0x5F7 JUMP JUMPDEST PUSH1 0x40 MLOAD RETURNDATASIZE PUSH1 0x0 DUP3 RETURNDATACOPY RETURNDATASIZE SWAP1 REVERT JUMPDEST PUSH4 0x4E487B71 PUSH1 0xE0 SHL PUSH1 0x0 MSTORE PUSH1 0x11 PUSH1 0x4 MSTORE PUSH1 0x24 PUSH1 0x0 REVERT JUMPDEST ADD MLOAD SWAP1 POP DUP9 DUP1 PUSH2 0x54A JUMP JUMPDEST SWAP1 PUSH1 0x3 DUP5 ADD PUSH1 0x0 MSTORE PUSH1 0x20 PUSH1 0x0 KECCAK256 SWAP2 PUSH1 0x0 JUMPDEST PUSH1 0x1F NOT DUP6 AND DUP2 LT PUSH2 0x69E JUMPI POP SWAP2 DUP4 SWAP2 PUSH1 0x1 SWAP4 PUSH1 0x5 SWAP7 SWAP6 PUSH1 0x1F NOT DUP2 AND LT PUSH2 0x685 JUMPI JUMPDEST POP POP POP DUP2 SHL ADD PUSH1 0x3 DUP3 ADD SSTORE PUSH2 0x562 JUMP JUMPDEST ADD MLOAD PUSH1 0x0 NOT PUSH1 0xF8 DUP5 PUSH1 0x3 SHL AND SHR NOT AND SWAP1 SSTORE DUP9 DUP1 DUP1 PUSH2 0x675 JUMP JUMPDEST SWAP2 SWAP3 PUSH1 0x20 PUSH1 0x1 DUP2 SWAP3 DUP7 DUP6 ADD MLOAD DUP2 SSTORE ADD SWAP5 ADD SWAP3 ADD PUSH2 0x654 JUMP JUMPDEST PUSH1 0x3 DUP5 ADD PUSH1 0x0 MSTORE PUSH1 0x20 PUSH1 0x0 KECCAK256 PUSH1 0x1F DUP5 ADD PUSH1 0x5 SHR DUP2 ADD PUSH1 0x20 DUP6 LT PUSH2 0x6F6 JUMPI JUMPDEST PUSH1 0x1F DUP4 ADD PUSH1 0x5 SHR DUP3 ADD DUP2 LT PUSH2 0x6EA JUMPI POP POP PUSH2 0x52D JUMP JUMPDEST PUSH1 0x0 DUP2 SSTORE PUSH1 0x1 ADD PUSH2 0x6D4 JUMP JUMPDEST POP DUP1 PUSH2 0x6D4 JUMP JUMPDEST PUSH4 0x4E487B71 PUSH1 0xE0 SHL PUSH1 0x0 MSTORE PUSH1 0x41 PUSH1 0x4 MSTORE PUSH1 0x24 PUSH1 0x0 REVERT JUMPDEST ADD MLOAD SWAP1 POP DUP8 DUP1 PUSH2 0x4E9 JUMP JUMPDEST SWAP3 POP PUSH1 0x2 DUP5 ADD PUSH1 0x0 MSTORE PUSH1 0x20 PUSH1 0x0 KECCAK256 SWAP1 PUSH1 0x0 SWAP4 JUMPDEST PUSH1 0x1F NOT DUP5 AND DUP6 LT PUSH2 0x775 JUMPI PUSH1 0x1 SWAP5 POP DUP4 PUSH1 0x1F NOT DUP2 AND LT PUSH2 0x75C JUMPI JUMPDEST POP POP POP DUP2 SHL ADD PUSH1 0x2 DUP3 ADD SSTORE PUSH2 0x501 JUMP JUMPDEST ADD MLOAD PUSH1 0x0 NOT PUSH1 0xF8 DUP5 PUSH1 0x3 SHL AND SHR NOT AND SWAP1 SSTORE DUP8 DUP1 DUP1 PUSH2 0x74C JUMP JUMPDEST DUP2 DUP2 ADD MLOAD DUP4 SSTORE PUSH1 0x20 SWAP5 DUP6 ADD SWAP5 PUSH1 0x1 SWAP1 SWAP4 ADD SWAP3 SWAP1 SWAP2 ADD SWAP1 PUSH2 0x731 JUMP JUMPDEST SWAP1 SWAP2 POP PUSH1 0x2 DUP5 ADD PUSH1 0x0 MSTORE PUSH1 0x20 PUSH1 0x0 KECCAK256 PUSH1 0x1F DUP5 ADD PUSH1 0x5 SHR DUP2 ADD PUSH1 0x20 DUP6 LT PUSH2 0x7DC JUMPI JUMPDEST SWAP1 DUP5 SWAP4 SWAP3 SWAP2 JUMPDEST PUSH1 0x1F DUP4 ADD PUSH1 0x5 SHR DUP3 ADD DUP2 LT PUSH2 0x7CD JUMPI POP POP PUSH2 0x4D2 JUMP JUMPDEST PUSH1 0x0 DUP2 SSTORE DUP6 SWAP5 POP PUSH1 0x1 ADD PUSH2 0x7B7 JUMP JUMPDEST POP DUP1 PUSH2 0x7B1 JUMP JUMPDEST ADD MLOAD SWAP1 POP DUP8 DUP1 PUSH2 0x48C JUMP JUMPDEST PUSH1 0x1 DUP4 ADD PUSH1 0x0 MSTORE PUSH1 0x20 PUSH1 0x0 KECCAK256 SWAP1 PUSH1 0x0 JUMPDEST PUSH1 0x1F NOT DUP5 AND DUP2 LT PUSH2 0x847 JUMPI POP PUSH1 0x1 SWAP4 SWAP5 SWAP6 SWAP7 SWAP8 SWAP9 DUP4 PUSH1 0x1F NOT DUP2 AND LT PUSH2 0x82E JUMPI JUMPDEST POP POP POP DUP2 SHL ADD PUSH1 0x1 DUP3 ADD SSTORE PUSH2 0x4A4 JUMP JUMPDEST ADD MLOAD PUSH1 0x0 NOT PUSH1 0xF8 DUP5 PUSH1 0x3 SHL AND SHR NOT AND SWAP1 SSTORE DUP8 DUP1 DUP1 PUSH2 0x81E JUMP JUMPDEST SWAP1 SWAP2 PUSH1 0x20 PUSH1 0x1 DUP2 SWAP3 DUP6 DUP14 ADD MLOAD DUP2 SSTORE ADD SWAP4 ADD SWAP2 ADD PUSH2 0x7FE JUMP JUMPDEST PUSH1 0x1 DUP4 ADD PUSH1 0x0 MSTORE PUSH1 0x20 PUSH1 0x0 KECCAK256 PUSH1 0x1F DUP4 ADD PUSH1 0x5 SHR DUP2 ADD PUSH1 0x20 DUP5 LT PUSH2 0x89F JUMPI JUMPDEST PUSH1 0x1F DUP4 ADD PUSH1 0x5 SHR DUP3 ADD DUP2 LT PUSH2 0x893 JUMPI POP POP PUSH2 0x46F JUMP JUMPDEST PUSH1 0x0 DUP2 SSTORE PUSH1 0x1 ADD PUSH2 0x87D JUMP JUMPDEST POP DUP1 PUSH2 0x87D JUMP JUMPDEST PUSH4 0x4E487B71 PUSH1 0xE0 SHL PUSH1 0x0 MSTORE PUSH1 0x0 PUSH1 0x4 MSTORE PUSH1 0x24 PUSH1 0x0 REVERT JUMPDEST PUSH1 0x40 MLOAD PUSH3 0x461BCD PUSH1 0xE5 SHL DUP2 MSTORE PUSH1 0x20 PUSH1 0x4 DUP3 ADD MSTORE PUSH1 0x37 PUSH1 0x24 DUP3 ADD MSTORE PUSH32 0x50726F706F73616C206465736372697074696F6E7320616E6420494473206D75 PUSH1 0x44 DUP3 ADD MSTORE PUSH32 0x73742068617665207468652073616D65206C656E677468000000000000000000 PUSH1 0x64 DUP3 ADD MSTORE PUSH1 0x84 SWAP1 REVERT JUMPDEST DUP2 CALLDATALOAD DUP2 MSTORE PUSH1 0x20 SWAP2 DUP3 ADD SWAP2 ADD PUSH2 0x37A JUMP JUMPDEST DUP4 CALLDATALOAD PUSH1 0x1 PUSH1 0x1 PUSH1 0x40 SHL SUB DUP2 GT PUSH2 0x10A JUMPI PUSH1 0x20 SWAP2 PUSH2 0x95B DUP4 SWAP3 PUSH1 0x24 CALLDATASIZE SWAP2 DUP8 ADD ADD PUSH2 0xEEE JUMP JUMPDEST DUP2 MSTORE ADD SWAP4 ADD SWAP3 PUSH2 0x31C JUMP JUMPDEST CALLVALUE PUSH2 0x10A JUMPI PUSH1 0x20 CALLDATASIZE PUSH1 0x3 NOT ADD SLT PUSH2 0x10A JUMPI PUSH1 0x4 CALLDATALOAD PUSH1 0x0 JUMPDEST PUSH1 0x4 SLOAD DUP2 LT ISZERO PUSH2 0x9C3 JUMPI DUP1 DUP3 PUSH2 0x995 PUSH2 0x9A1 SWAP4 PUSH2 0xC4B JUMP JUMPDEST POP SLOAD EQ PUSH2 0x9A6 JUMPI PUSH2 0xFA6 JUMP JUMPDEST PUSH2 0x97D JUMP JUMPDEST PUSH1 0x5 PUSH2 0x9B1 DUP3 PUSH2 0xC4B JUMP JUMPDEST POP ADD DUP1 SLOAD PUSH1 0xFF NOT AND PUSH1 0x1 OR SWAP1 SSTORE PUSH2 0xFA6 JUMP JUMPDEST PUSH2 0x11D6 JUMP JUMPDEST CALLVALUE PUSH2 0x10A JUMPI PUSH1 0x0 CALLDATASIZE PUSH1 0x3 NOT ADD SLT PUSH2 0x10A JUMPI PUSH2 0x106 PUSH2 0x2A1 PUSH2 0xD2D JUMP JUMPDEST CALLVALUE PUSH2 0x10A JUMPI PUSH1 0x20 CALLDATASIZE PUSH1 0x3 NOT ADD SLT PUSH2 0x10A JUMPI PUSH1 0x4 CALLDATALOAD PUSH1 0x1 PUSH1 0x1 PUSH1 0xA0 SHL SUB DUP2 DUP2 AND SWAP2 DUP3 SWAP1 SUB PUSH2 0x10A JUMPI PUSH1 0x0 SLOAD AND CALLER SUB PUSH2 0xA4E JUMPI PUSH1 0x1 DUP1 SLOAD PUSH1 0x1 PUSH1 0x1 PUSH1 0xA0 SHL SUB NOT AND DUP3 OR SWAP1 SSTORE PUSH32 0x107A9FAFFFB7AC890F780879E423760C9FFEA8DCEE8045681F40F542AEDE2CB8 PUSH1 0x0 DUP1 LOG2 STOP JUMPDEST PUSH1 0x40 MLOAD PUSH3 0x461BCD PUSH1 0xE5 SHL DUP2 MSTORE PUSH1 0x20 PUSH1 0x4 DUP3 ADD MSTORE PUSH1 0x13 PUSH1 0x24 DUP3 ADD MSTORE PUSH19 0x21B0B63632B91034B9903737BA1037BBB732B9 PUSH1 0x69 SHL PUSH1 0x44 DUP3 ADD MSTORE PUSH1 0x64 SWAP1 REVERT JUMPDEST CALLVALUE PUSH2 0x10A JUMPI PUSH1 0x0 CALLDATASIZE PUSH1 0x3 NOT ADD SLT PUSH2 0x10A JUMPI PUSH1 0x20 PUSH1 0x40 MLOAD PUSH32 0x0 DUP2 MSTORE RETURN JUMPDEST CALLVALUE PUSH2 0x10A JUMPI PUSH1 0x0 CALLDATASIZE PUSH1 0x3 NOT ADD SLT PUSH2 0x10A JUMPI PUSH1 0x40 MLOAD PUSH1 0x0 PUSH1 0x3 SLOAD PUSH2 0xAE6 DUP2 PUSH2 0xC9C JUMP JUMPDEST DUP1 DUP5 MSTORE SWAP1 PUSH1 0x1 SWAP1 DUP2 DUP2 AND SWAP1 DUP2 ISZERO PUSH2 0xB6B JUMPI POP PUSH1 0x1 EQ PUSH2 0xB10 JUMPI JUMPDEST PUSH2 0x106 DUP5 PUSH2 0x2A1 DUP2 DUP7 SUB DUP3 PUSH2 0xD0C JUMP JUMPDEST PUSH1 0x3 PUSH1 0x0 SWAP1 DUP2 MSTORE SWAP3 POP PUSH32 0xC2575A0E9E593C00F959F8C92F12DB2869C3395A3B0502D05E2516446F71F85B JUMPDEST DUP3 DUP5 LT PUSH2 0xB53 JUMPI POP POP POP DUP2 ADD PUSH1 0x20 ADD PUSH2 0x2A1 DUP3 PUSH2 0xB00 JUMP JUMPDEST DUP1 SLOAD PUSH1 0x20 DUP6 DUP8 ADD DUP2 ADD SWAP2 SWAP1 SWAP2 MSTORE SWAP1 SWAP4 ADD SWAP3 DUP2 ADD PUSH2 0xB3B JUMP JUMPDEST PUSH1 0xFF NOT AND PUSH1 0x20 DUP1 DUP8 ADD SWAP2 SWAP1 SWAP2 MSTORE SWAP3 ISZERO ISZERO PUSH1 0x5 SHL DUP6 ADD SWAP1 SWAP3 ADD SWAP3 POP PUSH2 0x2A1 SWAP2 POP DUP4 SWAP1 POP PUSH2 0xB00 JUMP JUMPDEST CALLVALUE PUSH2 0x10A JUMPI PUSH1 0x20 CALLDATASIZE PUSH1 0x3 NOT ADD SLT PUSH2 0x10A JUMPI PUSH1 0x4 CALLDATALOAD PUSH1 0x4 SLOAD DUP2 LT ISZERO PUSH2 0x10A JUMPI PUSH2 0xBB9 SWAP1 PUSH2 0xC4B JUMP JUMPDEST POP DUP1 SLOAD PUSH2 0xBC8 PUSH1 0x1 DUP4 ADD PUSH2 0xDEB JUMP JUMPDEST SWAP2 PUSH1 0xFF PUSH2 0xBD7 PUSH1 0x2 DUP4 ADD PUSH2 0xDEB JUMP JUMPDEST PUSH2 0xC2C PUSH2 0xBE6 PUSH1 0x3 DUP6 ADD PUSH2 0xDEB JUMP JUMPDEST PUSH2 0xC1E PUSH1 0x5 PUSH1 0x4 DUP8 ADD SLOAD SWAP7 ADD SLOAD SWAP4 PUSH2 0xC10 PUSH1 0x40 MLOAD SWAP10 DUP11 SWAP10 DUP11 MSTORE PUSH1 0xE0 PUSH1 0x20 DUP12 ADD MSTORE PUSH1 0xE0 DUP11 ADD SWAP1 PUSH2 0xEB2 JUMP JUMPDEST SWAP1 DUP9 DUP3 SUB PUSH1 0x40 DUP11 ADD MSTORE PUSH2 0xEB2 JUMP JUMPDEST SWAP1 DUP7 DUP3 SUB PUSH1 0x60 DUP9 ADD MSTORE PUSH2 0xEB2 JUMP JUMPDEST SWAP3 PUSH1 0x80 DUP6 ADD MSTORE DUP2 DUP2 AND ISZERO ISZERO PUSH1 0xA0 DUP6 ADD MSTORE PUSH1 0x8 SHR AND ISZERO ISZERO PUSH1 0xC0 DUP4 ADD MSTORE SUB SWAP1 RETURN JUMPDEST PUSH1 0x4 SLOAD DUP2 LT ISZERO PUSH2 0xC86 JUMPI PUSH1 0x6 SWAP1 PUSH1 0x4 PUSH1 0x0 MSTORE MUL PUSH32 0x8A35ACFBC15FF81A39AE7D344FD709F28E8600B4AA8C65C6B64BFE7FE36BD19B ADD SWAP1 PUSH1 0x0 SWAP1 JUMP JUMPDEST PUSH4 0x4E487B71 PUSH1 0xE0 SHL PUSH1 0x0 MSTORE PUSH1 0x32 PUSH1 0x4 MSTORE PUSH1 0x24 PUSH1 0x0 REVERT JUMPDEST SWAP1 PUSH1 0x1 DUP3 DUP2 SHR SWAP3 AND DUP1 ISZERO PUSH2 0xCCC JUMPI JUMPDEST PUSH1 0x20 DUP4 LT EQ PUSH2 0xCB6 JUMPI JUMP JUMPDEST PUSH4 0x4E487B71 PUSH1 0xE0 SHL PUSH1 0x0 MSTORE PUSH1 0x22 PUSH1 0x4 MSTORE PUSH1 0x24 PUSH1 0x0 REVERT JUMPDEST SWAP2 PUSH1 0x7F AND SWAP2 PUSH2 0xCAB JUMP JUMPDEST PUSH1 0x20 DUP2 ADD SWAP1 DUP2 LT PUSH1 0x1 PUSH1 0x1 PUSH1 0x40 SHL SUB DUP3 GT OR PUSH2 0x6FD JUMPI PUSH1 0x40 MSTORE JUMP JUMPDEST PUSH1 0x40 DUP2 ADD SWAP1 DUP2 LT PUSH1 0x1 PUSH1 0x1 PUSH1 0x40 SHL SUB DUP3 GT OR PUSH2 0x6FD JUMPI PUSH1 0x40 MSTORE JUMP JUMPDEST SWAP1 PUSH1 0x1F DUP1 NOT SWAP2 ADD AND DUP2 ADD SWAP1 DUP2 LT PUSH1 0x1 PUSH1 0x1 PUSH1 0x40 SHL SUB DUP3 GT OR PUSH2 0x6FD JUMPI PUSH1 0x40 MSTORE JUMP JUMPDEST PUSH1 0x40 MLOAD SWAP1 PUSH1 0x0 DUP3 PUSH1 0x2 SLOAD SWAP2 PUSH2 0xD41 DUP4 PUSH2 0xC9C JUMP JUMPDEST DUP1 DUP4 MSTORE SWAP3 PUSH1 0x1 SWAP1 DUP2 DUP2 AND SWAP1 DUP2 ISZERO PUSH2 0xDC9 JUMPI POP PUSH1 0x1 EQ PUSH2 0xD6A JUMPI JUMPDEST POP PUSH2 0xD68 SWAP3 POP SUB DUP4 PUSH2 0xD0C JUMP JUMPDEST JUMP JUMPDEST PUSH1 0x2 PUSH1 0x0 SWAP1 DUP2 MSTORE SWAP2 POP PUSH32 0x405787FA12A823E0F2B7631CC41B3BA8828B3321CA811111FA75CD3AA3BB5ACE JUMPDEST DUP5 DUP4 LT PUSH2 0xDAE JUMPI POP PUSH2 0xD68 SWAP4 POP POP DUP2 ADD PUSH1 0x20 ADD CODESIZE PUSH2 0xD5B JUMP JUMPDEST DUP2 SWAP4 POP SWAP1 DUP2 PUSH1 0x20 SWAP3 SLOAD DUP4 DUP6 DUP11 ADD ADD MSTORE ADD SWAP2 ADD SWAP1 SWAP2 DUP6 SWAP3 PUSH2 0xD95 JUMP JUMPDEST SWAP1 POP PUSH1 0x20 SWAP3 POP PUSH2 0xD68 SWAP5 SWAP2 POP PUSH1 0xFF NOT AND DUP3 DUP5 ADD MSTORE ISZERO ISZERO PUSH1 0x5 SHL DUP3 ADD ADD CODESIZE PUSH2 0xD5B JUMP JUMPDEST SWAP1 PUSH1 0x40 MLOAD SWAP2 DUP3 PUSH1 0x0 DUP3 SLOAD SWAP3 PUSH2 0xDFF DUP5 PUSH2 0xC9C JUMP JUMPDEST SWAP1 DUP2 DUP5 MSTORE PUSH1 0x1 SWAP5 DUP6 DUP2 AND SWAP1 DUP2 PUSH1 0x0 EQ PUSH2 0xE6C JUMPI POP PUSH1 0x1 EQ PUSH2 0xE29 JUMPI JUMPDEST POP POP PUSH2 0xD68 SWAP3 POP SUB DUP4 PUSH2 0xD0C JUMP JUMPDEST SWAP1 SWAP4 SWAP2 POP PUSH1 0x0 MSTORE PUSH1 0x20 SWAP1 DUP2 PUSH1 0x0 KECCAK256 SWAP4 PUSH1 0x0 SWAP2 JUMPDEST DUP2 DUP4 LT PUSH2 0xE54 JUMPI POP POP PUSH2 0xD68 SWAP4 POP DUP3 ADD ADD CODESIZE DUP1 PUSH2 0xE1B JUMP JUMPDEST DUP6 SLOAD DUP9 DUP5 ADD DUP6 ADD MSTORE SWAP5 DUP6 ADD SWAP5 DUP8 SWAP5 POP SWAP2 DUP4 ADD SWAP2 PUSH2 0xE3C JUMP JUMPDEST SWAP2 POP POP PUSH2 0xD68 SWAP5 POP PUSH1 0x20 SWAP3 POP PUSH1 0xFF NOT AND DUP3 DUP5 ADD MSTORE ISZERO ISZERO PUSH1 0x5 SHL DUP3 ADD ADD CODESIZE DUP1 PUSH2 0xE1B JUMP JUMPDEST PUSH1 0x0 JUMPDEST DUP4 DUP2 LT PUSH2 0xEA2 JUMPI POP POP PUSH1 0x0 SWAP2 ADD MSTORE JUMP JUMPDEST DUP2 DUP2 ADD MLOAD DUP4 DUP3 ADD MSTORE PUSH1 0x20 ADD PUSH2 0xE92 JUMP JUMPDEST SWAP1 PUSH1 0x20 SWAP2 PUSH2 0xECB DUP2 MLOAD DUP1 SWAP3 DUP2 DUP6 MSTORE DUP6 DUP1 DUP7 ADD SWAP2 ADD PUSH2 0xE8F JUMP JUMPDEST PUSH1 0x1F ADD PUSH1 0x1F NOT AND ADD ADD SWAP1 JUMP JUMPDEST PUSH1 0x1 PUSH1 0x1 PUSH1 0x40 SHL SUB DUP2 GT PUSH2 0x6FD JUMPI PUSH1 0x5 SHL PUSH1 0x20 ADD SWAP1 JUMP JUMPDEST DUP2 PUSH1 0x1F DUP3 ADD SLT ISZERO PUSH2 0x10A JUMPI DUP1 CALLDATALOAD SWAP1 PUSH1 0x1 PUSH1 0x1 PUSH1 0x40 SHL SUB DUP3 GT PUSH2 0x6FD JUMPI PUSH1 0x40 MLOAD SWAP3 PUSH2 0xF22 PUSH1 0x1F DUP5 ADD PUSH1 0x1F NOT AND PUSH1 0x20 ADD DUP6 PUSH2 0xD0C JUMP JUMPDEST DUP3 DUP5 MSTORE PUSH1 0x20 DUP4 DUP4 ADD ADD GT PUSH2 0x10A JUMPI DUP2 PUSH1 0x0 SWAP3 PUSH1 0x20 DUP1 SWAP4 ADD DUP4 DUP7 ADD CALLDATACOPY DUP4 ADD ADD MSTORE SWAP1 JUMP JUMPDEST PUSH1 0x20 DUP1 DUP3 ADD SWAP1 DUP1 DUP4 MSTORE DUP4 MLOAD DUP1 SWAP3 MSTORE PUSH1 0x40 DUP4 ADD SWAP3 DUP2 PUSH1 0x40 DUP5 PUSH1 0x5 SHL DUP4 ADD ADD SWAP6 ADD SWAP4 PUSH1 0x0 SWAP2 JUMPDEST DUP5 DUP4 LT PUSH2 0xF78 JUMPI POP POP POP POP POP POP SWAP1 JUMP JUMPDEST SWAP1 SWAP2 SWAP3 SWAP4 SWAP5 SWAP6 DUP5 DUP1 PUSH2 0xF96 PUSH1 0x1 SWAP4 PUSH1 0x3F NOT DUP7 DUP3 SUB ADD DUP8 MSTORE DUP11 MLOAD PUSH2 0xEB2 JUMP JUMPDEST SWAP9 ADD SWAP4 ADD SWAP4 ADD SWAP2 SWAP5 SWAP4 SWAP3 SWAP1 PUSH2 0xF68 JUMP JUMPDEST PUSH1 0x0 NOT DUP2 EQ PUSH2 0x622 JUMPI PUSH1 0x1 ADD SWAP1 JUMP JUMPDEST DUP1 MLOAD ISZERO PUSH2 0xC86 JUMPI PUSH1 0x20 ADD SWAP1 JUMP JUMPDEST DUP1 MLOAD DUP3 LT ISZERO PUSH2 0xC86 JUMPI PUSH1 0x20 SWAP2 PUSH1 0x5 SHL ADD ADD SWAP1 JUMP JUMPDEST SWAP2 SWAP1 SWAP2 PUSH2 0xFE2 DUP4 PUSH2 0x128F JUMP JUMPDEST ISZERO PUSH2 0x111B JUMPI JUMPDEST PUSH2 0x100D DUP2 PUSH1 0x5 PUSH2 0xFF9 PUSH1 0x3 SWAP5 PUSH2 0xC4B JUMP JUMPDEST POP ADD DUP1 SLOAD PUSH2 0xFF00 NOT AND PUSH2 0x100 OR SWAP1 SSTORE PUSH2 0xC4B JUMP JUMPDEST POP ADD DUP3 MLOAD PUSH1 0x1 PUSH1 0x1 PUSH1 0x40 SHL SUB DUP2 GT PUSH2 0x6FD JUMPI PUSH2 0x1029 DUP3 SLOAD PUSH2 0xC9C JUMP JUMPDEST PUSH1 0x1F DUP2 GT PUSH2 0x10D3 JUMPI JUMPDEST POP PUSH1 0x20 DUP1 PUSH1 0x1F DUP4 GT PUSH1 0x1 EQ PUSH2 0x106F JUMPI POP DUP2 SWAP3 SWAP4 SWAP5 PUSH1 0x0 SWAP3 PUSH2 0x1064 JUMPI JUMPDEST POP POP DUP2 PUSH1 0x1 SHL SWAP2 PUSH1 0x0 NOT SWAP1 PUSH1 0x3 SHL SHR NOT AND OR SWAP1 SSTORE JUMP JUMPDEST ADD MLOAD SWAP1 POP CODESIZE DUP1 PUSH2 0x104E JUMP JUMPDEST SWAP1 PUSH1 0x1F NOT DUP4 AND SWAP6 DUP5 PUSH1 0x0 MSTORE DUP3 PUSH1 0x0 KECCAK256 SWAP3 PUSH1 0x0 SWAP1 JUMPDEST DUP9 DUP3 LT PUSH2 0x10BB JUMPI POP POP DUP4 PUSH1 0x1 SWAP6 SWAP7 SWAP8 LT PUSH2 0x10A2 JUMPI JUMPDEST POP POP POP DUP2 SHL ADD SWAP1 SSTORE JUMP JUMPDEST ADD MLOAD PUSH1 0x0 NOT PUSH1 0xF8 DUP5 PUSH1 0x3 SHL AND SHR NOT AND SWAP1 SSTORE CODESIZE DUP1 DUP1 PUSH2 0x1098 JUMP JUMPDEST DUP1 PUSH1 0x1 DUP6 SWAP7 DUP3 SWAP5 SWAP7 DUP7 ADD MLOAD DUP2 SSTORE ADD SWAP6 ADD SWAP4 ADD SWAP1 PUSH2 0x1083 JUMP JUMPDEST PUSH1 0x0 DUP4 DUP2 MSTORE PUSH1 0x20 DUP2 KECCAK256 PUSH1 0x1F DUP5 ADD PUSH1 0x5 SHR DUP2 ADD SWAP3 PUSH1 0x20 DUP6 LT PUSH2 0x1111 JUMPI JUMPDEST PUSH1 0x1F ADD PUSH1 0x5 SHR ADD SWAP2 JUMPDEST DUP3 DUP2 LT PUSH2 0x1106 JUMPI POP POP PUSH2 0x1032 JUMP JUMPDEST DUP2 DUP2 SSTORE PUSH1 0x1 ADD PUSH2 0x10F8 JUMP JUMPDEST SWAP1 SWAP3 POP DUP3 SWAP1 PUSH2 0x10EF JUMP JUMPDEST PUSH1 0x4 PUSH2 0x1126 DUP3 PUSH2 0xC4B JUMP JUMPDEST POP ADD PUSH2 0x1132 DUP2 SLOAD PUSH2 0xFA6 JUMP JUMPDEST SWAP1 SSTORE PUSH1 0x4 PUSH2 0x113F DUP3 PUSH2 0xC4B JUMP JUMPDEST POP ADD SLOAD PUSH32 0x0 GT ISZERO PUSH2 0xFE8 JUMPI PUSH1 0x0 SWAP2 SWAP3 POP PUSH1 0x20 SWAP1 PUSH1 0x24 PUSH2 0x1187 PUSH1 0x1 DUP1 PUSH1 0xA0 SHL SUB PUSH1 0x1 SLOAD AND SWAP3 PUSH2 0xC4B JUMP JUMPDEST POP SLOAD PUSH1 0x40 MLOAD SWAP5 DUP6 SWAP4 DUP5 SWAP3 PUSH4 0x6C4E8991 PUSH1 0xE1 SHL DUP5 MSTORE PUSH1 0x4 DUP5 ADD MSTORE GAS CALL DUP1 ISZERO PUSH2 0x616 JUMPI PUSH2 0x11AF JUMPI POP JUMP JUMPDEST PUSH1 0x20 SWAP1 DUP2 RETURNDATASIZE DUP2 GT PUSH2 0x11CF JUMPI JUMPDEST PUSH2 0x11C5 DUP2 DUP4 PUSH2 0xD0C JUMP JUMPDEST DUP2 ADD SUB SLT PUSH2 0x10A JUMPI JUMP JUMPDEST POP RETURNDATASIZE PUSH2 0x11BB JUMP JUMPDEST PUSH1 0x40 MLOAD PUSH3 0x461BCD PUSH1 0xE5 SHL DUP2 MSTORE PUSH1 0x20 PUSH1 0x4 DUP3 ADD MSTORE PUSH1 0x12 PUSH1 0x24 DUP3 ADD MSTORE PUSH18 0x141C9BDC1BDCD85B081B9BDD08199BDD5B99 PUSH1 0x72 SHL PUSH1 0x44 DUP3 ADD MSTORE PUSH1 0x64 SWAP1 REVERT JUMPDEST PUSH1 0x4 SLOAD SWAP1 PUSH1 0x0 JUMPDEST DUP3 DUP2 LT ISZERO PUSH2 0x11D6 JUMPI DUP2 PUSH2 0x1229 DUP3 PUSH2 0xC4B JUMP JUMPDEST POP SLOAD EQ PUSH2 0x123E JUMPI PUSH2 0x1239 SWAP1 PUSH2 0xFA6 JUMP JUMPDEST PUSH2 0x1217 JUMP JUMPDEST PUSH2 0x1257 SWAP3 POP PUSH1 0x3 SWAP2 POP PUSH2 0x1250 SWAP1 PUSH2 0xC4B JUMP JUMPDEST POP ADD PUSH2 0xDEB JUMP JUMPDEST SWAP1 JUMP JUMPDEST PUSH1 0x40 MLOAD PUSH2 0x1266 DUP2 PUSH2 0xCF1 JUMP JUMPDEST PUSH1 0x1 DUP2 MSTORE DUP1 PUSH1 0x0 JUMPDEST PUSH1 0x20 DUP1 DUP3 LT ISZERO PUSH2 0x1289 JUMPI SWAP1 PUSH1 0x60 PUSH1 0x20 SWAP3 DUP3 DUP6 ADD ADD MSTORE ADD PUSH2 0x126E JUMP JUMPDEST POP POP POP SWAP1 JUMP JUMPDEST DUP1 MLOAD PUSH1 0x0 NOT DUP2 ADD DUP2 DUP2 GT PUSH2 0x622 JUMPI DUP3 MLOAD GT ISZERO PUSH2 0xC86 JUMPI PUSH1 0x1F SWAP2 ADD ADD MLOAD PUSH1 0x1 PUSH1 0x1 PUSH1 0xF8 SHL SUB NOT AND PUSH1 0x59 PUSH1 0xF8 SHL DUP2 EQ SWAP1 DUP2 ISZERO PUSH2 0x12FE JUMPI JUMPDEST DUP2 ISZERO PUSH2 0x12F0 JUMPI JUMPDEST DUP2 ISZERO PUSH2 0x12E2 JUMPI JUMPDEST POP ISZERO PUSH2 0x12DD JUMPI PUSH1 0x1 SWAP1 JUMP JUMPDEST PUSH1 0x0 SWAP1 JUMP JUMPDEST PUSH1 0x37 PUSH1 0xF9 SHL EQ SWAP1 POP CODESIZE PUSH2 0x12D2 JUMP JUMPDEST PUSH1 0x79 PUSH1 0xF8 SHL DUP2 EQ SWAP2 POP PUSH2 0x12CB JUMP JUMPDEST PUSH1 0x27 PUSH1 0xF9 SHL DUP2 EQ SWAP2 POP PUSH2 0x12C4 JUMP INVALID LOG2 PUSH5 0x6970667358 0x22 SLT KECCAK256 0x27 0x2A DUP6 0xE8 0xB8 SUB MULMOD SWAP1 PUSH12 0x99D6CB3C3E85981FFC10C39E 0xB6 PUSH27 0x7D49C9241BA283E5AE64736F6C6343000814003300000000000000 "},"methodIdentifiers":{"getMessageHistoryContents(uint256)":"eb17429a","getMessageHistoryRoles(uint256)":"ed6e39e5","getProposalAdvice(uint256)":"9748f507","getProposalCount()":"c08cc02d","instruction()":"5e486e0f","maxIterations()":"387f504a","name()":"06fdde03","onOracleLlmResponse(uint256,string,string)":"a1b67ed1","oracleAddress()":"a89ae4ba","proposals(uint256)":"013cf08b","setOracleAddress(address)":"4c69c00f","setVoted(uint256)":"8581a031","submitProposals(string[],uint256[])":"92eca6b4"}}}}}